:100000000C94F2270C9423280C9423280C94232876
:100010000C9423280C9423280C9423280C94232834
:100020000C9423280C9423280C9423280C94232824
:100030000C9423280C9423280C9423280C94232814
:100040000C9423280C948EA30C9423280C9423281E
:100050000C9423280C9423280D946D840D94096A24
:100060000C9423280D949F590C9423280C94232836
:100070000C9423280C9423280C9423280C942328D4
:100080000C9423280C9423280C9423280C942328C4
:100090000C9423280C9423280C9423280C9415F2F8
:1000A0000C9423280C9423280C9423280C942328A4
:1000B0000C9423280C9423280C9423280C94232894
:1000C0000C9423280C9423280C9423280C94232884
:1000D0000C9423280C9423280C9423280C94232874
:1000E0000C942328EA44ED44F144F544F944FD44DA
:1000F000F345014505450A45F3450F4515451945A5
:100100001D4521452545F34529452D453345F345F5
:1001100039454F4551455F456145634565456B45EB
:100120006D456F4571457B457D457F4581458745DB
:100130008945F345F345F345F345F345F345F34569
:10014000F345F345F345F345F345F345F345F345EF
:10015000F345F345F345F345F345F345F345F345DF
:10016000F345F345F345F345F345F345F345F345CF
:10017000F345F345F345F345F345F345F345F345BF
:10018000F345F345F345F345F345F345F345F345AF
:10019000F345F345F345F345F345F345F345F3459F
:1001A000F345F345F345F345F345F3459345B4452E
:1001B000804C804C884C904CA04CA84CB04CB84C17
:1001C000C04C984CEC02A4014A01D0011603300146
:1001D0006A02EE020802BC01E0013201E4014C02B5
:1001E000300170019E0186016C011802CA014E02A5
:1001F000FE0290019C022C03E202EC01E6024602A0
:10020000F201B201900158016A01D801084AD73BB6
:100210003BCE016E84BCBFFDC12F3D6C74319ABDD5
:1002200056833DDA3D00C77F11BED9E4BB4C3E91F9
:100230006BAAAABE000000803F05A84CCDB2D44EE8
:10024000B93836A9020C50B9918688083CA6AAAAEA
:100250002ABE000000803F000D9486240D94F034E7
:100260000D940E680D94F3670D94071A0D944717BB
:100270000D94D90E0D94A42D0D9434630D94E12F9B
:100280000D9427160D94333D0D94BC150D947A11E1
:100290000D9405350D94C6670D94CB360D94FA2355
:1002A0000D949D650D94EF160D9448210D94E21464
:1002B0000D94FE680D944A190D94B52E0D94253FAA
:1002C0000D9422030D9429030D94112F0D94B34026
:1002D0000D9471150D9408690D9485680D948D0D1C
:1002E0000D9401680D94CC190D9497160D941F1D53
:1002F0000D949F730D94F82F0D94C1070D94107AEF
:100300000D94D23A0D9444400D94100F0D94096849
:100310000D94F36E0D94C5790D94CB460D940F2575
:100320000D941C690D9457360D9455360D94563A1C
:100330000D9496320D94B5420D94C2170D94056834
:100340000D9469740D94023E0D94D7670D946076F8
:100350000D94FB340D94143B0D94B0120D9407666C
:100360000D94B7170D94F4680D94B8410D94AE41F7
:100370000D94BC170D946B790D94E9670D94C736F5
:100380000D944D2D0D9494360D945C0D0D94D50D5A
:100390000D94E6760D948F680D94EB1B0D948E39B9
:1003A0000D94CA670D947A320D9443740D945336AC
:1003B0000D9412690D94800B0D943F110D94467AA3
:1003C0000D94ED670D9465240D94F7670D940497D3
:1003D0000D947F170D949B350D94C7680D940704F9
:1003E0000D941B030D94EA680D94781C0D94C313AF
:1003F0000D9458550D9427170D94266E0D94B12524
:100400000D941A790D94C6400D948B060D94190520
:100410000D94E5670D94973F0D9466660D946942BF
:100420000D945F160D94B7770D9489740D94DB3499
:100430000D948A680D94872E0D94770D0D94E31D0D
:100440000D9469060D94B90E0D9455390D944336EB
:100450000D9470420D94E32E0D945F350D942A1582
:100460000D94970C0D940E2D0D9430970D94204201
:100470000D946B0D0D941F3A0D9413100D942232B0
:100480000D9471230D94F51C0D9488040D94DB6874
:100490000D94D9300D9442780D94FB670D949968B2
:1004A0000D94731E0D94A5620D947D350D94041169
:1004B0000D9400350D94E91F0D944A1F0D94DA3AFE
:1004C0000D94B50C0D94730D0D9466780D94A118D0
:1004D0000D945D040D94DB670D9486320D944424D5
:1004E0000D94B41B0D94DB2D0D94C6210D94A632F2
:1004F0000D948B0F0D94C7060D9407160D9419419A
:100500000D9415240D9441350D94D0620D94FC6A20
:100510000D94471A0D9423350D945A0E0D948D3A6F
:100520000D9480320D9456690D94C73F0D94366337
:100530000D94A9050D94AD060D94AD680D948C3203
:100540000D94133D0D94AD050D946C3E0D94B7784C
:100550000D94662D0D94D5200D94DB0F0D945755F9
:100560000D94AB1E0D94C6100D94E1240D94D50C82
:100570000D94F8240D94BF170D942B2E0D94231D6C
:100580000D944D0D0D94841B0D94A3650D94EE6A8E
:100590000D94B7160D94DE350D94563F0D947636B6
:1005A0000D94600F0D9438650D94A30D0D946E237A
:1005B0000D94093F0D94EC6A0D9432040D94E56D91
:1005C0000D94AA1A0D94BD680D94A7180D94D168C6
:1005D0000D94541B0D9406100D94D4670D94DF6791
:1005E0000D949E750D94DA7A0D94E71A0D94A33D3F
:1005F0000D94DE3A0D94FA330D94790C0D94A368A2
:100600000D9474190D9408650D94473B0D94A876CC
:100610000D94E8390D942B240D944C740D94907125
:100620000D947A1A0D94CA210D94241B0D94CE6753
:100630000D94CE350D94AA410D94261D0D949E194E
:100640000D94B9350D94FB6A0D9422760D94A6662F
:100650000D94D63A0D94602D0D94B5680D94202418
:100660004E414E494E495459494E46CDCCCC3D0A97
:10067000D7233C17B7D13877CC2B329595E6241F7A
:10068000B14F0A000020410000C84200401C462033
:10069000BCBE4CCA1B0E5AAEC59D74436172642029
:1006A0006572726F723A004E6F74205344207072FC
:1006B000696E74696E67002F005344207072696E12
:1006C00074696E67206279746520002E0044656C41
:1006D0006574696F6E206661696C65642C2046697B
:1006E0006C653A200046696C652064656C657465CC
:1006F000643A002E006F70656E206661696C6564F7
:100700002C2046696C653A20006F6B000D0A003F93
:100710000054696E6B65725F4458555F31372E31F6
:1007200030000D0A00556E6B6E6F776E20636F6D33
:100730006D616E643A2000544553540D0A00220046
:10074000556E6B6E6F776E20636F6D6D616E643A80
:10075000202200456C656374726F6E6963735F7409
:1007600065737400416374697665204578747275A9
:100770006465723A2000496E76616C696420657820
:1007800074727564657200540020423A3000204251
:100790003A31006F6B20523A00726573756D6500D7
:1007A00020643A0020693A0020703A006F6B002004
:1007B000643A0020693A0020703A006F6B002C0008
:1007C0002000486F74656E64206F6666736574738D
:1007D0003A002200556E6B6E6F776E20636F6D6D01
:1007E000616E643A2022006F70656E005452494772
:1007F0004745524544007A5F6D61783A20006F703A
:10080000656E0054524947474552454400795F6D33
:1008100061783A20006F70656E0054524947474531
:1008200052454400785F6D696E3A20005265706FE2
:100830007274696E6720656E6473746F7020737470
:100840006174757300453A005A3A00593A002043E2
:100850006F756E7420583A2000453A005A3A005994
:100860003A00583A004649524D574152455F4E4171
:100870004D453A4D61726C696E20556C74696D61BD
:100880006B6572323B20537072696E7465722F67AC
:1008900072626C206D617368757020666F7220677C
:1008A000656E36204649524D574152455F55524C70
:1008B0003A687474703A2F2F6769746875622E6392
:1008C0006F6D2F556C74696D616B65722050524F5E
:1008D000544F434F4C5F56455253494F4E3A312E79
:1008E00030204D414348494E455F545950453A5593
:1008F0006C74696D616B657220455854525544455E
:10090000525F434F554E543A320A003F0020573A47
:10091000002569206D696E2C2025692073656300B0
:10092000456E642066696C65206C6973740042656D
:1009300067696E2066696C65206C69737400726506
:1009400073756D65007061757365004350450043B4
:1009500050450041425300504C4100435045004334
:1009600050450055504554002020506C616E6E6516
:100970007242756666657242797465733A2000202A
:1009800046726565204D656D6F72793A200053653A
:1009900070203137203230313800436F6D70696C10
:1009A00065643A200054696E6B65725F4458555F08
:1009B00031372E313000207C20417574686F723AD7
:1009C00020005365702031372032303138203133E8
:1009D0003A31313A323900204C61737420557064D9
:1009E000617465643A2000312E302E30004D617202
:1009F0006C696E200020536F6674776172652052B7
:100A00006573657400205761746368646F67205272
:100A100065736574002042726F776E206F75742065
:100A20005265736574002045787465726E616C2040
:100A3000526573657400506F7765725570007374FA
:100A4000617274004E6F204C696E65204E756D6248
:100A50006572207769746820636865636B73756D70
:100A60002C204C617374204C696E653A20005072E2
:100A7000696E7465722073746F707065642064753C
:100A80006520746F206572726F72732E20466978CC
:100A900020746865206572726F7220616E642075C3
:100AA0007365204D39393920746F20726573746114
:100AB00072742E202854656D70657261747572654C
:100AC0002069732072657365742E205365742069E4
:100AD00074206166746572207265737461727469E2
:100AE0006E6729004E6F20436865636B73756D20D8
:100AF00077697468206C696E65206E756D626572C9
:100B00002C204C617374204C696E653A2000636838
:100B100065636B73756D206D69736D617463682CAB
:100B2000204C617374204C696E653A20004C696EEC
:100B300065204E756D626572206973206E6F74203A
:100B40004C617374204C696E65204E756D626572E0
:100B50002B312C204C617374204C696E653A200057
:100B60004D313130006563686F3A00256920686F48
:100B7000757273202569206D696E75746573004404
:100B80006F6E65207072696E74696E672066696C3D
:100B9000650000002110422063308440A550C660EB
:100BA000E770088129914AA16BB18CC1ADD1CEE12A
:100BB000EFF13112100273325222B5529442F772A1
:100BC000D662399318837BB35AA3BDD39CC3FFF37A
:100BD000DEE36224433420040114E664C774A444B1
:100BE00085546AA54BB528850995EEE5CFF5ACC5CA
:100BF0008DD55336722611163006D776F666955681
:100C0000B4465BB77AA719973887DFF7FEE79DD719
:100C1000BCC7C448E5588668A77840086118022810
:100C20002338CCC9EDD98EE9AFF9488969990AA969
:100C30002BB9F55AD44AB77A966A711A500A333AE0
:100C4000122AFDDBDCCBBFFB9EEB799B588B3BBBB9
:100C50001AABA66C877CE44CC55C222C033C600C70
:100C6000411CAEED8FFDECCDCDDD2AAD0BBD688D09
:100C7000499D977EB66ED55EF44E133E322E511EC0
:100C8000700E9FFFBEEFDDDFFCCF1BBF3AAF599F59
:100C9000788F8891A981CAB1EBA10CD12DC14EF1F9
:100CA0006FE18010A100C230E3200450254046705F
:100CB0006760B9839893FBA3DAB33DC31CD37FE38A
:100CC0005EF3B1029012F322D232354214527762AF
:100CD0005672EAB5CBA5A89589856EF54FE52CD55A
:100CE0000DC5E234C324A0148104667447642454FF
:100CF0000544DBA7FAB79987B8975FE77EF71DC76A
:100D00003CD7D326F2369106B0165766767615464E
:100D100034564CD96DC90EF92FE9C899E9898AB9B9
:100D2000ABA94458654806782768C018E10882389E
:100D3000A3287DCB5CDB3FEB1EFBF98BD89BBBABC9
:100D40009ABB754A545A376A167AF10AD01AB32AEE
:100D5000923A2EFD0FED6CDD4DCDAABD8BADE89D19
:100D6000C98D267C076C645C454CA23C832CE01C3E
:100D7000C10C1FEF3EFF5DCF7CDF9BAFBABFD98FA9
:100D8000F89F176E367E554E745E932EB23ED10E8E
:100D9000F01E7C3C3E5E2B3D3F2F5B5D3B2C2A22B0
:100DA0005C00206279746573206672656500476F28
:100DB00020746F3A00737570706F72740045523012
:100DC000370058206F722059207377697463682048
:100DD000737475636B00455230370058206F722072
:100DE00059207377697463682062726F6B656E0057
:100DF00045523036005A20737769746368207374E3
:100E000075636B0045523035005A207377697463FF
:100E1000682062726F6B656E00455230340053611A
:100E20006665747920636972637569740045523030
:100E30003300486561746572206572726F72004597
:100E40005230320054656D702073656E736F72207E
:100E500042454400455230310054656D7020736541
:100E60006E736F72004552524F52202D2053544FD3
:100E70005050454400756C74696D616B65722E63EA
:100E80006F6D2F00666F72206D6174657269616CA1
:100E90002072656D6F76616C0029002800436F6FCA
:100EA0006C696E67206E6F7A7A6C65004865617454
:100EB000696E67206E6F7A7A6C650052657665722E
:100EC00073696E67206D6174657269616C002900D9
:100ED000280045787472756465720052656D6F768E
:100EE00065206D6174657269616C00290028004598
:100EF000787472756465720043414E43454C0052EC
:100F00004541445900666F7220696E736572746959
:100F10006F6E0029002800436F6F6C696E67206E4A
:100F20006F7A7A6C650048656174696E67206E6FD0
:100F30007A7A6C6500796F7572206D616368696E8D
:100F4000650066726F6D20746865206261636B7303
:100F5000696465206F660029002800666F7220654D
:100F60007874727564657200496E73657274206E70
:100F70006577206D6174657269616C0043414E4311
:100F8000454C00524541445900466F727761726486
:100F9000696E67206D6174657269616C0029002853
:100FA0000045787472756465720029002800636FCB
:100FB0006D6573206F7574206E6F7A7A6C6500575B
:100FC0006169742074696C6C206D6174657269610B
:100FD0006C0043414E43454C005245414459002565
:100FE0000046616E3A2000430043002500466C6FC6
:100FF000773A006D6D004D4154455249414C0069AE
:101000006E204D4154455249414C2E545854007461
:101010006F207468652053442063617264005361DB
:10102000766564206D6174657269616C73004F6BE5
:10103000000A006469616D657465723D000A0066AE
:101040006C6F773D000A0066616E5F737065656462
:101050003D000A006265645F74656D70657261745D
:101060007572653D000A003D0074656D70657261C2
:10107000747572655F000A0074656D7065726174E5
:101080007572653D000A006E616D653D005B6D61C6
:1010900074657269616C5D0A0052656164696E67AE
:1010A00020636172642E2E2E00506C656173652082
:1010B000696E736572742063617264004E6F2053B1
:1010C000442D43415244210066726F6D207468655F
:1010D0002053442063617264004C6F616465642036
:1010E0006D6174657269616C73004F6B0074656D3E
:1010F00070657261747572655F006469616D6574B5
:10110000657200666C6F770066616E5F737065650F
:1011100064006265645F74656D7065726174757298
:10112000650074656D7065726174757265006E61DD
:101130006D65005B6D6174657269616C5D00466F21
:10114000756E64206F6E20636172642E004E6F2096
:101150006578706F72742066696C650052656164B1
:10116000696E6720636172642E2E2E00506C65617B
:10117000736520696E736572742063617264004EDA
:101180006F2053442D434152442100496D706F72CA
:10119000742066726F6D205344004578706F7274CE
:1011A00020746F20534400437573746F6D697A65C2
:1011B00000250046616E3A200043004300250046AA
:1011C0006C6F773A006D6D004C6F61647320616CD9
:1011D0006C206D6174657269616C73005361766532
:1011E0007320616C6C206D6174657269616C730051
:1011F0004D6F6469667920746865207365747469DD
:101200006E6773004D4154455249414C00666F7200
:10121000206578747275646572203200666F722082
:10122000657874727564657220310053656C65630E
:10123000746564206D6174657269616C3A004F4B2E
:101240000047323820583020593000473238205A71
:101250003000473238005072696E742070617573C7
:1012600065642E20436865636B20666565646572FE
:101270002E006563686F3A004D6174657269616C38
:10128000207472616E73706F727420697373756508
:101290002064657465637465642E004572726F72B4
:1012A0003A00436865636B206665656465722E006D
:1012B0005072696E74207061757365642E00697375
:1012C0007375652064657465637465642E004D6193
:1012D00074657269616C207472616E73706F727480
:1012E00000434F4E54494E55450020746F6F206C9B
:1012F0006F6E6720657874727573696F6E20707297
:101300006576656E7465640020636F6C6420657833
:1013100074727573696F6E2070726576656E746530
:1013200064006563686F3A005700457874727564AD
:101330006572203200320057617474616765204520
:101340007874727564657200570031004578747264
:10135000756465720031005761747461676520457A
:10136000787472756465720057004275696C6470B8
:101370006C617465005761747461676520427569BA
:101380006C64706C617465005700546F74616C001C
:10139000546F74616C20506F77657220427564677A
:1013A0006574004241434B004241434B00436C692A
:1013B000636B20746F2072657475726E0053544FA6
:1013C00052450053746F7265206F7074696F6E734D
:1013D00000506F77657220427564676574005374BE
:1013E0006F72652061732070726573657400466C5E
:1013F0006F7720250046616E004469616D657465F4
:101400007200486561746564206275696C64706C13
:101410006174650054656D70657261747572650004
:10142000250025006D6D004300432000432000256A
:10143000004D6174657269616C20666C6F77002580
:101440000046616E207370656564006D6D004D61CE
:1014500074657269616C204469616D6574657200C0
:1014600043004275696C64706C6174652054656DED
:10147000702E004D4154455249414C0054656D70E9
:10148000657261747572653A2000430043005465CB
:101490006D7065726174757265004D4154455249B5
:1014A000414C004E65772070726573657400505230
:1014B0004553455453004350450041425300504C5E
:1014C00041002500476C6F77004C454420736C65E4
:1014D000657020676C6F770007087F6E6C787267A5
:1014E000426F66660025004C434420736C6565704E
:1014F00020636F6E74726173740053637265656EFE
:10150000006F6666006D696E0053637265656E20DC
:1015100074696D656F7574000708492A1C7F1C2A61
:101520004925004C454420736C65657020627269E2
:101530006768746E6573730007081C22414F492267
:101540001C4C69676874006F6666006D696E004CBC
:1015500045442074696D656F7574004241434B00CA
:101560004241434B00436C69636B20746F2072658A
:101570007475726E0053544F52450053746F726508
:10158000206F7074696F6E7300536C6565702074A2
:10159000696D6572006D6D005A004D6178696D75F9
:1015A0006D205A20636F6F7264696E617465006D9F
:1015B0006D002D004D6178696D756D205920636F48
:1015C0006F7264696E617465006D6D0059004D69DC
:1015D0006E696D756D205920636F6F7264696E61FD
:1015E0007465006D6D002D004D6178696D756D201D
:1015F0005820636F6F7264696E617465006D6D0071
:1016000058004D696E696D756D205820636F6F725B
:1016100064696E617465004241434B004241434B33
:1016200000436C69636B20746F2072657475726E11
:101630000053544F52450053746F726520617869AE
:1016400073206C696D697473005072696E742061E7
:101650007265610020280029004300432F00436C7D
:1016600069636B20746F2072657475726E004275C9
:10167000696C64706C6174650054656D706572614D
:10168000747572650025004272696768746E6573CF
:10169000730025004D6174657269616C20666C6F22
:1016A0007720320025004D6174657269616C206697
:1016B0006C6F77203100250046616E207370656580
:1016C000640025005072696E742073706565640053
:1016D00054554E4500457874727564657220636890
:1016E000616E6765206C656E00456E64206F6620D4
:1016F0007072696E74206C656E67746800526574F0
:101700007261637420737065656400526574726100
:101710006374206C656E677468006D6D006D6D2F6D
:10172000736563006D6D006D6D2F736563005265A9
:101730007472616374207370656564006D6D00522E
:10174000657472616374206C656E677468005245DD
:101750005452414354494F4E004D363031205825A4
:101760007520592575205A2575204C257300424156
:10177000434B004241434B0054554E450054554E97
:10178000450041424F52547C0005083E3E003E3E1B
:1017900050415553457C0041424F52540041424F05
:1017A00052540054554E450054554E45004D415439
:1017B000455249414C004348414E47450007081CEB
:1017C000224A524C201F4D4154455249414C00433E
:1017D00048414E47450005087F7F3E1C085245534F
:1017E000554D457C0050415553494E477C00205A89
:1017F0003A0020593A0020583A00656E6473746FBD
:101800007073206869743A20006563686F3A002439
:10181000F4D43050C38E20C2A24017828B701112B4
:101820007A910D816CD90AA861E108C758660761F1
:101830005143061E4B5D05C145A7041A4111040919
:101840003D9803713931034036DB0265339102D490
:10185000305402802E1D02632CEE01752AC501B0A2
:1018600028A001102781018F2564012B244B01E062
:10187000223401AC211F018D200D01801FFC00844A
:101880001EED00971DDF00B81CD200E61BC600202D
:101890001BBC00641AB200B219A8000A19A0006AA1
:1018A000189900D117910040178B00B516840031AC
:1018B000167E00B31579003A157300C7146F0058EF
:1018C000146A00EE1366008813630025135E00C7D8
:1018D000125B006C12570015125400C111510070B8
:1018E000114F0021114B00D61049008D10470046C2
:1018F00010440002104200C00F4000800F3E004222
:101900000F3C00060F3B00CB0E3800930E37005CF7
:101910000E3500270E3400F30D3200C10D3100905A
:101920000D3000600D2E00320D2D00050D2C00D95C
:101930000C2B00AE0C2900850C29005C0C2700350F
:101940000C27000E0C2600E80B2400C40B2400A07A
:101950000B23007D0B23005A0B2100390B210018AB
:101960000B2000F80A1F00D90A1E00BB0A1E009DAA
:101970000A1D00800A1D00630A1C00470A1B002C78
:101980000A1B00110A1A00F7091A00DD091900C420
:10199000091900AB091900920917007B09180063A7
:1019A0000917004C09160036091600200916000A0E
:1019B000091500F5081500E0081400CC081400B85B
:1019C000081400A4081400900813007D0812006B8E
:1019D00008130058081200460812003408110023AA
:1019E0000811001208110001081100F0071000E0B2
:1019F000071000D0071000C0071000B0070F00A1AB
:101A000007100091070E0083070F0074070F006591
:101A1000070E0057070E0049070E003B070D002E6A
:101A2000070E0020070D0013070D0006070D00F933
:101A3000060C00ED060D00E0060C00D4060C00C8F4
:101A4000060C00BC060C00B0060C00A4060B0099A6
:101A5000060C008D060B0082060B0077060B006C4F
:101A6000060B0061060A0057060B004C060A0042EE
:101A7000060A0038060A002E060A0024060A001A82
:101A8000060A001006090007060A00FD050900F411
:101A9000050900EB050900E2050900D9050900D098
:101AA000050900C7050900BE050900B5050800AD18
:101AB000050800A50509009C050800940508008C90
:101AC000050800840508007C050800740508006C02
:101AD000050700650508005D050700560508004E6E
:101AE00005070047050700400508003805070031D5
:101AF0000507002A050700230507001C0506001638
:101B00000507000F0507000805060002050700FB92
:101B1000040600F5040700EE040600E8040600E2EF
:101B2000040700DB040600D5040600CF040600C944
:101B3000040600C3040600BD040600B7040600B195
:101B4000040500AC040600A6040600A00405009BE2
:101B500004060095040500900406008A040500852B
:101B6000040500800406007A040500750405007071
:101B70000405006B04050066040500610405005CB3
:101B800004050057040500520405004D04050048F3
:101B9000040500430405003E0404003A0405003532
:101BA000040500300404002C04050027040400236D
:101BB0000405001E0404001A0404001604050011A4
:101BC0000404000D040400090405000404040000DA
:101BD000040400FC030400F8030400F4030400F010
:101BE000030400EC030400E8030400E4030400E041
:101BF000030400DC030400D8030400D4030400D071
:101C0000030400CC030400C8030300C5030300243D
:101C1000F404D9201BC40C5C0E9804C4095F02654F
:101C2000077101F405F900FB04B30048048700C103
:101C30000369005803550003034500BE023A0084BF
:101C400002310053022A002902250004022000E488
:101C5000011C00C8011900AF01170098011400848D
:101C6000011300710110006101100051010E0043C9
:101C7000010D0036010B002B010B0020010B00159C
:101C80000109000C01090003010800FB000800F332
:101C9000000800EB000700E4000600DE000600D8A4
:101CA000000600D2000600CC000500C7000500C2F7
:101CB000000500BD000400B9000400B5000400B137
:101CC000000400AD000400A9000400A5000300A268
:101CD0000003009F0004009B000300980003009590
:101CE00000020093000300900003008D0002008BAF
:101CF00000030088000200860002008400030081C7
:101D00000002007F0002007D0002007B00020079DB
:101D100000020077000100760002007400020072E9
:101D2000000100710002006F0002006D0001006CF4
:101D30000002006A000100690002006700010066FD
:101D40000001006500010064000200620001006102
:101D5000000100600001005F0002005D0001005C06
:101D60000001005B0001005A000100590001005809
:101D70000001005700010056000100550001005409
:101D80000001005300000053000100520001005107
:101D9000000100500001004F0001004E0000004E05
:101DA0000001004D0001004C0001004B0000004B01
:101DB0000001004A000100490001004800000048FD
:101DC00000010047000100460000004600010045F8
:101DD00000000045000100440001004300000043F2
:101DE00000010042000000420001004100000041EB
:101DF000000100400001003F0000003F0001003EE4
:101E00000000003E0001003D0000003D0001003CDC
:101E10000000003C0000003C0001003B0000003BD3
:101E20000001003A0000003A0001003900000039CA
:101E300000010038000000380000003800010037C1
:101E400000000037000100360000003600000036B8
:101E500000010035000000350000003500010034AD
:101E600000000034000000340001003300000033A3
:101E70000000003300010032000000320000003298
:101E8000000100310000003100000031000100308D
:101E900000000030000000300001002F0000002F83
:101EA0000000002F0000002F0001002E0000002E77
:101EB0000000002E0001002D0000002D0000002D6C
:101EC0000000002D0001002C0000002C0000002C60
:101ED0000000002C0001002B0000002B0000002B54
:101EE0000000002B0001002A0000002A0000002A48
:101EF0000000002A0001002900000029000000293C
:101F0000000000290000002900010028000000282E
:101F10000000002800000028000000280001002721
:101F20000000002700000027000000270000002715
:101F30000001002600000026000000260000002608
:101F400000000026000100250000002500000025FB
:101F500000000025000000250000002500010024ED
:101F600000000024000000240000002400000024E1
:101F700000010023000000230000002300000023D4
:101F800000000023000000230000002300010022C5
:101F900000000022000000220000002200000022B9
:101FA00000000022000100210000002100000021AB
:101FB000000000210000002100000021000000219D
:101FC0000001002000000020000000200000002090
:101FD0000000002000000020000000200000002081
:101FE0000001001F0000001F0000001F0000001F74
:101FF0000000001F0000001F0000001F0001001E65
:102000000000001E0000001E0000001E0000005026
:102010004944204175746F74756E652061626F72FA
:102020007465642E00504944204175746F74756E58
:10203000652066696E697368656421205075742037
:10204000746865204B702C204B6920616E64204BB6
:102050006420636F6E7374616E747320696E746F45
:1020600020436F6E66696775726174696F6E2E6862
:1020700000504944204175746F74756E6520666127
:10208000696C6564212074696D656F75740020400A
:102090003A006F6B20543A006F6B20423A0050496F
:1020A00044204175746F74756E65206661696C6556
:1020B00064212054656D7065726174757265207459
:1020C0006F6F206869676800204B643A2000204BDE
:1020D000693A2000204B703A200020436C617373F2
:1020E00069632050494420002054753A2000204B59
:1020F000753A2000206D61783A2000206D696E3AB3
:10210000200020643A200020626961733A20005068
:102110004944204175746F74756E652073746172E3
:102120007400504944204175746F74756E65206663
:1021300061696C65642E20426164206578747275F3
:10214000646572206E756D6265722E0050726568EE
:10215000656174001F002F001F002F004D41544582
:102160005249414C004D41494E54454E414E434524
:10217000005052494E54004348414E4745004D4F90
:1021800056450053455454494E4753004144564127
:102190004E434544005052494E5400505245484524
:1021A0004154004D4154455249414C005354415211
:1021B000540052455455524E00414456414E4345F9
:1021C00044004255494C442D7C504C4154450045F7
:1021D00078706572742066756E6374696F6E7300D3
:1021E00041646A757374206275696C64706C6174A3
:1021F00065005365742066616E20737065656400C8
:102200004D6F7665206D6174657269616C00496E11
:1022100073657274206D6174657269616C005261DE
:10222000697365206275696C64706C617465004CDB
:102230006F776572206275696C64706C617465009B
:10224000486F6D65206865616400486561747570EC
:10225000206275696C64706C6174650048656174B6
:102260007570206E6F7A7A6C65004475616C2045DC
:102270007874727573696F6E005072656665726509
:102280006E6365730025004300432F004300432F16
:1022900000432000432F00466163746F72792072FF
:1022A000657365740052756E74696D652073746131
:1022B00074730056657273696F6E00506F77657244
:1022C00020627564676574005072696E7420617273
:1022D0006561004D6F74696F6E2073657474696E0B
:1022E00067730052657472616374696F6E20736501
:1022F0007474696E67730054656D7065726174758E
:10230000726520636F6E74726F6C004865617465EE
:10231000722074696D656F75740053637265656EC4
:1023200020636F6E747261737400536C6565702006
:1023300074696D6572005363726F6C6C2066696CB2
:10234000656E616D657300436C69636B20736F75B7
:102350006E64004C45442073657474696E67730045
:102360005573657220696E746572666163650054A9
:10237000696E6B65725F4458555F31372E3130009E
:102380006F66660073006F6666202F20006D696EB1
:10239000202F2000250044697361626C656400454C
:1023A0006E61626C6564005374616E646172640096
:1023B00053686F7274207469636B004F6666002502
:1023C000005374616E64617264204D6F64650047F0
:1023D00065656B204D6F646500250046616E207356
:1023E00070656564004731205A34300041445641DD
:1023F0004E434544004300432F00436C69636B2008
:10240000746F2072657475726E004E6F7A7A6C65A7
:102410002074656D70657261747572653A00430071
:10242000432F00436C69636B20746F207265747571
:10243000726E00526F7461746520746F20657874D9
:1024400072756465004E6F7A7A6C652074656D7084
:10245000657261747572653A004300432F00436CE6
:1024600069636B20746F2072657475726E004275BB
:10247000696C64706C6174652074656D702E3A00CF
:1024800054696E6B65725F4458555F31372E313039
:102490000053657020313720323031382031333AE3
:1024A00031313A33330052657475726E006D00201D
:1024B0004D61743A003A005072696E74696E673A01
:1024C000003A004D616368696E65206F6E20666F2B
:1024D000723A0052657475726E005072696E74655E
:1024E000722068616C7465642E206B696C6C28299D
:1024F0002063616C6C656421005072696E74657252
:102500002073746F707065642064756520746F202B
:102510006572726F72732E20466978207468652028
:102520006572726F7220616E6420757365204D391B
:10253000393920746F20726573746172742E20288B
:1025400054656D706572617475726520697320726F
:10255000657365742E2053657420697420616674F8
:1025600065722072657374617274696E67290049BF
:102570006E76616C6964206578747275646572004A
:102580004D004163746976652045787472756465A1
:10259000723A2000416374697665204578747275DB
:1025A0006465723A2000456E6473746F70207374B2
:1025B000696C6C2070726573736564206166746504
:1025C00072206261636B696E67206F66662E2045BC
:1025D0006E6473746F7020737475636B3F000000DA
:1025E000E0400000E0400000E040456E6473746F1E
:1025F00070206E6F742070726573736564206166FD
:1026000074657220686F6D696E6720646F776E2ED7
:1026100020456E6473746F702062726F6B656E3FDD
:1026200000456E6473746F70206E6F7420707265F5
:102630007373656420616674657220686F6D696E7E
:102640006720646F776E2E20456E6473746F702000
:1026500062726F6B656E3F004572726F723A00FF77
:10266000010143616E6E6F7420656E746572207334
:1026700075626469723A2000534420434152440019
:102680003B464C41564F523A556C746947436F6410
:1026900065003B464C41564F523A556C746947436E
:1026A0006F6465004E6F2066696C657320666F7598
:1026B0006E6421004F4B004F4B0052656164696EA0
:1026C0006720636172642E2E2E00506C6561736505
:1026D00020696E736572742063617264004E6F20AE
:1026E00053442D4341524421005072657061726918
:1026F0006E6720746F207072696E743A004865616D
:1027000074696E672075702E2E2E0041424F525410
:102710000054554E45002073656300206D696E00BE
:1027200020686F75720020686F7572730054696D50
:1027300065206C6566740054696D65206C6566740F
:1027400020756E6B6E6F776E004300432F004865F7
:102750006174696E67206275696C64706C61746520
:10276000004300432F00432000432F00486561745D
:10277000696E67005072696E74696E673A00504105
:102780005553450054554E4500756C74696D616B29
:1027900065722E636F6D2F4552303800476F20747D
:1027A0006F3A0072656164696E672053442D6361FE
:1027B000726421004572726F72207768696C6500DF
:1027C00052455455524E20544F204D41494E006FB2
:1027D00066207072696E74696E672061726561004F
:1027E0005472696564207072696E74696E67206FD7
:1027F0007574004552524F523A0052455455524E4C
:1028000020544F204D41494E0066726F6D20746810
:102810006520736C696365722E0073657474696EEC
:102820006720776974682073657474696E67006FD8
:1028300076657272696465206D616368696E6500B2
:10284000546869732066696C652077696C6C004315
:10285000414E43454C00434F4E54494E554500258B
:1028600073207673202573006D6174657269616CE5
:102870002E00666F72206120646966666572656EFF
:102880007400546869732066696C652069732063FD
:102890007265617465640043414E43454C00434F8B
:1028A0004E54494E55450041626F7274696E672EF1
:1028B0002E2E0041626F72742074686520707269F8
:1028C0006E743F004E4F00594553005072696E744C
:1028D0002066696E6973686564005072696E74651C
:1028E0007220636F6F6C696E6720646F776E004350
:1028F0000043200068006D696E0054696D6520001A
:102900004241434B20544F204D454E5500536C657A
:1029100065702074696D6572004D6F7665206D611C
:1029200074657269616C004C454420427269676845
:10293000746E657373004578747275646572206F88
:10294000666673657400546F6F6C6368616E67656B
:102950002072657472616374203200546F6F6C630F
:1029600068616E67652072657472616374203100FE
:1029700052657472616374696F6E004D6174657243
:1029800069616C20666C6F772032004D61746572EE
:1029900069616C20666C6F7720310046616E207330
:1029A00070656564004275696C64706C6174652063
:1029B00054656D702E005072696E742054656D7090
:1029C000657261747572652032005072696E742090
:1029D00054656D7065726174757265203100537055
:1029E0006565640025002500250025004300432F70
:1029F000004300432F004300432F002500453200D1
:102A000045787472756465722032207374657073D2
:102A10002F6D6D00453100457874727564657220C4
:102A2000312073746570732F6D6D005A005A2073D6
:102A3000746570732F6D6D00590059207374657043
:102A4000732F6D6D005800582073746570732F6D6F
:102A50006D004241434B004241434B00436C69636C
:102A60006B20746F2072657475726E0053544F52F0
:102A7000450053746F72652073746570732F6D6DAC
:102A800000417869732073746570732F6D6D006EEB
:102A90006F00796573003A00496E7665727400457F
:102AA0003200457874722E320045310045787472D8
:102AB0002E31005A005A005900590007081C2241C3
:102AC0004141221C07081C3E7F7F7F3E1C58005856
:102AD000004241434B004241434B00436C69636BEE
:102AE00020746F2072657475726E0053544F524596
:102AF0000053746F726520696E7665727420666C1F
:102B000061677300496E766572742061786973003D
:102B10006D6D00456E64206C656E67746800456E6F
:102B200064206F66207072696E74206C656E6774C5
:102B300068006D6D2F730052657472616374207349
:102B400070656564006D6D00526574726163740038
:102B500052657472616374206C656E6774680042BC
:102B600041434B004241434B00436C69636B20740B
:102B70006F2072657475726E0053544F5245005346
:102B8000746F72652073657474696E677300526543
:102B90007472616374696F6E2073657474696E67B3
:102BA0007300453200457874727564657220322076
:102BB000286D41290045310045787472756465724D
:102BC000203120286D4129005A005A20617869730C
:102BD00020286D412900582F5900582F592061781D
:102BE000697320286D4129004241434B0042414313
:102BF0004B00436C69636B20746F2072657475724F
:102C00006E0053544F52450053746F7265207365C4
:102C10007474696E6773004D6F746F7220437572C0
:102C200072656E74004578747275646572206F66A3
:102C300066736574004D383420582059006D6D005E
:102C40005900646F636B20706F736974696F6E20D5
:102C500079005800646F636B20706F736974696FDB
:102C60006E20780043414E43454C0041626F7274C0
:102C70002066756E6374696F6E0053544F52450041
:102C800053746F726520646F636B20706F73697427
:102C9000696F6E00446F636B696E6720706F736954
:102CA00074696F6E00507265706172696E672E2E66
:102CB0002E006D6D005900646F636B20706F736937
:102CC00074696F6E2079006D6D005800646F636BDE
:102CD00020706F736974696F6E2078005245545587
:102CE000524E00436C69636B20746F20726574757B
:102CF000726E004D4F5645004D6F766520686561D8
:102D0000640053544F52450053746F726520646FD2
:102D1000636B20706F736974696F6E00446F636BCF
:102D2000696E6720706F736974696F6E006D6D00F6
:102D300059007769706520706F736974696F6E20D0
:102D400079006D6D0058007769706520706F736948
:102D500074696F6E20780052455455524E00436C92
:102D600069636B20746F2072657475726E005354C2
:102D70004F52450053746F726520776970652070FB
:102D80006F736974696F6E005072696D652F576952
:102D9000706520706F736974696F6E005072696D31
:102DA00065004578747261207072696D696E672084
:102DB000286D6D29005370656564005265747261F9
:102DC000637420737065656420286D6D2F7329000E
:102DD0004C656E0052657472616374206C656E2080
:102DE000286D6D290052455455524E00436C69635D
:102DF0006B20746F2072657475726E0053544F525D
:102E0000450053746F72652072657472616374203B
:102E100076616C75657300546F6F6C6368616E6783
:102E200065207265747261637400290028006F6602
:102E30006600656E61626C65640057697065206448
:102E400065766963653A00576970652064657669DF
:102E50006365006F666600656E61626C6564005450
:102E60006F6F6C6368616E67653A00546F6F6C6377
:102E700068616E676520736372697074006F66665F
:102E800000656E61626C6564004475616C206D6FF5
:102E900064653A004475616C206D6F64650052454D
:102EA0005455524E00436C69636B20746F207265F9
:102EB0007475726E0053544F52450053746F7265AF
:102EC000206475616C206D6F6465004475616C20D1
:102ED000737461746500290041646A757374205AC3
:102EE00020286E6F7A7A6C6520005072696D652FAC
:102EF0005769706520706F736974696F6E00446FF5
:102F0000636B696E6720706F736974696F6E0045DB
:102F100078747275646572206F66667365740054A8
:102F20006F6F6C6368616E67652072657472616350
:102F300074004368616E67652065787472756465B6
:102F400072004475616C206D6F6465006F66660089
:102F5000656E61626C656400534420636172642035
:102F60006F6B006F70656E526F6F74206661696C75
:102F7000656400766F6C756D652E696E6974206688
:102F800061696C6564004572726F723A0053442047
:102F9000696E6974206661696C006563686F3A00E8
:102FA00057726974696E6720746F2066696C653A40
:102FB00020002E006F70656E206661696C65642C60
:102FC0002046696C653A20002E006F70656E2066A1
:102FD00061696C65642C2046696C653A200046691D
:102FE0006C652073656C6563746564002053697A51
:102FF000653A200046696C65206F70656E65643ABD
:1030000020002E006F70656E206661696C65642C0F
:103010002046696C653A200054696E6B65725F44A6
:1030200058555F31372E313000801506060606FEF2
:10303000FEFEFEFC00000000000000FCFEFEFEFCA8
:103040000000000EFEFEFEFE0000E0FCFEFEFCE0C6
:10305000E0000000CECECE000000C0C0C0C0C0C0A6
:103060008000000000000080C0C080000000000060
:10307000008080C0C0C0C0C0C0C080800000000010
:1030800006FEFEFEFE0000000080C0C0C000000082
:103090000000008080C0C0C080808000000000C0B0
:1030A000C0C0C00080C0C0C0C08000000000007F61
:1030B000FFFFFFFF80000000000080FFFFFFFFFF19
:1030C00000000000FFFFFFFF000000FFFFFFFF0008
:1030D00000000000FFFFFF00000081F1FFFF3F0F35
:1030E0003FFFFCF0F0FCFF3F0F3FFFFEF8800000C9
:1030F00000C1E1F1F17131010183FFFFFFFC00002C
:1031000000FFFFFFFF000C3EFFFFF7C301000000C0
:10311000FCFEFF8703113131333F3F3F1E000001AA
:10312000FFFFFFFF07030101010100000000000095
:10313000010307070F0F0F0F0F0F0F0707070F0FE1
:1031400006000000070F0F07000000070F0F070021
:10315000000000000F0F0F0000060F0F0701000016
:103160000001070F0F070100000001070F0F060005
:103170000003070F0F0E0E060703070F0F070000CF
:1031800000070F0F0700000000030F0F0F060000DD
:10319000000307070F0E0E0E0E0E0E0600000000B5
:1031A0000F0F0F0F0000000000000043414E434589
:1031B0004C003C2052455455524E00507265763AB0
:1031C0002000432000432F0048656174696E67202A
:1031D0007072696E74686561640011150A000019E7
:1031E000151200000609090600000000000000009A
:1031F0005F00000007000700147F147F14242A7F5B
:103200002A12231308646236495522500005030030
:1032100000001C2241000041221C00082A1C2A0830
:1032200008083E0808005030000008080808080098
:103230006060000020100804023E5149453E0042F3
:103240007F400042615149462141454B31181412DB
:103250007F1027454545393C4A49493001710905E8
:10326000033649494936064949291E0036360000C9
:10327000005636000000081422411414141414419E
:10328000221408000201510906324979413E7E119B
:1032900011117E7F494949363E414141227F4141DA
:1032A000221C7F494949417F090901013E414151A1
:1032B000327F0808087F00417F41002040413F01E4
:1032C0007F081422417F404040407F0204027F7FFC
:1032D0000408107F3E4141413E7F090909063E41F5
:1032E00051215E7F09192946464949493101017F2B
:1032F00001013F4040403F1F2040201F7F201820F9
:103300007F6314081463030478040361514945433F
:1033100000007F4141020408102041417F00000469
:1033200002010204404040404000010204002054D9
:103330005454787F48444438384444442038444402
:10334000487F3854545418087E0901020814545414
:103350003C7F0804047800447D40002040443D0048
:10336000007F10284400417F40007C041804787CD2
:103370000804047838444444387C141414080814AD
:1033800014187C7C080404084854545420043F4416
:1033900040203C4040207C1C2040201C3C403040D1
:1033A0003C44281028440C5050503C4464544C4435
:1033B000000836410000007F000000413608000888
:1033C000082A1C08081C2A08086D6D005A0052655E
:1033D000636F766572207072696E742066726F6DAD
:1033E000005265636F76657220686569676874006E
:1033F00043414E43454C00436C69636B20746F201E
:1034000072657475726E005052494E540053746167
:103410007274207072696E74005265636F766572A3
:10342000207072696E74004D383400457870657292
:10343000742066756E6374696F6E7300473238204E
:10344000583000473238205930000608221408222C
:1034500014086D6D2F73006D6D00486F6D65205AF7
:103460002061786973005A206178697320706F73E6
:103470006974696F6E005A004D6F7665205A20613D
:1034800078697300486F6D65205920617869730011
:1034900059206178697320706F736974696F6E0069
:1034A00059004D6F76652059206178697300486F27
:1034B0006D652058206178697300582061786973C0
:1034C00020706F736974696F6E0058004D6F766578
:1034D00020582061786973004241434B00424143C8
:1034E0004B00436C69636B20746F20726574757256
:1034F0006E0020414C4C00486F6D6520616C6C2063
:1035000061786573004D6F76652061786973004D51
:103510003834205830205930004D3834205830206D
:103520005930004D383420583020593000446973E8
:1035300061626C652058592D737465707065727383
:103540000044697361626C652058592D737465700D
:1035500070657273004D6F766520686561642074D4
:103560006F2066726F6E74004D6F766520686561BE
:103570006420746F2066726F6E7400486F6D6520F2
:1035800068656164000708087C466F467C08486FE0
:103590006D652068656164004241434B00424143D0
:1035A0004B00436C69636B20746F20726574757295
:1035B0006E0053656C656374206F7074696F6E0084
:1035C0001F001F2F001F00280029004E6F7A7A6C01
:1035D0006528002920001F001F001F0041424F5294
:1035E000540041424F52540041626F727420707215
:1035F000696E740054554E450054554E450054753F
:103600006E65206D656E75001F000508263408166E
:1036100032250046616E001F001F000508609E8174
:103620009E6025006D6D2F730053706565642000EA
:1036300025006D6D1D2F7300466C6F772832292091
:103640000025006D6D1D2F7300466C6F77283129A2
:1036500020000B0808080808080808083E1C08474E
:103660006F746F2070616765203200436F6E7472F3
:103670006F6C206F7074696F6E7300546F67676C46
:1036800065204C4544006D6D2F7300582F59204A1A
:1036900065726B004D61782E20582F59204A657253
:1036A0006B006D6D2F731E00416363656C00416399
:1036B00063656C65726174696F6E006D6D2F730068
:1036C00007087F7F5155457F7F526574726163742F
:1036D000207370656564006D6D0007087F7F415F32
:1036E0005F7F7F52657472616374005265747261AA
:1036F0006374206C656E6774680008080982F8843A
:1037000084F88209546F67676C65204C4544004318
:103710006F6E74726F6C206F7074696F6E730007D8
:10372000086070381E0908040B08081C3E080808C9
:103730000808080808476F746F20706167652031BA
:10374000004B640044657269766174697665206334
:103750006F6566662E004B6900496E74656772611D
:103760006C20636F656666696369656E74004B7093
:103770000050726F706F7274696F6E616C20636F4E
:103780006566662E004241434B004241434B004375
:103790006C69636B20746F2072657475726E004182
:1037A00055544F0053746172742050494420617520
:1037B000746F74756E650053544F52450053746FA7
:1037C0007265205049442073657474696E67730094
:1037D0005049442073657474696E677300283129F9
:1037E000004578747275646572004B6400446572BC
:1037F0006976617469766520636F6566662E004B35
:103800006900496E74656772616C20636F656666F6
:10381000696369656E74004B700050726F706F72EF
:1038200074696F6E616C20636F6566662E0042413D
:10383000434B004241434B00436C69636B20746F00
:103840002072657475726E004155544F0053746157
:10385000727420504944206175746F74756E6500F0
:1038600053544F52450053746F72652050494420A1
:1038700073657474696E677300504944207365748E
:1038800074696E6773002832290045787472756414
:103890006572004B6400446572697661746976658F
:1038A00020636F6566662E004B6900496E7465671C
:1038B00072616C20636F656666696369656E74002A
:1038C0004B700050726F706F7274696F6E616C2014
:1038D000636F6566662E004275696C642D7C706C42
:1038E00061746500504944206D6F64650042414336
:1038F0004B004241434B00436C69636B20746F2063
:1039000072657475726E004155544F005374617244
:103910007420504944206175746F74756E6500534E
:10392000544F52450053746F7265205049442073C0
:10393000657474696E6773005049442073657474CC
:10394000696E677300504944206F6666004D3834D5
:1039500020583020593000473120462569205A250B
:1039600069205825692059256900205A30002059BE
:10397000300020583000473238004475616C2065B3
:103980007874727573696F6E00627574746F6E20EF
:10399000746F20636F6E74696E756500556C746921
:1039A0006D616B6572212050726573732074686558
:1039B0000073746172747570206F6620796F757210
:1039C0000057656C636F6D6520746F2074686520A7
:1039D000666972737400312F323100434F4E54497F
:1039E0004E554500473120462569205A2569205803
:1039F00025692059256900473238205A302058302F
:103A0000205930006275696C64706C6174652E00B9
:103A10006F662061646A757374696E6720796F756B
:103A200072007468726F75676820746865207072C0
:103A30006F6365737300492077696C6C20677569E3
:103A4000646520796F750043414E43454C00434FF8
:103A50004E54494E554500473120462569205A2588
:103A60006900612066697273742072756E207769CF
:103A70007A6172642E0077616C6B20796F752074A7
:103A800068726F7567680066697273742073746119
:103A90007274757020492077696C6C0042656361AF
:103AA0007573652074686973206973207468650094
:103AB000322F323100434F4E54494E554500473165
:103AC00020462569205A25692058256920592569ED
:103AD00000676F696E6720746F20646F207468617F
:103AE00074206E6F772E0061646A7573746D656EF5
:103AF00074732C20776520617265007765206E6590
:103B0000656420746F20646F20736F6D650041667B
:103B1000746572207472616E73706F72746174690F
:103B20006F6E00332F323100434F4E54494E55458E
:103B300000473120462569205A300047312046256C
:103B40006920582569205925690047312046256993
:103B500020582569205925690047312046256920CC
:103B60005A350066726F6D20746865206275696CE5
:103B700064706C6174652E0061206D696C6C696D98
:103B800065746572206177617900756E74696C2067
:103B9000746865206E6F7A7A6C6520697300526F65
:103BA000746174652074686520627574746F6E004A
:103BB000342F323100434F4E54494E554500434F48
:103BC0004E54494E554500473120462569205A300C
:103BD000004731204625692058256920592569006C
:103BE0004731204625692058256920592569004715
:103BF0003120462569205A350066726F6D20746841
:103C000065206275696C64706C6174652E006973FF
:103C10002061206D696C6C696D65746572206177D7
:103C200061790073637265772074696C6C207468C5
:103C300065206E6F7A7A6C65005475726E206C65C3
:103C40006674206275696C64706C61746500352FF0
:103C5000323100434F4E54494E55450066726F6DE8
:103C600020746865206275696C64706C6174652E7F
:103C70000069732061206D696C6C696D6574657293
:103C800020617761790073637265772074696C6C69
:103C900020746865206E6F7A7A6C65005475726E58
:103CA000207269676874206275696C64706C6174F5
:103CB0006500362F323100434F4E54494E55450072
:103CC000473120462569205A300047312046256972
:103CD000205825692059256900473120462569204B
:103CE0005A3500746865206275696C64706C617423
:103CF00065206C6576656C2E00706170657220744D
:103D00006F2066696E652D74756E65006E6F772025
:103D10007573652061207368656574206F66005255
:103D20006570656174207468697320737465702CA4
:103D30002062757400372F323100434F4E54494E84
:103D400055450062697420726573697374616E63AE
:103D5000652E00756E74696C20796F7520666565D7
:103D60006C2061006275696C64706C6174652061BF
:103D70006E64206E6F7A7A6C6500536C696465209E
:103D800061207061706572206265747765656E0090
:103D9000382F323100434F4E54494E554500434F62
:103DA0004E54494E554500746865206C6566742014
:103DB000636F726E65722E2E2E005265706561748F
:103DC000207468697320666F7200392F32310043A6
:103DD0004F4E54494E5545007468652072696768B6
:103DE0007420636F726E65722E2E2E0052657065A0
:103DF0006174207468697320666F720031302F32ED
:103E00003100434F4E54494E554500444F4E4500F6
:103E1000746F20696E73657274206D617465726968
:103E2000616C2E00746865206E657874207374650B
:103E30007020697300746865206275696C64706CC9
:103E4000617465004E6F7720746861742077652017
:103E50006C6576656C65640031312F323100434FFB
:103E60004E54494E554500556C74696D616B6572D1
:103E7000322E00696E7365727420696E20746869F1
:103E800073006D6174657269616C20796F7520775C
:103E9000696C6C004E6578742C2073656C65637476
:103EA000207468650031322F323100524541445947
:103EB0000053656C65637420746865206D6174657A
:103EC0007269616C00206173206D61746572696153
:103ED0006C2C0031332F3231004D41544552494151
:103EE0004C00697320746869732072696768743F55
:103EF00000596F7520686176652063686F73656E21
:103F00000031342F3231004E4F005945530069744F
:103F1000206973207573696E672E006F66206D616E
:103F200074657269616C006B6E6F7773207768617E
:103F300074206B696E64004E6F7720796F75722004
:103F4000556C74696D616B6572320031352F323199
:103F500000434F4E54494E5545006D61746572697A
:103F6000616C206C6F6164696E67007072696E7459
:103F7000686561642068656174696E6720666F7248
:103F800000506C6561736520776169742C0031366F
:103F90002F3231006D6D005A005A206F66667365CE
:103FA00074002800290059206F6666736574206CC0
:103FB000696E65206E6F2E006D6D00590059206F7F
:103FC0006666736574002800290058206F66667362
:103FD0006574206C696E65206E6F2E006D6D0058E3
:103FE0000058206F66667365740052455455524EF2
:103FF00000436C69636B20746F2072657475726E18
:104000000053544F52450053746F7265206F6666BB
:1040100073657473006D6D2F730045004D61782ECC
:104020002073706565642045006D6D2F73005A0024
:104030004D61782E207370656564205A006D6D2F78
:10404000730059004D61782E2073706565642059A6
:10405000006D6D2F730058004D61782E20737065D0
:1040600065642058004241434B004241434B0043AA
:104070006C69636B20746F2072657475726E005387
:10408000544F52450053746F7265207365747469A0
:104090006E6773004D61782E205370656564006D06
:1040A0006D2F7300582F59204A65726B004D61784F
:1040B0002E20582F59204A65726B006D6D2F731E8C
:1040C00000416363656C00416363656C6572617494
:1040D000696F6E004241434B004241434B00436CC9
:1040E00069636B20746F2072657475726E0053542F
:1040F0004F52450053746F72652073657474696E16
:10410000677300416363656C65726174696F6E000B
:104110006F66660020736563004D61782E20706FB6
:1041200077657200506572696F64206F66206D61FB
:10413000782E20706F776572006F666600206D695B
:104140006E0054696D656F75740049646C65207408
:10415000696D656F7574004241434B004241434BAA
:1041600000436C69636B20746F2072657475726EA6
:104170000053544F52450053746F7265206F707432
:10418000696F6E730048656174657220636865636A
:104190006B0043414E43454C0054696D656F757427
:1041A000006661696C656421005049442041757462
:1041B0006F74756E650054656D70657261747572AB
:1041C0006520746F6F2068696768006661696C6557
:1041D000642100504944204175746F74756E650008
:1041E0007468652073657474696E67732E00596F07
:1041F000752063616E2073746F72650066696E6905
:10420000736865642100504944204175746F74756A
:104210006E6500434F4E54494E5545001F001F2FF9
:10422000004275696C64706C6174650045787472E5
:1042300075646572001F001F2F002F002E0050496B
:10424000442074756E696E67004379636C65730012
:1042500074756E696E67206379636C6573001F0007
:1042600054656D70657261747572650074756E6900
:104270006E672074656D7065726174757265004259
:1042800041434B004241434B00436C69636B2074D4
:104290006F2072657475726E00535441525400530E
:1042A0007461727420504944206175746F74756E26
:1042B00065005049442074756E65206F7074696F95
:1042C0006E73004578747275646572004275696C2E
:1042D00064706C6174650061626F766520746865F6
:1042E000206172726F772E00796F757220556C7431
:1042F000696D616B6572322C0066726F6D20746837
:10430000652072656172206F6600496E7365727414
:10431000206E6577206D6174657269616C0031375C
:104320002F323100434F4E54494E5545004C6F617A
:1043300064696E67206D6174657269616C2E2E2EE2
:104340000031382F32310066726F6D206E6F7A7ACD
:104350006C652E2E2E006D6174657269616C20652E
:1043600078697473005075736820627574746F6E29
:10437000207768656E0031392F323100434F4E543B
:10438000494E5545006D616B6520612033442050D6
:1043900072696E74210049276D207265616479200D
:1043A0006C657427730032302F3231004152452042
:1043B000594F552052454144593F00746F20707247
:1043C000696E742069742100616E64207072657377
:1043D000732074686520627574746F6E006F6E2050
:1043E0007468652053442D636172640053656C6585
:1043F00063742061207072696E742066696C650058
:1044000032312F3231004C45542753205052494EFF
:10441000540052656164696E6720636172642E2E78
:104420002E0032312F323100796F757220556C7445
:10443000696D616B6572322E2E2E00746861742076
:1044400063616D65207769746800506C65617365A0
:1044500020696E736572742053442D636172640029
:1044600032312F3231001F001F001F2F00427569AB
:104470006C64706C61746520001F001F001F2F00AA
:104480004E6F7A7A6C6528322920001F001F001FAA
:104490002F004E6F7A7A6C6528312920006F66668E
:1044A000006F6E004275696C64706C6174653A20CF
:1044B000006F6666006F6E004E6F7A7A6C65283208
:1044C000293A20006F6666006F6E004E6F7A7A6C34
:1044D000652831293A20004241434B004241434B79
:1044E0000052657475726E20746F206D61696E2064
:1044F0006D656E7500434F4F4C00434F4F4C00436A
:104500006F6F6C20646F776E20616C6C0050524945
:104510004E54005052494E540053746172742070CE
:1045200072696E74001F002F001F002F00070840E3
:104530004A55404A55401F002F00250048656174C8
:10454000696E672075702E2E2E2000555342206311
:104550006F6D6D756E69636174696F6E2E2E2E00BE
:1045600048656174696E67206275696C64706C611E
:1045700074650048656174696E67206E6F7A7A6C45
:1045800065005A0050617573696E672E2E2E0043C8
:104590006C69636B20746F20636F6E74696E7565F0
:1045A0002E2E2E005061757365642E2E2E00250070
:1045B00007081C3E7F71773E1C50617573696E67FA
:1045C0002E2E2E005061757365642E2E2E00070866
:1045D0007F5D4941495D7F44697361626C65207309
:1045E00074657070657273005265636F76657220D2
:1045F0007072696E74004D6F766520617869730022
:104600004D3834205830205930006D6D005A004329
:10461000414E43454C0053544F5245007468652049
:104620006275696C64706C617465006E6F7A7A6C27
:104630006520746F7563686573004D6F7665205AE9
:1046400020756E74696C20746865006D6D005A0089
:10465000746865206275696C64706C617465006E65
:104660006F7A7A6C6520746F7563686573004D6F3F
:104670007665205A20756E74696C207468650041F7
:10468000424F52540041424F52540041626F727483
:10469000207072696E740007081C22404F40221C73
:1046A00054554E450054554E450054756E65206D69
:1046B000656E7500202F20005A0052656164696E96
:1046C000672066696C652E2E2E0020280029004385
:1046D00000432F00436C69636B20746F2072657414
:1046E00075726E004E6F7A7A6C65200054656D703D
:1046F000657261747572650052455455524E00459D
:10470000585452554445527C3200455854525544F1
:1047100045527C31004D3234004D32332025730038
:104720006175746F25692E67002F002F0043616E3D
:104730006E6F74206F70656E2073756264697200AD
:1047400048617264636F6465642044656661756C7A
:10475000742053657474696E6773204C6F6164656F
:1047600064006563686F3A002F2F616374696F6E30
:104770003A006572726F722077726974696E672091
:10478000746F2066696C6500446F6E652073617696
:10479000696E672066696C652E006F6B004D32395B
:1047A000002200656E717565696E672022002040E9
:1047B0000020403A002042403A00202F00205400C0
:1047C000202F0020423A00202F0020543A00205988
:1047D000002058005769706520706F736974696FA5
:1047E0006E3A0064697361626C656400656E616253
:1047F0006C6564004669726D7761726520776970D7
:10480000653A2000205900205800446F636B2070E7
:104810006F736974696F6E3A00486F6D65206F66DB
:1048200066736574207A3220286D6D293A20006401
:10483000697361626C656400656E61626C656400D9
:104840004475616C2073657475703A200065636807
:104850006F3A0053657474696E67732053746F7296
:104860006564002044002049002020204D33303171
:104870002050005049442073657474696E67733A20
:1048800000205A0020590020204D32303620580098
:10489000486F6D65206F666673657420286D6D299D
:1048A0003A00204500205A002058002042002054A1
:1048B0000020204D323035205300416476616E6314
:1048C0006564207661726961626C65733A20533D5C
:1048D0004D696E20666565647261746520286D6D32
:1048E0002F73292C20543D4D696E207472617665BA
:1048F0006C20666565647261746520286D6D2F7328
:10490000292C20423D6D696E696D756D2073656758
:104910006D656E742074696D6520286D73292C2077
:10492000583D6D6178696D756D205859206A6572C2
:104930006B20286D6D2F73292C20205A3D6D6178D6
:10494000696D756D205A206A65726B20286D6D2F18
:1049500073292C2020453D6D6178696D756D20456A
:10496000206A65726B20286D6D2F7329002054001A
:1049700020204D323034205300416363656C6572F2
:104980006174696F6E3A20533D616363656C657253
:104990006174696F6E2C20543D726574726163742A
:1049A00020616363656C65726174696F6E00204598
:1049B00000205A0020590020204D3230312058006C
:1049C0004D6178696D756D20416363656C657261D9
:1049D00074696F6E20286D6D2F7332293A0020455F
:1049E00000205A0020590020204D3230332058003A
:1049F0004D6178696D756D20666565647261746579
:104A00007320286D6D2F73293A00204500205A002D
:104A100020590020204D393220580053746570739E
:104A20002070657220756E69743A0056303130001E
:104A300053746F7265642073657474696E67732054
:104A4000726574726965766564004D38342045304E
:104A5000006D6D00526F7461746520746F2065780D
:104A600074727564650007080708137F13080752FE
:104A70006573657420706F736974696F6E000608E2
:104A8000081422081422436C69636B202620686F87
:104A90006C6420746F2070756C6C001F001F2F00F9
:104AA0001F001F2F0029200028004E6F7A7A6C65A6
:104AB00020004241434B00070810387C1010101EA4
:104AC0004241434B00436C69636B20746F207265F5
:104AD0007475726E0054554E450005082A2A2A2A1C
:104AE0002A54554E45004D6F7265206F7074696F82
:104AF0006E7300290028004D6F7665206D61746526
:104B00007269616C001F001F2F001F002800290020
:104B10004275696C64706C6174652000000021004E
:104B2000240027002A002D0030003300010100007E
:104B3000040107010A0100002200250028002B00C3
:104B40002E003100340002010000050108010B01B4
:104B500005050505070508080808020202020A0AF9
:104B60000808040404040101010101010101030317
:104B7000030303030303040707070C0C0C0C0C0CC2
:104B80000C0C0202020206060606060606060B0BBF
:104B90000B0B0B0B0B0B0102102020080810204000
:104BA00010204080020102010804020101020408F1
:104BB000102040808040201008040201800402017F
:104BC00080402010080402010804020101020408C8
:104BD00010204080010204081020408000000A0BD1
:104BE00002090C0D0E08070304010000000000007C
:104BF00000000000000000000000000000000000B5
:104C00000000000000000000121110000000000071
:104C10000000000000000000000000000000000094
:104C200000004275696C64706C617465004578744D
:104C300072756465722032004578747275646572AD
:104C400020310054656D7065726174757265206302
:104C50006F6E74726F6C00473130004731205A25F7
:104C60006420462564003C204241434B004E6F20A7
:104C7000696E666F20617661696C61626C65002F98
:104C8000004E6F7A7A6C6520006D006D006D006DCE
:104C9000004D61742E200068006D696E0054696DCE
:104CA0006520003B4D54595045323A003B4E4F5A17
:104CB0005A4C455F4449414D45544552323A003BB8
:104CC0004D4154455249414C323A003B4D545950A4
:104CD000453A003B4E4F5A5A4C455F4449414D4579
:104CE0005445523A003B4D4154455249414C3A00DB
:104CF0003B54494D453A00466F6C64657200746FD1
:104D00002064656661756C743F005265736574203C
:104D100065766572797468696E67004E4F00594513
:104D20005300496E7665727420617869730041782A
:104D300069732073746570732F6D6D004D6F746FA0
:104D4000722043757272656E74004D61782E206119
:104D500078697320737065656400416363656C6591
:104D6000726174696F6E004D4F54494F4E00204779
:104D70006C6F77207768656E20646F6E6500204FDA
:104D80006E207768696C65207072696E74696E67F1
:104D90000020416C77617973204F66660020416C7A
:104DA00077617973204F6E004272696768746E652F
:104DB000737300250025004272696768746E65731D
:104DC00073004C4544004765656B204D6F6465007A
:104DD0003E005374616E64617264204D6F646500BF
:104DE0003E00203F3F3F004F6666003E0053686F25
:104DF0007274207469636B003E005374616E646169
:104E000072642062656570003E005363726F6C6C63
:104E10002066696C656E616D6573003E004E6F20A3
:104E20007363726F6C6C696E67003E0055736572D8
:104E300020696E7465726661636500436C69636BBB
:104E400020736F756E64005363726F6C6C206669BB
:104E50006C656E616D6573002500436C69636B2042
:104E6000746F2072657475726E0053637265656E3F
:104E700020636F6E747261737400505245464552E0
:104E8000454E434553004D383420582059204500A5
:104E900052455455524E0053455454494E475300C1
:104EA0004348414E474500526573656E643A2000A1
:104EB0006F6B00202D20496E76616C6964206578E7
:104EC000747275646572206E756D62657220210062
:104ED0000000000018070100A8071400300828008F
:104EE000B8083C0038095000C0096400480A78003E
:104EF000C80A8C00480BA000C80BB400480CC800BE
:104F0000C80CDC00400DF000C00D0401380E180183
:104F1000B00E2C01280F4001A00F54011810680199
:104F200088107C01001190013013F40148155802DB
:104F30004017BC0228192003F01A8403A81CE803B8
:104F4000401E4C043A204578747275646572207373
:104F500077697463686564206F66662E204D4158DA
:104F600054454D50207472696767657265642021ED
:104F7000003A20457874727564657220737769749D
:104F800063686564206F66662E204D494E54454D1A
:104F900050207472696767657265642021005465EA
:104FA0006D706572617475726520686561746564A1
:104FB00020626564207377697463686564206F6636
:104FC000662E204D415854454D50207472696767D4
:104FD00065726564202121004572726F723A00008B
:104FE0003402E60111241FBECFEFD1E2DEBFCDBFF8
:104FF00000E00CBF13E0A0E0B2E0EEE7FAE403E06B
:105000000BBF02C007900D92AE37B107D9F728E168
:10501000AEE7B3E001C01D92AE3FB207E1F717E281
:10502000C1EFD7E200E006C021970109802FFE0101
:105030000F94A2A4C03FD10780E00807A9F70F94FE
:1050400048890D942EA50C9400002F923F924F9208
:105050005F926F927F928F929F92AF92BF92CF9208
:10506000DF92EF92FF920F931F93CF93DF93CDB711
:10507000DEB7C454D1090FB6F894DEBF0FBECDBF62
:10508000B82ED92E21966FAF2197809184149AEF74
:10509000980F923020F0803F10F41092841467E44F
:1050A0008B2D9D2D0F94F957F82E882309F4E3C416
:1050B0008091DA0A9091DB0A60E070E001960F942B
:1050C000CA990F941FA26A30710509F4C9C09CF4F3
:1050D0006230710509F449C024F477FF32C00C94A2
:1050E0004F466330710509F453C06430710509F40B
:1050F00062C00C944F466A35710509F473C464F4B8
:10510000809184146B30710509F43EC16C317105D6
:1051100009F4CEC10C944F466B35710509F469C48E
:105120006C35710511F00C944F4690E5892E93E093
:10513000992E2FE8E22E24E1F22E00E0C12C10E09F
:1051400078C480910305811110C08B2D9D2D0F9483
:1051500038808B2D9D2D0F94EE7E21964FAC21979C
:10516000442011F40C94D54BC7C6809103058111DE
:105170000FC08B2D9D2D0F94028381E00F94AC7B8B
:1051800021965FAC2197552011F40C94D54BB4C6F1
:105190008091030581110FC08B2D9D2D0F940283EB
:1051A00080E00F94AC7B21966FAC2197662011F4C0
:1051B0000C94D54BA1C680918414863011F40C94C4
:1051C0004F4685E499E00F94575960E58B2D9D2D4E
:1051D0000F94F957882371F08091DA0A9091DB0AD5
:1051E00060E070E001960F94CA990F9425A22B01FC
:1051F0003C0103C0412C512C320163E58B2D9D2DC8
:105200000F94F957882399F08091DA0A9091DB0A7C
:1052100060E070E001960F94CA9920E030E04AE720
:1052200054E40F94E9970F9425A22B013C010E94AE
:1052300064A30F944A696093D20A7093D30A80934F
:10524000D40A9093D50A81E080938414C301B201FB
:105250000E94F57D8EE399E00F9457590C944F46C8
:1052600080918414863011F40C944F4680918D14F3
:1052700090E04091AF149C01042E02C03595279513
:105280000A94E2F720FF02C00C944F4624E030E07D
:1052900002C0220F331F4A95E2F782239323892B02
:1052A00011F00C944F4640906A0250906B0260904F
:1052B0006C0270906D0280919B1490919C14A0914F
:1052C0009D14B0919E1489839A83AB83BC8380E143
:1052D000EFE8F4E1AAE5B4E001900D928A95E1F7D8
:1052E00080916F0280FF02C00C945F4663E58B2DB6
:1052F0009D2D0F94F957882311F40C945F468091EB
:10530000DA0A9091DB0A4AE050E060E070E0019632
:105310000F94309B613071058105910511F00C945B
:105320005F46E091AF1424E0E29F80011124F80170
:10533000E559FB4ED801A156BB4E2D913D914D91A3
:105340005C9160817181828193810F94AEA19B01F8
:10535000AC0160916604709167048091680490913B
:1053600069040F94BFA060936604709367048093F0
:10537000680490936904F801E95EFB4E8081918195
:10538000A281B3810C949146863011F40C944F465F
:105390008091AF1420918D1430E0082E02C0359515
:1053A00027950A94E2F720FD02C00C944F460F9413
:1053B000C34F60919B1470919C1480919D149091A7
:1053C0009E1469837A838B839C8320E1EFE8F4E168
:1053D000AAE5B4E001900D922A95E1F7C090AF14D0
:1053E000B4E0CB9E7001112487010B571B4EF801CE
:1053F00020813181428153810F94C0A06093660463
:1054000070936704809368049093690440906A02E3
:1054100050906B0260906C0270906D02F701EA5838
:10542000FB4F80819181A281B38180936A02909326
:105430006B02A0936C02B0936D0281E090E001C01A
:10544000880FCA94EAF7809590918D1489238093F0
:105450008D14D8011D921D921D921C9213978B2DB5
:105460009D2D0F94EE7E40926A0250926B026092E4
:105470006C0270926D0289819A81AB81BC818093AC
:105480009B1490939C14A0939D14B0939E148093AE
:10549000660490936704A0936804B093690440E0A5
:1054A0006091AF14CE0101960E94EF6E0C944F46AE
:1054B0009BEF980F923010F40C944F46873029F0F0
:1054C0008F3F19F085E0809384140E9464A380913B
:1054D0006A0290916B02A0916C02B0916D02809370
:1054E000800390938103A0938203B0938303809100
:1054F00075029091760290937F0380937E0384E6F9
:1055000090E090937602809375020F944A696093BD
:10551000D20A7093D30A8093D40A9093D50A11E0EB
:1055200010930F0280E1EFE8F4E1AAE5B4E0019006
:105530000D928A95E1F710926A0210926B02109216
:105540006C0210926D0268E58B2D9D2D0F94F9571A
:10555000882311F080E00DC069E58B2D9D2D0F94FF
:10556000F9578111F7CF6AE58B2D9D2D0F94F957CF
:10557000812780930002882309F439C110928F1487
:1055800010929014109291141092921410929314FD
:1055900010929414109295141092961410929714DD
:1055A000109298141092991410929A1461E08091BC
:1055B000AF140F94C54E20916A0430916B04409152
:1055C0006C0450916D0460911402709115028091E9
:1055D0001602909117020F94BFA020E030E040EC3B
:1055E0005FE30F94E997DC01CB01B05880935A0434
:1055F00090935B04A0935C04B0935D0420916E04CF
:1056000030916F04409170045091710460911802C0
:105610007091190280911A0290911B020F94BFA001
:1056200020E030E040EC5FE30F94E99760935E0484
:1056300070935F04809360049093610420917204DE
:1056400030917304409174045091750460911C0270
:1056500070911D0280911E0290911F020F94BFA0B5
:1056600020E030E040EC5FE30F94E9976093620440
:1056700070936304809364049093650480E090E8E1
:10568000ABEBB5E480936A0290936B02A0936C023B
:10569000B0936D02C090AF14E12CF12C08EC12E431
:1056A00026E634E042E654E06EE574E08AE594E0F4
:1056B0000E943D6F0E9464A30E94CCAA80E090E00B
:1056C0000F94E45681E090E00F94E45682E090E07D
:1056D0000F94E45661E08091AF140F94C54E809111
:1056E0008F1490919014A0919114B0919214809382
:1056F0005A0490935B04A0935C04B0935D04809182
:10570000931490919414A0919514B0919614809351
:105710005E0490935F04A0936004B0936104809151
:10572000971490919814A0919914B0919A14809321
:10573000620490936304A0936404B093650420E032
:1057400030E040E752E460916A0270916B02809110
:105750006C0290916D020F94AEA1C090AF147B01CA
:105760008C0126E634E042E654E06EE574E08AE51A
:1057700094E00E943D6F10926A0210926B021092A8
:105780006C0210926D020E9464A30E94CCAA8091C8
:105790005A0490915B04A0915C04B0915D048093E5
:1057A0008F1490939014A0939114B09392148091BD
:1057B0005E0490915F04A0916004B09161048093B5
:1057C000931490939414A0939514B093961480918D
:1057D000620490916304A0916404B0916504809385
:1057E000971490939814A0939914B0939A1480915D
:1057F000000281110C94FB466AE58B2D9D2D0F94C0
:10580000F95781110C94FB468091000281110C9490
:10581000014768E58B2D9D2D0F94F957882341F0A2
:1058200069E58B2D9D2D0F94F95781110C9401473B
:105830008091000281110C94FE4768E58B2D9D2D0F
:105840000F94F95781110C94FE4780910002811149
:105850000C94044869E58B2D9D2D0F94F957811107
:105860000C94044868E58B2D9D2D0F94F9578823DF
:1058700051F18091DA0A9091DB0A4AE050E060E051
:1058800070E001960F94309B672B682B692BD9F041
:105890008091DA0A9091DB0A60E070E001960F9443
:1058A000CA992091FB133091FC134091FD13509144
:1058B000FE130F94C0A060938F1470939014809384
:1058C00091149093921469E58B2D9D2D0F94F957A7
:1058D000882351F18091DA0A9091DB0A4AE050E086
:1058E00060E070E001960F94309B672B682B692B6A
:1058F000D9F08091DA0A9091DB0A60E070E00196BD
:105900000F94CA992091FF13309100144091011413
:10591000509102140F94C0A0609393147093941448
:1059200080939514909396146AE58B2D9D2D0F947A
:10593000F957882351F18091DA0A9091DB0A4AE005
:1059400050E060E070E001960F94309B672B682B6D
:10595000692BD9F08091DA0A9091DB0A60E070E05F
:1059600001960F94CA992091031430910414409128
:105970000514509106140F94C0A06093971470936F
:1059800098148093991490939A1461E08091AF14C5
:105990000F94C54E10920F02809180039091810365
:1059A000A0918203B091830380936A0290936B026B
:1059B000A0936C02B0936D0280917E0390917F035F
:1059C00090937602809375020F944A696093D20A8D
:1059D0007093D30A8093D40A9093D50A0E94CCAADC
:1059E0000C944F468091370B8F778093370B0C9434
:1059F0004F468091370B80688093370B0C944F464D
:105A00008091DA0A9091DB0A60E070E001960F94D1
:105A1000CA99D7016D937D938D939C9313971330FF
:105A200091F0CC24C3941F5FB4E0EB0EF11C143052
:105A300061F0F40161914F018B2D9D2D0F94F95769
:105A4000882389F3DDCF01E0EECFCC2039F061E08F
:105A50008091AF140F94C54E0C944F46002311F45F
:105A60000C944F4640E06091AF148BE994E10E94A2
:105A7000EF6E0C944F466DE48B2D9D2D0F94F957CE
:105A8000882311F40C94BA438091DA0A9091DB0ACE
:105A900060E070E001960F94CA990F941FA2683CD1
:105AA000710511F40C9406370CF0C3C06135710513
:105AB00009F4B7C60CF055C06831710509F438C255
:105AC00064F56231710509F4B7C6809184146331BD
:105AD000710574F477FF02C00C944F466230710573
