:100000000C9442280C9473280C9473280C94732835
:100010000C9473280C9473280C9473280C947328F4
:100020000C9473280C9473280C9473280C947328E4
:100030000C9473280C9473280C9473280C947328D4
:100040000C9473280C9473B70C9473280C94732835
:100050000C9473280C9473280D943F7F0D94136CAB
:100060000C9473280C9401EA0C9473280C94732854
:100070000C9473280C9473280C9473280C94732894
:100080000C9473280C9473280C9473280C94732884
:100090000C9473280C9473280C9473280C944EC5FC
:1000A0000C9473280C9473280C9473280C94732864
:1000B0000C9473280C9473280C9473280C94732854
:1000C0000C9473280C9473280C9473280C94732844
:1000D0000C9473280C9473280C9473280C94732834
:1000E0000C9473283A453D454145454549454D45A4
:1000F0004346514555455A4543465F456545694523
:100100006D4571457545434679457D458345434673
:1001100089459F45A145AF45B145B345B545BB456B
:10012000BD45BF45C145CB45CD45CF45D145D7455B
:10013000D9454346434643464346434643464346E2
:100140004346434643464346434643464346434667
:100150004346434643464346434643464346434657
:100160004346434643464346434643464346434647
:100170004346434643464346434643464346434637
:100180004346434643464346434643464346434627
:100190004346434643464346434643464346434617
:1001A000434643464346434643464346E3450446A7
:1001B000DC4DDC4DE44DEC4DFC4D044E0C4E144E2C
:1001C0001C4EF44D3A0364035C029401B402F60140
:1001D0001802DA02EA026003140326023E01E80173
:1001E000F6017C013203CE02540328022A02920255
:1001F0007202C6026801E4016001560298026201BF
:100200007A035A01C602040370026E03084AD73B00
:100210003BCE016E84BCBFFDC12F3D6C74319ABDD5
:1002200056833DDA3D00C77F11BED9E4BB4C3E91F9
:100230006BAAAABE000000803F05A84CCDB2D44EE8
:10024000B93836A9020C50B9918688083CA6AAAAEA
:100250002ABE000000803F000D9426180D944C0625
:100260000D9442680D9481190D94F12C0D94A154B4
:100270000D9423240D94E1050D94B51C0D94016A91
:100280000D94267A0D940E570D9482560D94957503
:100290000D9418350D94963B0D94EB0C0D946F65F1
:1002A0000D94B4700D9461280D94186D0D94987789
:1002B0000D9495370D94FE6A0D9435760D94C520F6
:1002C0000D94C76A0D94E56A0D947B220D94441930
:1002D0000D94B76A0D9400260D9458790D94D3218E
:1002E0000D945B470D944B520D9422380D9494233A
:1002F0000D9443670D947B060D940B6A0D94E948A9
:100300000D94A8340D94C90D0D94A2560D944F1759
:100310000D94546F0D94E6700D9483110D94394231
:100320000D94AA060D946E2C0D94D4690D94033788
:100330000D9426090D947A480D9487790D945227CF
:100340000D9489050D94DC1B0D94AF570D947C25FD
:100350000D940E230D94D1260D94024F0D94CC755F
:100360000D94B62E0D9414190D94DE670D9451570B
:100370000D94EB4A0D9486240D9478070D94F82182
:100380000D94EB550D94E40C0D9462560D94FD44C0
:100390000D94A23F0D94A56D0D94606B0D945D3985
:1003A0000D94FD740D94942F0D94056F0D94EE49EA
:1003B0000D94E4490D9472220D9415780D94C4594E
:1003C0000D9450340D9488590D94BF6A0D941E17E6
:1003D0000D94056A0D94631D0D9497170D94C53EF9
:1003E0000D94CF2F0D9407200D94532F0D94186A60
:1003F0000D94B2360D94F2070D94661A0D94D90639
:100400000D9442150D941A2B0D9480570D941834A9
:100410000D94D8670D9499390D94A4180D944B3907
:100420000D944D280D94FC480D94CE200D944D1044
:100430000D94E5690D9409790D948A780D94CD4752
:100440000D9461370D949F4A0D9469220D94FD69B6
:100450000D94946A0D94996A0D9470350D94E0642E
:100460000D9439170D94E12E0D9422560D94E676D5
:100470000D9456530D9471650D9441370D942B10C6
:100480000D94BE190D94A64A0D9459160D940B6542
:100490000D94BD350D942B270D94E5360D94B03396
:1004A0000D94564A0D942D170D94F6280D94D16A8B
:1004B0000D94AE040D9407270D94D0690D946E41F0
:1004C0000D9402560D946B0F0D94E9050D94871C45
:1004D0000D947E310D947B400D9403760D941F187E
:1004E0000D94126B0D94AD6A0D94C0590D94D724E0
:1004F0000D94A4700D94C0360D9485080D94F66C7F
:100500000D94AE290D94EA560D94F3370D94A1681D
:100510000D94EB2D0D9466370D9442560D94832265
:100520000D9469360D94A36A0D9477160D943517C2
:100530000D94DB6A0D944A0E0D94E0340D941A4428
:100540000D94E1680D944F450D94BC200D94C65652
:100550000D94C9710D945B360D9489100D947075CE
:100560000D94FB3C0D944F490D94D8690D94ED3AD0
:100570000D94C2570D941C180D942A6F0D94051BF1
:100580000D941F0E0D94A8350D940A300D94266B12
:100590000D94F8330D94FD470D947F220D94136A4A
:1005A0000D946F100D9431250D94B0050D94C73640
:1005B0000D946F0F0D94E9690D9432450D94342D0F
:1005C0000D9488340D946E070D94331D0D9473674C
:1005D0000D9497160D94EF690D940F170D94B4595F
:1005E0000D94DB0E0D946A3D0D948C470D94FD52D5
:1005F0000D94CE710D94F3550D94C3950D94F40D97
:100600000D946A2C0D9438350D94086B0D94651774
:100610000D94C4370D94272D0D94B42D0D94843969
:100620000D943F470D9430750D94F7690D94483043
:100630000D94D2230D94E53E0D94091E0D94D146E0
:100640000D94352D0D94EC040D94C3390D9432574F
:100650000D941B060D9471710D941E220D943B1682
:100660000D94DC3A0D940F6A0D9422180D942137E5
:100670000D9409060D94DE690D9468070D941471AC
:100680000D94806E0D94B4180D9491320D940D1E3E
:100690000D94EF950D94B9360D94E4180D94BC5952
:1006A0000D94662E0D94942D0D948F6A0D94DD0C8F
:1006B0000D94AC590D948D050D94B11F0D94FB3D17
:1006C0000D94F3690D944F1C0D94E1690D946F39ED
:1006D0000D94E0490D94D11D0D945D180D941C6B83
:1006E0000D9462360D94043D0D940D360D94D72073
:1006F0000D943B2E0D94F46A0D944C230D94A4524A
:100700004E414E494E495459494E46CDCCCC3D0AF6
:10071000D7233C17B7D13877CC2B329595E6241FD9
:10072000B14F0A000020410000C84200401C462092
:10073000BCBE4CCA1B0E5AAEC59D74436172642088
:100740006572726F723A004E6F742053442070725B
:10075000696E74696E67002F005344207072696E71
:1007600074696E67206279746520002E0044656CA0
:100770006574696F6E206661696C65642C204669DA
:100780006C653A200046696C652064656C6574652B
:10079000643A002E006F70656E206661696C656456
:1007A0002C2046696C653A20006F6B000D0A003FF3
:1007B0000054696E6B65725F4458555F31372E3156
:1007C00030000D0A00556E6B6E6F776E20636F6D93
:1007D0006D616E643A2000544553540D0A002200A6
:1007E000556E6B6E6F776E20636F6D6D616E643AE0
:1007F000202200456C656374726F6E6963735F7469
:100800006573740041637469766520457874727508
:100810006465723A2000496E76616C69642065787F
:1008200074727564657200540020423A30002042B0
:100830003A31006F6B20523A00726573756D650036
:1008400020643A0020693A0020703A006F6B002063
:10085000643A0020693A0020703A006F6B002C0067
:100860002000486F74656E64206F666673657473EC
:100870003A002200556E6B6E6F776E20636F6D6D60
:10088000616E643A2022006F70656E0054524947D1
:100890004745524544007A5F6D61783A20006F7099
:1008A000656E0054524947474552454400795F6D93
:1008B00061783A20006F70656E0054524947474591
:1008C00052454400785F6D696E3A20005265706F42
:1008D0007274696E6720656E6473746F70207374D0
:1008E0006174757300453A005A3A00593A00204342
:1008F0006F756E7420583A2000453A005A3A0059F4
:100900003A00583A004649524D574152455F4E41D0
:100910004D453A4D61726C696E20556C74696D611C
:100920006B6572323B20537072696E7465722F670B
:1009300072626C206D617368757020666F722067DB
:10094000656E36204649524D574152455F55524CCF
:100950003A687474703A2F2F6769746875622E63F1
:100960006F6D2F556C74696D616B65722050524FBD
:10097000544F434F4C5F56455253494F4E3A312ED8
:1009800030204D414348494E455F545950453A55F2
:100990006C74696D616B65722045585452554445BD
:1009A000525F434F554E543A320A003F0020573AA7
:1009B000002569206D696E2C202569207365630010
:1009C000456E642066696C65206C697374004265CD
:1009D00067696E2066696C65206C69737400726566
:1009E00073756D6500706175736500435045004314
:1009F00050450041425300504C4100435045004394
:100A000050450055504554002020506C616E6E6575
:100A10007242756666657242797465733A20002089
:100A200046726565204D656D6F72793A20004170A0
:100A300072202031203230313900436F6D70696C83
:100A400065643A200054696E6B65725F4458555F67
:100A500031372E313000207C20417574686F723A36
:100A60002000417072202031203230313920323361
:100A70003A33383A303800204C6173742055706432
:100A8000617465643A2000312E302E30004D617261
:100A90006C696E200020536F667477617265205216
:100AA0006573657400205761746368646F672052D2
:100AB00065736574002042726F776E206F757420C5
:100AC0005265736574002045787465726E616C20A0
:100AD000526573657400506F77657255700073745A
:100AE000617274004E6F204C696E65204E756D62A8
:100AF0006572207769746820636865636B73756DD0
:100B00002C204C617374204C696E653A2000507241
:100B1000696E7465722073746F707065642064759B
:100B20006520746F206572726F72732E204669782B
:100B300020746865206572726F7220616E64207522
:100B40007365204D39393920746F20726573746173
:100B500072742E202854656D7065726174757265AB
:100B60002069732072657365742E20536574206943
:100B70007420616674657220726573746172746941
:100B80006E6729004E6F20436865636B73756D2037
:100B900077697468206C696E65206E756D62657228
:100BA0002C204C617374204C696E653A2000636898
:100BB00065636B73756D206D69736D617463682C0B
:100BC000204C617374204C696E653A20004C696E4C
:100BD00065204E756D626572206973206E6F74209A
:100BE0004C617374204C696E65204E756D62657240
:100BF0002B312C204C617374204C696E653A2000B7
:100C00004D313130006563686F3A00256920686FA7
:100C1000757273202569206D696E75746573004463
:100C20006F6E65207072696E74696E672066696C9C
:100C3000650000002110422063308440A550C6604A
:100C4000E770088129914AA16BB18CC1ADD1CEE189
:100C5000EFF13112100273325222B5529442F77200
:100C6000D662399318837BB35AA3BDD39CC3FFF3D9
:100C7000DEE36224433420040114E664C774A44410
:100C800085546AA54BB528850995EEE5CFF5ACC529
:100C90008DD55336722611163006D776F6669556E0
:100CA000B4465BB77AA719973887DFF7FEE79DD779
:100CB000BCC7C448E5588668A77840086118022870
:100CC0002338CCC9EDD98EE9AFF9488969990AA9C9
:100CD0002BB9F55AD44AB77A966A711A500A333A40
:100CE000122AFDDBDCCBBFFB9EEB799B588B3BBB19
:100CF0001AABA66C877CE44CC55C222C033C600CD0
:100D0000411CAEED8FFDECCDCDDD2AAD0BBD688D68
:100D1000499D977EB66ED55EF44E133E322E511E1F
:100D2000700E9FFFBEEFDDDFFCCF1BBF3AAF599FB8
:100D3000788F8891A981CAB1EBA10CD12DC14EF158
:100D40006FE18010A100C230E320045025404670BE
:100D50006760B9839893FBA3DAB33DC31CD37FE3E9
:100D60005EF3B1029012F322D2323542145277620E
:100D70005672EAB5CBA5A89589856EF54FE52CD5B9
:100D80000DC5E234C324A01481046674476424545E
:100D90000544DBA7FAB79987B8975FE77EF71DC7C9
:100DA0003CD7D326F2369106B016576676761546AE
:100DB00034564CD96DC90EF92FE9C899E9898AB919
:100DC000ABA94458654806782768C018E1088238FE
:100DD000A3287DCB5CDB3FEB1EFBF98BD89BBBAB29
:100DE0009ABB754A545A376A167AF10AD01AB32A4E
:100DF000923A2EFD0FED6CDD4DCDAABD8BADE89D79
:100E0000C98D267C076C645C454CA23C832CE01C9D
:100E1000C10C1FEF3EFF5DCF7CDF9BAFBABFD98F08
:100E2000F89F176E367E554E745E932EB23ED10EED
:100E3000F01E7C3C3E5E2B3D3F2F5B5D3B2C2A220F
:100E40005C00206279746573206672656500476F87
:100E500020746F3A00737570706F72740045523071
:100E6000370058206F7220592073776974636820A7
:100E7000737475636B00455230370058206F7220D1
:100E800059207377697463682062726F6B656E00B6
:100E900045523036005A2073776974636820737442
:100EA00075636B0045523035005A2073776974635F
:100EB000682062726F6B656E00455230340053617A
:100EC0006665747920636972637569740045523090
:100ED0003300486561746572206572726F720045F7
:100EE0005230320054656D702073656E736F7220DE
:100EF00042454400455230310054656D70207365A1
:100F00006E736F72004552524F52202D2053544F32
:100F10005050454400756C74696D616B65722E6349
:100F20006F6D2F0054696E6B65725F4458555F3169
:100F3000372E313000801506060606FEFEFEFEFC4A
:100F400000000000000000FCFEFEFEFC0000000EA1
:100F5000FEFEFEFE0000E0FCFEFEFCE0E000000005
:100F6000CECECE000000C0C0C0C0C0C08000000017
:100F700000000080C0C0800000000000008080C031
:100F8000C0C0C0C0C0C080800000000006FEFEFEE1
:100F9000FE0000000080C0C0C00000000000008013
:100FA00080C0C0C080808000000000C0C0C0C00001
:100FB00080C0C0C0C08000000000007FFFFFFFFFB6
:100FC00080000000000080FFFFFFFFFF0000000026
:100FD000FFFFFFFF000000FFFFFFFF000000000019
:100FE000FFFFFF00000081F1FFFF3F0F3FFFFCF01C
:100FF000F0FCFF3F0F3FFFFEF880000000C1E1F171
:10100000F17131010183FFFFFFFC000000FFFFFFD2
:10101000FF000C3EFFFFF7C301000000FCFEFF874E
:1010200003113131333F3F3F1E000001FFFFFFFF3F
:101030000703010101010000000000000103070790
:101040000F0F0F0F0F0F0F0707070F0F06000000FE
:10105000070F0F07000000070F0F07000000000038
:101060000F0F0F0000060F0F070100000001070F10
:101070000F070100000001070F0F06000003070F14
:101080000F0E0E060703070F0F07000000070F0FD4
:101090000700000000030F0F0F0600000003070702
:1010A0000F0E0E0E0E0E0E06000000000F0F0F0F9B
:1010B00000000000000000473120462569205A301A
:1010C00000473120462569205825692059256900A7
:1010D000473120462569205A3500746865206275BD
:1010E000696C64706C617465206C6576656C2E004B
:1010F000706170657220746F2066696E652D7475FD
:101100006E65006E6F77207573652061207368656A
:101110006574206F6600526570656174207468693B
:101120007320737465702C2062757400372F323110
:1011300000434F4E54494E55450062697420726514
:1011400073697374616E63652E00756E74696C20CB
:10115000796F75206665656C2061006275696C64E5
:10116000706C61746520616E64206E6F7A7A6C6554
:1011700000536C6964652061207061706572206243
:1011800065747765656E00382F323100434F4E54D9
:10119000494E554500434F4E54494E5545007468DD
:1011A00065206C65667420636F726E65722E2E2EDC
:1011B00000526570656174207468697320666F728F
:1011C00000392F323100434F4E54494E554500747B
:1011D000686520726967687420636F726E65722E2D
:1011E0002E2E0052657065617420746869732066E4
:1011F0006F720031302F323100434F4E54494E55FB
:101200004500444F4E4500746F20696E73657274DB
:10121000206D6174657269616C2E00746865206E62
:101220006578742073746570206973007468652034
:101230006275696C64706C617465004E6F772074C0
:10124000686174207765206C6576656C6564003133
:10125000312F323100434F4E54494E554500556CA5
:1012600074696D616B6572322E00696E736572749C
:1012700020696E2074686973006D617465726961BC
:101280006C20796F752077696C6C004E6578742CD2
:101290002073656C656374207468650031322F3289
:1012A000310052454144590053656C6563742074A4
:1012B0006865206D6174657269616C0020617320DE
:1012C0006D6174657269616C2C0031332F323100AD
:1012D0004D4154455249414C00697320746869730B
:1012E0002072696768743F00596F75206861766580
:1012F0002063686F73656E0031342F3231004E4FBA
:1013000000594553006974206973207573696E67CD
:101310002E006F66206D6174657269616C006B6E82
:101320006F77732077686174206B696E64004E6F0D
:101330007720796F757220556C74696D616B657279
:10134000320031352F323100434F4E54494E55450E
:10135000006D6174657269616C206C6F6164696EA7
:1013600067007072696E7468656164206865617495
:10137000696E6720666F7200506C656173652077D7
:101380006169742C0031362F32310061626F7665ED
:1013900020746865206172726F772E00796F7572A4
:1013A00020556C74696D616B6572322C0066726FCA
:1013B0006D207468652072656172206F6600496EE9
:1013C00073657274206E6577206D617465726961F2
:1013D0006C0031372F323100434F4E54494E554542
:1013E000004C6F6164696E67206D6174657269613C
:1013F0006C2E2E2E0031382F32310066726F6D2028
:101400006E6F7A7A6C652E2E2E006D61746572692E
:10141000616C20657869747300507573682062751B
:1014200074746F6E207768656E0031392F32310029
:10143000434F4E54494E5545006D616B6520612008
:101440003344205072696E74210049276D20726503
:10145000616479206C657427730032302F3231005B
:1014600041524520594F552052454144593F00743F
:101470006F207072696E742069742100616E64203F
:1014800070726573732074686520627574746F6E12
:10149000006F6E207468652053442D636172640090
:1014A00053656C6563742061207072696E74206688
:1014B000696C650032312F3231004C45542753207E
:1014C0005052494E540052656164696E67206361F1
:1014D00072642E2E2E0032312F323100796F7572E8
:1014E00020556C74696D616B6572322E2E2E0074FE
:1014F0006861742063616D65207769746800506C61
:101500006561736520696E736572742053442D6341
:101510006172640032312F3231001F001F001F2F13
:10152000004275696C64706C61746520001F001F57
:10153000001F2F004E6F7A7A6C6528322920001F19
:10154000001F001F2F004E6F7A7A6C65283129200A
:10155000006F6666006F6E004275696C64706C6146
:1015600074653A20006F6666006F6E004E6F7A7A7F
:101570006C652832293A20006F6666006F6E004E57
:101580006F7A7A6C652831293A20004241434B003A
:101590004241434B0052657475726E20746F206D2A
:1015A00061696E206D656E7500434F4F4C00434F6F
:1015B0004F4C00436F6F6C20646F776E20616C6CD2
:1015C000005052494E54005052494E5400537461D9
:1015D0007274207072696E74005072696E746572F4
:1015E0002068616C7465642E206B696C6C282920FE
:1015F00063616C6C656421005072696E7465722061
:1016000073746F707065642064756520746F2065F5
:1016100072726F72732E2046697820746865206537
:1016200072726F7220616E6420757365204D393956
:101630003920746F20726573746172742E2028547F
:10164000656D70657261747572652069732072656D
:101650007365742E20536574206974206166746507
:10166000722072657374617274696E672900496EC5
:1016700076616C6964206578747275646572004D7A
:10168000004163746976652045787472756465728B
:101690003A200041637469766520457874727564F8
:1016A00065723A2000456E6473746F7020737469BC
:1016B0006C6C20707265737365642061667465720A
:1016C000206261636B696E67206F66662E20456ECF
:1016D0006473746F7020737475636B3F000000E077
:1016E000400000E0400000E040456E6473746F709D
:1016F000206E6F7420707265737365642061667408
:10170000657220686F6D696E6720646F776E2E203A
:10171000456E6473746F702062726F6B656E3F000C
:10172000456E6473746F70206E6F74207072657391
:1017300073656420616674657220686F6D696E6799
:1017400020646F776E2E20456E6473746F70206214
:10175000726F6B656E3F004572726F723A00FF01E7
:1017600001250046616E3A200043004300250046F3
:101770006C6F773A006D6D004D4154455249414CB4
:1017800000696E204D4154455249414C2E545854E5
:1017900000746F2074686520534420636172640094
:1017A0005361766564206D6174657269616C730064
:1017B0004F6B000A006469616D657465723D000AD3
:1017C00000666C6F773D000A0066616E5F7370653E
:1017D00065643D000A006265645F74656D706572E2
:1017E00061747572653D000A003D0074656D706539
:1017F0007261747572655F000A0074656D70657260
:1018000061747572653D000A006E616D653D005B37
:101810006D6174657269616C5D0A0052656164692D
:101820006E6720636172642E2E2E00506C656173AA
:101830006520696E736572742063617264004E6F17
:101840002053442D43415244210066726F6D207431
:1018500068652053442063617264004C6F61646565
:1018600064206D6174657269616C73004F6B007404
:10187000656D70657261747572655F006469616D34
:101880006574657200666C6F770066616E5F737079
:10189000656564006265645F74656D70657261742E
:1018A0007572650074656D7065726174757265003E
:1018B0006E616D65005B6D6174657269616C5D0080
:1018C000466F756E64206F6E20636172642E004EE9
:1018D0006F206578706F72742066696C6500526560
:1018E0006164696E6720636172642E2E2E00506CF5
:1018F0006561736520696E736572742063617264DB
:10190000004E6F2053442D434152442100496D70D5
:101910006F72742066726F6D205344004578706F4B
:10192000727420746F20534400437573746F6D6933
:101930007A6500250046616E3A2000430043002589
:1019400000466C6F773A006D6D004C6F61647320D8
:10195000616C6C206D6174657269616C73005361B8
:1019600076657320616C6C206D6174657269616C61
:1019700073004D6F646966792074686520736574BF
:1019800074696E6773004D4154455249414C00667D
:101990006F72206578747275646572203200666FAC
:1019A0007220657874727564657220310053656CBD
:1019B0006563746564206D6174657269616C3A0079
:1019C0004F4B0053746F72652061732070726573A2
:1019D000657400466C6F7720250046616E0044698F
:1019E000616D657465720048656174656420627537
:1019F000696C64706C6174650054656D70657261CA
:101A00007475726500250025006D6D00430043204C
:101A10000043200025004D6174657269616C206689
:101A20006C6F7700250046616E20737065656400F9
:101A30006D6D004D6174657269616C204469616D02
:101A4000657465720043004275696C64706C617402
:101A5000652054656D702E004D4154455249414CEE
:101A60000054656D70657261747572653A2000434B
:101A700000430054656D7065726174757265004D48
:101A80004154455249414C004E6577207072657350
:101A9000657400505245534554530043504500412E
:101AA000425300504C41006D6D005A005A206F6641
:101AB00066736574002800290059206F6666736597
:101AC00074206C696E65206E6F2E006D6D0059007C
:101AD00059206F6666736574002800290058206FCE
:101AE0006666736574206C696E65206E6F2E006D7E
:101AF0006D00580058206F66667365740052455437
:101B000055524E00436C69636B20746F207265748C
:101B100075726E0053544F52450053746F726520B6
:101B20006F66667365747300457874727564657268
:101B3000206F6666736574004D3834205820590054
:101B40006D6D005900646F636B20706F7369746909
:101B50006F6E2079005800646F636B20706F73693B
:101B600074696F6E20780043414E43454C004162DA
:101B70006F72742066756E6374696F6E0053544F94
:101B800052450053746F726520646F636B20706FF1
:101B9000736974696F6E00446F636B696E67207060
:101BA0006F736974696F6E00507265706172696EEF
:101BB000672E2E2E006D6D005900646F636B2070D0
:101BC0006F736974696F6E2079006D6D00580064E1
:101BD0006F636B20706F736974696F6E2078005249
:101BE000455455524E00436C69636B20746F2072EC
:101BF000657475726E004D4F5645004D6F766520C9
:101C0000686561640053544F52450053746F7265A8
:101C100020646F636B20706F736974696F6E00442A
:101C20006F636B696E6720706F736974696F6E00A4
:101C30006D6D0059007769706520706F7369746904
:101C40006F6E2079006D6D005800776970652070A7
:101C50006F736974696F6E20780052455455524E07
:101C600000436C69636B20746F2072657475726ECB
:101C70000053544F52450053746F7265207769705A
:101C80006520706F736974696F6E005072696D655D
:101C90002F5769706520706F736974696F6E0047A4
:101CA000323820583020593000473238205A30001E
:101CB000473238005072696E7420706175736564C4
:101CC0002E20436865636B206665656465722E002F
:101CD0006563686F3A004D6174657269616C207468
:101CE00072616E73706F72742069737375652064AE
:101CF000657465637465642E004572726F723A0094
:101D0000436865636B206665656465722E0050727A
:101D1000696E74207061757365642E0069737375E4
:101D2000652064657465637465642E004D61746537
:101D30007269616C207472616E73706F72740043AB
:101D40004F4E54494E55450020746F6F206C6F6E96
:101D50006720657874727573696F6E20707265762E
:101D6000656E7465640020636F6C642065787472BE
:101D70007573696F6E2070726576656E7465640048
:101D80006563686F3A0057004578747275646572D0
:101D900020320032005761747461676520457874A1
:101DA000727564657200570031004578747275640D
:101DB00065720031005761747461676520457874FD
:101DC00072756465720057004275696C64706C616D
:101DD00074650057617474616765204275696C644D
:101DE000706C617465005700546F74616C00546FBF
:101DF00074616C20506F77657220427564676574FA
:101E0000004241434B004241434B00436C69636BCA
:101E100020746F2072657475726E0053544F524572
:101E20000053746F7265206F7074696F6E73005029
:101E30006F7765722042756467657400205A3A00B6
:101E400020593A0020583A00656E6473746F7073BD
:101E5000206869743A20006563686F3A0024F4D4FE
:101E60003050C38E20C2A24017828B7011127A911B
:101E70000D816CD90AA861E108C758660761514312
:101E8000061E4B5D05C145A7041A411104093D9882
:101E900003713931034036DB0265339102D430548B
:101EA00002802E1D02632CEE01752AC501B028A008
:101EB00001102781018F2564012B244B01E022347E
:101EC00001AC211F018D200D01801FFC00841EED3F
:101ED00000971DDF00B81CD200E61BC600201BBC0B
:101EE00000641AB200B219A8000A19A0006A189971
:101EF00000D117910040178B00B516840031167E73
:101F000000B31579003A157300C7146F0058146AAE
:101F100000EE1366008813630025135E00C7125B92
:101F2000006C12570015125400C111510070114F6E
:101F30000021114B00D61049008D10470046104477
:101F40000002104200C00F4000800F3E00420F3CD4
:101F500000060F3B00CB0E3800930E37005C0E35A9
:101F600000270E3400F30D3200C10D3100900D300A
:101F700000600D2E00320D2D00050D2C00D90C2B0C
:101F800000AE0C2900850C29005C0C2700350C27BD
:101F9000000E0C2600E80B2400C40B2400A00B2329
:101FA000007D0B23005A0B2100390B2100180B2058
:101FB00000F80A1F00D90A1E00BB0A1E009D0A1D58
:101FC00000800A1D00630A1C00470A1B002C0A1B24
:101FD00000110A1A00F7091A00DD091900C40919CD
:101FE00000AB091900920917007B09180063091753
:101FF000004C09160036091600200916000A0915BA
:1020000000F5081500E0081400CC081400B8081406
:1020100000A4081400900813007D0812006B081338
:102020000058081200460812003408110023081155
:10203000001208110001081100F0071000E007105D
:1020400000D0071000C0071000B0070F00A1071054
:102050000091070E0083070F0074070F0065070E3D
:102060000057070E0049070E003B070D002E070E14
:102070000020070D0013070D0006070D00F9060CE0
:1020800000ED060D00E0060C00D4060C00C8060C9E
:1020900000BC060C00B0060C00A4060B0099060C50
:1020A000008D060B0082060B0077060B006C060BFA
:1020B0000061060A0057060B004C060A0042060A99
:1020C0000038060A002E060A0024060A001A060A2C
:1020D000001006090007060A00FD050900F40509BD
:1020E00000EB050900E2050900D9050900D0050942
:1020F00000C7050900BE050900B5050800AD0508C3
:1021000000A50509009C050800940508008C050839
:1021100000840508007C050800740508006C0507AC
:1021200000650508005D050700560508004E050717
:10213000004705070040050800380507003105077E
:10214000002A050700230507001C050600160507E1
:10215000000F0507000805060002050700FB04063E
:1021600000F5040700EE040600E8040600E2040798
:1021700000DB040600D5040600CF040600C90406EF
:1021800000C3040600BD040600B7040600B1040540
:1021900000AC040600A6040600A00405009B04068B
:1021A0000095040500900406008A040500850405D6
:1021B00000800406007A040500750405007004051B
:1021C000006B04050066040500610405005C04055D
:1021D0000057040500520405004D0405004804059D
:1021E00000430405003E0404003A040500350405DC
:1021F00000300404002C0405002704040023040517
:10220000001E0404001A040400160405001104044E
:10221000000D040400090405000404040000040483
:1022200000FC030400F8030400F4030400F00304BA
:1022300000EC030400E8030400E4030400E00304EA
:1022400000DC030400D8030400D4030400D003041A
:1022500000CC030400C8030300C503030024F404F6
:10226000D9201BC40C5C0E9804C4095F0265077179
:1022700001F405F900FB04B30048048700C10369B9
:10228000005803550003034500BE023A00840231A2
:102290000053022A002902250004022000E4011C48
:1022A00000C8011900AF0117009801140084011340
:1022B00000710110006101100051010E0043010D79
:1022C0000036010B002B010B0020010B001501094A
:1022D000000C01090003010800FB000800F30008DE
:1022E00000EB000700E4000600DE000600D8000650
:1022F00000D2000600CC000500C7000500C20005A2
:1023000000BD000400B9000400B5000400B10004E1
:1023100000AD000400A9000400A5000300A2000312
:10232000009F0004009B000300980003009500023A
:102330000093000300900003008D0002008B000357
:102340000088000200860002008400030081000271
:10235000007F0002007D0002007B00020079000285
:102360000077000100760002007400020072000194
:1023700000710002006F0002006D0001006C00029D
:10238000006A0001006900020067000100660001A8
:1023900000650001006400020062000100610001AC
:1023A00000600001005F0002005D0001005C0001B0
:1023B000005B0001005A00010059000100580001B3
:1023C00000570001005600010055000100540001B3
:1023D00000530000005300010052000100510001B1
:1023E00000500001004F0001004E0000004E0001AF
:1023F000004D0001004C0001004B0000004B0001AB
:10240000004A0001004900010048000000480001A6
:1024100000470001004600000046000100450000A2
:10242000004500010044000100430000004300019A
:102430000042000000420001004100000041000194
:1024400000400001003F0000003F0001003E00008E
:10245000003E0001003D0000003D0001003C000086
:10246000003C0000003C0001003B0000003B00017C
:10247000003A0000003A0001003900000039000174
:10248000003800000038000000380001003700006C
:102490000037000100360000003600000036000161
:1024A0000035000000350000003500010034000058
:1024B000003400000034000100330000003300004D
:1024C0000033000100320000003200000032000141
:1024D0000031000000310000003100010030000038
:1024E0000030000000300001002F0000002F00002D
:1024F000002F0000002F0001002E0000002E000021
:10250000002E0001002D0000002D0000002D000015
:10251000002D0001002C0000002C0000002C000009
:10252000002C0001002B0000002B0000002B0000FD
:10253000002B0001002A0000002A0000002A0000F1
:10254000002A0001002900000029000000290000E5
:1025500000290000002900010028000000280000D8
:1025600000280000002800000028000100270000CB
:1025700000270000002700000027000000270001BE
:1025800000260000002600000026000000260000B3
:1025900000260001002500000025000000250000A5
:1025A0000025000000250000002500010024000097
:1025B000002400000024000000240000002400018A
:1025C000002300000023000000230000002300007F
:1025D000002300000023000000230001002200006F
:1025E0000022000000220000002200000022000063
:1025F0000022000100210000002100000021000055
:102600000021000000210000002100000021000145
:10261000002000000020000000200000002000003A
:102620000020000000200000002000000020000129
:10263000001F0000001F0000001F0000001F00001E
:10264000001F0000001F0000001F0001001E00000E
:10265000001E0000001E0000001E00000050494443
:10266000204175746F74756E652061626F72746558
:10267000642E00504944204175746F74756E652056
:1026800066696E697368656421205075742074688A
:1026900065204B702C204B6920616E64204B6420B8
:1026A000636F6E7374616E747320696E746F204310
:1026B0006F6E66696775726174696F6E2E6800501F
:1026C0004944204175746F74756E65206661696C4C
:1026D0006564212074696D656F75740020403A004F
:1026E0006F6B20543A006F6B20423A0050494420EF
:1026F0004175746F74756E65206661696C656421DF
:102700002054656D706572617475726520746F6FA9
:10271000206869676800204B643A2000204B693AC2
:102720002000204B703A200020436C617373696372
:102730002050494420002054753A2000204B753A1F
:102740002000206D61783A2000206D696E3A2000EB
:1027500020643A200020626961733A2000504944A5
:10276000204175746F74756E6520737461727400A6
:10277000504944204175746F74756E6520666169B7
:102780006C65642E2042616420657874727564659E
:1027900072206E756D6265722E0043414E43454C4A
:1027A000003C2052455455524E00507265763A20F6
:1027B00000432000432F0048656174696E672070F4
:1027C00072696E74686561640011150A000019155C
:1027D0001200000609090600000000000000005F6A
:1027E00000000007000700147F147F14242A7F2AAA
:1027F0001223130864623649552250000503000075
:10280000001C2241000041221C00082A1C2A080842
:10281000083E08080050300000080808080800605A
:1028200060000020100804023E5149453E00427FEE
:10283000400042615149462141454B311814127FF5
:102840001027454545393C4A49493001710905037E
:102850003649494936064949291E003636000000E6
:102860005636000000081422411414141414412296
:102870001408000201510906324979413E7E1111C6
:10288000117E7F494949363E414141227F414122E3
:102890001C7F494949417F090901013E41415132AB
:1028A0007F0808087F00417F41002040413F017FB1
:1028B000081422417F404040407F0204027F7F0491
:1028C00008107F3E4141413E7F090909063E4151C2
:1028D000215E7F09192946464949493101017F0195
:1028E000013F4040403F1F2040201F7F2018207F95
:1028F00063140814630304780403615149454300D9
:10290000007F4141020408102041417F0000040281
:1029100001020440404040400001020400205454A1
:1029200054787F4844443838444444203844444828
:102930007F3854545418087E090102081454543C3A
:102940007F0804047800447D40002040443D00009E
:102950007F10284400417F40007C041804787C08E4
:1029600004047838444444387C14141408081414BB
:10297000187C7C080404084854545420043F444004
:10298000203C4040207C1C2040201C3C4030403CEF
:1029900044281028440C5050503C4464544C44008B
:1029A0000836410000007F0000004136080008089A
:1029B0002A1C08081C2A0808473130004731205AD1
:1029C000256420462564003C204241434B004E6F65
:1029D00020696E666F20617661696C61626C65006A
:1029E0002F004E6F7A7A6C6520006D006D006D00CF
:1029F0006D004D61742E200068006D696E00546991
:102A00006D6520003B4D54595045323A003B4E4FC6
:102A10005A5A4C455F4449414D45544552323A005B
:102A20003B4D4154455249414C323A003B4D54597B
:102A300050453A003B4E4F5A5A4C455F4449414D30
:102A4000455445523A003B4D4154455249414C3A58
:102A5000003B54494D453A00466F6C646572004333
:102A6000616E6E6F7420656E74657220737562643A
:102A700069723A200053442043415244003B464C83
:102A800041564F523A556C746947436F6465003B39
:102A9000464C41564F523A556C746947436F6465D2
:102AA000004E6F2066696C657320666F756E6421D9
:102AB000004F4B004F4B0052656164696E672063A5
:102AC0006172642E2E2E00506C6561736520696EF4
:102AD000736572742063617264004E6F2053442DDD
:102AE000434152442100507265706172696E6720E3
:102AF000746F207072696E743A0048656174696E13
:102B0000672075702E2E2E0041424F5254005455AE
:102B10004E450025004272696768746E65737300E4
:102B200025004D6174657269616C20666C6F772059
:102B3000320025004D6174657269616C20666C6FAE
:102B400077203100250046616E2073706565640052
:102B500025005072696E7420737065656400545569
:102B60004E45004578747275646572206368616EC5
:102B70006765206C656E00456E64206F662070721C
:102B8000696E74206C656E6774680052657472615A
:102B90006374207370656564005265747261637458
:102BA000206C656E677468006D6D006D6D2F7365C8
:102BB00063006D6D006D6D2F7365630052657472F7
:102BC000616374207370656564006D6D0052657497
:102BD00072616374206C656E67746800524554526C
:102BE000414354494F4E004D363031205825752011
:102BF000592575205A2575204C2573004241434BB9
:102C0000004241434B0054554E450054554E45003B
:102C100041424F52547C0005083E3E003E3E50412A
:102C20005553457C0041424F52540041424F52544B
:102C30000054554E450054554E45004D41544552A3
:102C400049414C004348414E47450007081C224A71
:102C5000524C201F4D4154455249414C004348417C
:102C60004E47450005087F7F3E1C08524553554D91
:102C7000457C0050415553494E477C002059002067
:102C800058005769706520706F736974696F6E3A88
:102C90000064697361626C656400656E61626C6595
:102CA00064004669726D7761726520776970653A74
:102CB0002000205900205800446F636B20706F7310
:102CC0006974696F6E3A00486F6D65206F66667350
:102CD0006574207A3220286D6D293A20006469736A
:102CE00061626C656400656E61626C656400447568
:102CF000616C2073657475703A20006563686F3A83
:102D00000053657474696E67732053746F726564E1
:102D1000002044002049002020204D333031205035
:102D2000005049442073657474696E67733A0020DB
:102D30005A0020590020204D323036205800486F6C
:102D40006D65206F666673657420286D6D293A0085
:102D5000204500205A002058002042002054002026
:102D6000204D323035205300416476616E636564D6
:102D7000207661726961626C65733A20533D4D69DA
:102D80006E20666565647261746520286D6D2F73B1
:102D9000292C20543D4D696E2074726176656C203B
:102DA000666565647261746520286D6D2F73292CCA
:102DB00020423D6D696E696D756D207365676D6547
:102DC0006E742074696D6520286D73292C20583D20
:102DD0006D6178696D756D205859206A65726B2038
:102DE000286D6D2F73292C20205A3D6D6178696DF7
:102DF000756D205A206A65726B20286D6D2F7329BE
:102E00002C2020453D6D6178696D756D2045206AE7
:102E100065726B20286D6D2F7329002054002020CF
:102E20004D323034205300416363656C65726174C8
:102E3000696F6E3A20533D616363656C65726174BE
:102E4000696F6E2C20543D726574726163742061E9
:102E50006363656C65726174696F6E002045002064
:102E60005A0020590020204D3230312058004D6149
:102E700078696D756D20416363656C657261746915
:102E80006F6E20286D6D2F7332293A002045002087
:102E90005A0020590020204D3230332058004D6117
:102EA00078696D756D2066656564726174657320FF
:102EB000286D6D2F73293A00204500205A002059B3
:102EC0000020204D393220580053746570732070F3
:102ED000657220756E69743A005630313000537453
:102EE0006F7265642073657474696E6773207265B0
:102EF000747269657665640048617264636F6465C5
:102F0000642044656661756C742053657474696EE1
:102F10006773204C6F61646564006563686F3A0095
:102F20002F2F616374696F6E3A006572726F722041
:102F300077726974696E6720746F2066696C6500CA
:102F4000446F6E6520736176696E672066696C6593
:102F50002E006F6B004D3239006D6D2F73004500F0
:102F60004D61782E2073706565642045006D6D2F6E
:102F700073005A004D61782E207370656564205A85
:102F8000006D6D2F730059004D61782E20737065B0
:102F900065642059006D6D2F730058004D61782EC7
:102FA0002073706565642058004241434B004241E4
:102FB000434B00436C69636B20746F2072657475BA
:102FC000726E0053544F52450053746F72652073F4
:102FD000657474696E6773004D61782E2053706557
:102FE0006564006D6D2F7300582F59204A65726B10
:102FF000004D61782E20582F59204A65726B006D64
:103000006D2F731E00416363656C00416363656CE3
:1030100065726174696F6E004241434B00424143E7
:103020004B00436C69636B20746F2072657475721A
:103030006E0053544F52450053746F726520736590
:103040007474696E677300416363656C6572617463
:10305000696F6E006F66660020736563004D61786E
:103060002E20706F77657200506572696F64206FF3
:1030700066206D61782E20706F776572006F6666CE
:1030800000206D696E0054696D656F757400496448
:103090006C652074696D656F7574004241434B0027
:1030A0004241434B00436C69636B20746F2072652F
:1030B0007475726E0053544F52450053746F7265AD
:1030C000206F7074696F6E7300486561746572205B
:1030D000636865636B0043414E43454C0054696D22
:1030E000656F7574006661696C65642100504944C0
:1030F000204175746F74756E650054656D706572EE
:10310000617475726520746F6F2068696768006606
:1031100061696C65642100504944204175746F7485
:10312000756E65007468652073657474696E677385
:103130002E00596F752063616E2073746F72650085
:1031400066696E6973686564210050494420417561
:10315000746F74756E6500434F4E54494E5545006B
:103160001F001F2F004275696C64706C61746500EC
:103170004578747275646572001F001F2F002F0060
:103180002E005049442074756E696E670043796360
:103190006C65730074756E696E67206379636C6526
:1031A00073001F0054656D706572617475726500FF
:1031B00074756E696E672074656D70657261747583
:1031C0007265004241434B004241434B00436C69EE
:1031D000636B20746F2072657475726E0053544176
:1031E00052540053746172742050494420617574C4
:1031F0006F74756E65005049442074756E65206F5C
:103200007074696F6E7300457874727564657200CE
:103210004275696C64706C6174650053442063612D
:103220007264206F6B006F70656E526F6F742066F2
:1032300061696C656400766F6C756D652E696E6989
:1032400074206661696C6564004572726F723A0041
:10325000534420696E6974206661696C0065636817
:103260006F3A0057726974696E6720746F206669DF
:103270006C653A20002E006F70656E206661696C87
:1032800065642C2046696C653A20002E006F7065DD
:103290006E206661696C65642C2046696C653A2015
:1032A0000046696C652073656C6563746564002015
:1032B00053697A653A200046696C65206F70656EC7
:1032C00065643A20002E006F70656E206661696C3F
:1032D00065642C2046696C653A20006D6D005A00CB
:1032E0005265636F766572207072696E74206672C3
:1032F0006F6D005265636F766572206865696768F7
:10330000740043414E43454C00436C69636B207429
:103310006F2072657475726E005052494E5400539E
:1033200074617274207072696E74005265636F7696
:103330006572207072696E74004D38340045787083
:103340006572742066756E6374696F6E73004732C0
:1033500038205830004732382059300006082214EF
:10336000082214086D6D2F73006D6D00486F6D6538
:10337000205A2061786973005A206178697320703F
:103380006F736974696F6E005A004D6F7665205ACD
:10339000206178697300486F6D65205920617869F4
:1033A000730059206178697320706F736974696F55
:1033B0006E0059004D6F7665205920617869730061
:1033C000486F6D65205820617869730058206178D6
:1033D000697320706F736974696F6E0058004D6F68
:1033E000766520582061786973004241434B004262
:1033F00041434B00436C69636B20746F20726574AA
:1034000075726E0020414C4C00486F6D6520616CF8
:103410006C2061786573004D6F7665206178697303
:10342000004D3834205830205930004D3834205861
:1034300030205930004D3834205830205930004465
:10344000697361626C652058592D7374657070657D
:1034500072730044697361626C652058592D7374EE
:10346000657070657273004D6F7665206865616484
:1034700020746F2066726F6E74004D6F76652068E1
:1034800065616420746F2066726F6E7400486F6DA2
:10349000652068656164000708087C466F467C0803
:1034A000486F6D652068656164004241434B00428E
:1034B00041434B00436C69636B20746F20726574E9
:1034C00075726E0053656C656374206F7074696FFC
:1034D0006E001F001F2F001F00280029004E6F7A6A
:1034E0007A6C6528002920001F001F001F00414240
:1034F0004F52540041424F52540041626F72742047
:103500007072696E740054554E450054554E450016
:1035100054756E65206D656E75001F0005082634B4
:10352000081632250046616E001F001F0005086066
:103530009E819E6025006D6D2F73005370656564DC
:10354000200025006D6D1D2F7300466C6F772832AB
:1035500029200025006D6D1D2F7300466C6F7728A4
:10356000312920000B0808080808080808083E1C34
:1035700008476F746F2070616765203200436F6E7B
:1035800074726F6C206F7074696F6E7300546F6724
:10359000676C65204C4544006D6D2F7300582F59A2
:1035A000204A65726B004D61782E20582F59204AB1
:1035B00065726B006D6D2F731E00416363656C0057
:1035C000416363656C65726174696F6E006D6D2F28
:1035D000730007087F7F5155457F7F526574726184
:1035E0006374207370656564006D6D0007087F7FEC
:1035F000415F5F7F7F5265747261637400526574CE
:1036000072616374206C656E6774680008080982D3
:10361000F88484F88209546F67676C65204C4544D0
:1036200000436F6E74726F6C206F7074696F6E738D
:103630000007086070381E0908040B08081C3E08C3
:1036400008080808080808476F746F2070616765EC
:103650002031005072696D65004578747261207088
:1036600072696D696E6720286D6D290053706565FC
:1036700064005265747261637420737065656420C0
:10368000286D6D2F7329004C656E00526574726150
:103690006374206C656E20286D6D29005245545569
:1036A000524E00436C69636B20746F2072657475B1
:1036B000726E0053544F52450053746F72652072FE
:1036C0006574726163742076616C75657300546F04
:1036D0006F6C6368616E6765207265747261637494
:1036E00000290028006F666600656E61626C656483
:1036F0000057697065206465766963653A005769AB
:10370000706520646576696365006F666600656E46
:1037100061626C656400546F6F6C6368616E6765AD
:103720003A00546F6F6C6368616E676520736372F3
:10373000697074006F666600656E61626C65640036
:103740004475616C206D6F64653A004475616C204E
:103750006D6F64650052455455524E00436C696369
:103760006B20746F2072657475726E0053544F52E3
:10377000450053746F7265206475616C206D6F64D1
:1037800065004475616C20737461746500290041A3
:10379000646A757374205A20286E6F7A7A6C65207B
:1037A000005072696D652F5769706520706F73697D
:1037B00074696F6E00446F636B696E6720706F731E
:1037C0006974696F6E004578747275646572206FF4
:1037D000666673657400546F6F6C6368616E6765CD
:1037E0002072657472616374004368616E6765205E
:1037F0006578747275646572004475616C206D6FD4
:103800006465006F666600656E61626C6564004D9C
:10381000383420583020593000473120462569205F
:103820005A2569205825692059256900205A3000F9
:103830002059300020583000473238004475616C00
:1038400020657874727573696F6E00627574746F39
:103850006E20746F20636F6E74696E756500556CB1
:1038600074696D616B657221205072657373207489
:1038700068650073746172747570206F6620796F6B
:1038800075720057656C636F6D6520746F20746886
:103890006520666972737400312F323100434F4ED8
:1038A00054494E554500473120462569205A25691F
:1038B000205825692059256900473238205A302080
:1038C0005830205930006275696C64706C617465A1
:1038D0002E006F662061646A757374696E67207963
:1038E0006F7572007468726F756768207468652000
:1038F00070726F6365737300492077696C6C206721
:103900007569646520796F750043414E43454C00ED
:10391000434F4E54494E55450047312046256920B6
:103920005A256900612066697273742072756E2071
:1039300077697A6172642E0077616C6B20796F759C
:10394000207468726F75676800666972737420739B
:1039500074617274757020492077696C6C004265DF
:103960006361757365207468697320697320746876
:103970006500322F323100434F4E54494E554500B9
:10398000473120462569205A256920582569205944
:10399000256900676F696E6720746F20646F2074FB
:1039A000686174206E6F772E0061646A7573746D40
:1039B000656E74732C2077652061726500776520D1
:1039C0006E65656420746F20646F20736F6D650091
:1039D0004166746572207472616E73706F72746187
:1039E00074696F6E00332F323100434F4E54494E8D
:1039F000554500473120462569205A30004731207F
:103A000046256920582569205925690047312046F7
:103A10002569205825692059256900473120462508
:103A200069205A350066726F6D2074686520627572
:103A3000696C64706C6174652E0061206D696C6CDA
:103A4000696D65746572206177617900756E74695E
:103A50006C20746865206E6F7A7A6C6520697300DB
:103A6000526F746174652074686520627574746F38
:103A70006E00342F323100434F4E54494E554500AD
:103A8000434F4E54494E5545004731204625692045
:103A90005A3000473120462569205825692059258C
:103AA0006900473120462569205825692059256934
:103AB00000473120462569205A350066726F6D2017
:103AC000746865206275696C64706C6174652E0041
:103AD00069732061206D696C6C696D657465722015
:103AE000617761790073637265772074696C6C200B
:103AF000746865206E6F7A7A6C65005475726E20FA
:103B00006C656674206275696C64706C61746500C4
:103B1000352F323100434F4E54494E5545006672A1
:103B20006F6D20746865206275696C64706C617477
:103B3000652E0069732061206D696C6C696D657418
:103B400065722061776179007363726577207469AB
:103B50006C6C20746865206E6F7A7A6C65005475A1
:103B6000726E207269676874206275696C64706C2B
:103B700061746500362F323100434F4E54494E5523
:103B80004500250046616E2073706565640047310D
:103B9000205A343000414456414E434544004300CE
:103BA000432F00436C69636B20746F2072657475DA
:103BB000726E004E6F7A7A6C652074656D706572F6
:103BC00061747572653A004300432F00436C69636A
:103BD0006B20746F2072657475726E00526F746121
:103BE000746520746F2065787472756465004E6F1B
:103BF0007A7A6C652074656D706572617475726532
:103C00003A004300432F00436C69636B20746F20BC
:103C100072657475726E004275696C64706C617463
:103C2000652074656D702E3A0054696E6B65725F25
:103C30004458555F31372E313000417072202031A9
:103C400020323031392032333A33383A313200526F
:103C5000657475726E006D00204D61743A003A0013
:103C60005072696E74696E673A003A004D6163681C
:103C7000696E65206F6E20666F723A0052657475CA
:103C8000726E00746F2064656661756C743F0052DB
:103C9000657365742065766572797468696E67000E
:103CA0004E4F0059455300496E7665727420617815
:103CB000697300417869732073746570732F6D6D3B
:103CC000004D6F746F722043757272656E74004D93
:103CD00061782E2061786973207370656564004196
:103CE0006363656C65726174696F6E004D4F544912
:103CF0004F4E0020476C6F77207768656E20646FA9
:103D00006E6500204F6E207768696C65207072695F
:103D10006E74696E670020416C77617973204F661D
:103D2000660020416C77617973204F6E00427269A2
:103D30006768746E657373002500250042726967B9
:103D400068746E657373004C4544004765656B206D
:103D50004D6F6465003E005374616E64617264204F
:103D60004D6F6465003E00203F3F3F004F66660098
:103D70003E0053686F7274207469636B003E005399
:103D800074616E646172642062656570003E005308
:103D900063726F6C6C2066696C656E616D65730033
:103DA0003E004E6F207363726F6C6C696E67003EED
:103DB000005573657220696E746572666163650093
:103DC000436C69636B20736F756E64005363726F2D
:103DD0006C6C2066696C656E616D657300250043CF
:103DE0006C69636B20746F2072657475726E00531A
:103DF000637265656E20636F6E7472617374004BDD
:103E000064004465726976617469766520636F65E4
:103E100066662E004B6900496E74656772616C209E
:103E2000636F656666696369656E74004B70005008
:103E3000726F706F7274696F6E616C20636F65660C
:103E4000662E004241434B004241434B00436C69A4
:103E5000636B20746F2072657475726E00415554E7
:103E60004F00537461727420504944206175746F1F
:103E700074756E650053544F52450053746F7265EC
:103E8000205049442073657474696E67730050490B
:103E9000442073657474696E677300283129004586
:103EA00078747275646572004B640044657269765B
:103EB000617469766520636F6566662E004B6900E4
:103EC000496E74656772616C20636F6566666963CD
:103ED00069656E74004B700050726F706F72746918
:103EE0006F6E616C20636F6566662E004241434BC6
:103EF000004241434B00436C69636B20746F207236
:103F0000657475726E004155544F0053746172743C
:103F100020504944206175746F74756E6500535468
:103F20004F52450053746F726520504944207365A9
:103F30007474696E677300504944207365747469C2
:103F40006E67730028322900457874727564657253
:103F5000004B64004465726976617469766520631C
:103F60006F6566662E004B6900496E746567726105
:103F70006C20636F656666696369656E74004B707B
:103F80000050726F706F7274696F6E616C20636F36
:103F90006566662E004275696C642D7C706C617478
:103FA0006500504944206D6F6465004241434B00F9
:103FB0004241434B00436C69636B20746F20726510
:103FC0007475726E004155544F00537461727420C1
:103FD000504944206175746F74756E650053544F79
:103FE00052450053746F72652050494420736574C4
:103FF00074696E6773005049442073657474696E08
:10400000677300504944206F6666004275696C64AE
:10401000706C6174650045787472756465722032E5
:1040200000457874727564657220310054656D7056
:104030006572617475726520636F6E74726F6C0067
:10404000417869732073746570732F6D6D006E6FA6
:1040500000796573003A00496E76657274004532E6
:1040600000457874722E3200453100457874722E06
:1040700031005A005A005900590007081C224141DA
:1040800041221C07081C3E7F7F7F3E1C58005800C1
:104090004241434B004241434B00436C69636B20F8
:1040A000746F2072657475726E0053544F524500E0
:1040B00053746F726520696E7665727420666C61E8
:1040C000677300496E766572742061786973006D5C
:1040D0006D00456E64206C656E67746800456E64A3
:1040E000206F66207072696E74206C656E677468EC
:1040F000006D6D2F7300526574726163742073706C
:10410000656564006D6D0052657472616374005280
:10411000657472616374206C656E677468004241F7
:10412000434B004241434B00436C69636B20746F07
:104130002072657475726E0053544F52450053746B
:104140006F72652073657474696E6773005265746D
:1041500072616374696F6E2073657474696E6773DE
:1041600000453200457874727564657220322028EB
:104170006D4129004531004578747275646572207F
:104180003120286D4129005A005A20617869732036
:10419000286D412900582F5900582F5920617869FE
:1041A0007320286D4129004241434B004241434B5B
:1041B00000436C69636B20746F2072657475726E56
:1041C0000053544F52450053746F726520736574E9
:1041D00074696E6773004D6F746F722043757272ED
:1041E000656E7400505245464552454E4345530056
:1041F0004D38342058205920450052455455524ED0
:104200000053455454494E4753004348414E474597
:1042100000666F72206D6174657269616C207265F1
:104220006D6F76616C0029002800436F6F6C696EBA
:1042300067206E6F7A7A6C650048656174696E6795
:10424000206E6F7A7A6C6500526576657273696E5E
:1042500067206D6174657269616C002900280045F2
:10426000787472756465720052656D6F7665206D45
:104270006174657269616C00290028004578747268
:10428000756465720043414E43454C0052454144BC
:104290005900666F7220696E73657274696F6E0083
:1042A00029002800436F6F6C696E67206E6F7A7A01
:1042B0006C650048656174696E67206E6F7A7A6C10
:1042C0006500796F7572206D616368696E6500665F
:1042D000726F6D20746865206261636B73696465D9
:1042E000206F660029002800666F7220657874725E
:1042F0007564657200496E73657274206E6577200F
:104300006D6174657269616C0043414E43454C00B8
:10431000524541445900466F7277617264696E6715
:10432000206D6174657269616C0029002800457810
:104330007472756465720029002800636F6D65737F
:10434000206F7574206E6F7A7A6C6500576169749E
:104350002074696C6C206D6174657269616C0043D6
:10436000414E43454C005245414459001F002F0027
:104370001F002F000708404A55404A55401F002F94
:1043800000250048656174696E672075702E2E2EB9
:10439000200055534220636F6D6D756E69636174C3
:1043A000696F6E2E2E2E0048656174696E672062FB
:1043B00075696C64706C6174650048656174696EE0
:1043C00067206E6F7A7A6C65005A00506175736968
:1043D0006E672E2E2E00436C69636B20746F206312
:1043E0006F6E74696E75652E2E2E00506175736543
:1043F000642E2E2E00250007081C3E7F71773E1C80
:1044000050617573696E672E2E2E0050617573654D
:10441000642E2E2E0007087F5D4941495D7F446967
:104420007361626C6520737465707065727300529D
:1044300065636F766572207072696E74004D6F7679
:10444000652061786973004D383420583020593028
:10445000006D6D005A0043414E43454C0053544F8C
:10446000524500746865206275696C64706C617493
:1044700065006E6F7A7A6C6520746F75636865731A
:10448000004D6F7665205A20756E74696C207468D3
:1044900065006D6D005A00746865206275696C6412
:1044A000706C617465006E6F7A7A6C6520746F75DC
:1044B00063686573004D6F7665205A20756E746968
:1044C0006C207468650041424F52540041424F5283
:1044D000540041626F7274207072696E7400070834
:1044E0001C22404F40221C54554E450054554E4509
:1044F0000054756E65206D656E7500202F20005A82
:104500000052656164696E672066696C652E2E2EA7
:10451000002500476C6F77004C454420736C65653F
:104520007020676C6F770007087F6E6C7872674247
:104530006F66660025004C434420736C65657020EF
:10454000636F6E74726173740053637265656E009D
:104550006F6666006D696E0053637265656E2074E8
:10456000696D656F7574000708492A1C7F1C2A490C
:1045700025004C454420736C656570206272696744
:1045800068746E6573730007081C22414F49221C32
:104590004C69676874006F6666006D696E004C4513
:1045A000442074696D656F7574004241434B00424D
:1045B00041434B00436C69636B20746F20726574D8
:1045C00075726E0053544F52450053746F726520DC
:1045D0006F7074696F6E7300536C656570207469D9
:1045E0006D6572006D6D005A004D6178696D756D75
:1045F000205A20636F6F7264696E617465006D6D1F
:10460000002D004D6178696D756D205920636F6FC5
:104610007264696E617465006D6D0059004D696E5C
:10462000696D756D205920636F6F7264696E617476
:1046300065006D6D002D004D6178696D756D2058B8
:1046400020636F6F7264696E617465006D6D0058F0
:10465000004D696E696D756D205820636F6F7264CF
:10466000696E617465004241434B004241434B0017
:10467000436C69636B20746F2072657475726E0091
:1046800053544F52450053746F72652061786973BB
:10469000206C696D697473005072696E7420617268
:1046A0006561004532004578747275646572203228
:1046B0002073746570732F6D6D00453100457874FB
:1046C000727564657220312073746570732F6D6D1F
:1046D000005A005A2073746570732F6D6D00590075
:1046E000592073746570732F6D6D005800582073D6
:1046F000746570732F6D6D004241434B004241431E
:104700004B00436C69636B20746F20726574757223
:104710006E0053544F52450053746F72652073748A
:104720006570732F6D6D0020280029004300432F12
:1047300000436C69636B20746F2072657475726ED0
:10474000004E6F7A7A6C65200054656D70657261F9
:10475000747572650052455455524E004558545276
:10476000554445527C320045585452554445527C7C
:1047700031004D3234004D323320257300617574A1
:104780006F25692E67002F002F0043616E6E6F74D6
:10479000206F70656E20737562646972004D3834E5
:1047A000204530006D6D00526F7461746520746F28
:1047B00020657874727564650007080708137F1315
:1047C0000807526573657420706F736974696F6E42
:1047D000000608081422081422436C69636B202623
:1047E00020686F6C6420746F2070756C6C001F0003
:1047F0001F2F001F001F2F0029200028004E6F7A56
:104800007A6C6520004241434B00070810387C1049
:1048100010101E4241434B00436C69636B20746F60
:104820002072657475726E0054554E450005082A55
:104830002A2A2A2A54554E45004D6F7265206F7002
:1048400074696F6E7300290028004D6F7665206DC6
:104850006174657269616C001F001F2F001F0028C2
:104860000029004275696C64706C617465200000F9
:10487000002100240027002A002D00300033000111
:10488000010000040107010A0100002200250028A0
:10489000002B002E00310034000201000005010849
:1048A000010B0105050505070508080808020202B5
:1048B000020A0A08080404040401010101010101BB
:1048C000010303030303030303040707070C0C0C92
:1048D0000C0C0C0C0C02020202060606060606066A
:1048E000060B0B0B0B0B0B0B0B0102102020080807
:1048F0001020401020408002010201080402010142
:10490000020408102040808040201008040201802A
:104910000402018040201008040201080402010181
:10492000020408102040800102040810204080008A
:10493000000A0B02090C0D0E080703040100000019
:104940000000000000000000000000000000000067
:104950000000000000000000000000121110000024
:104960000000000000000000000000000000000047
:1049700000000000002073656300206D696E002058
:10498000686F75720020686F7572730054696D6589
:10499000206C6566740054696D65206C65667420D2
:1049A000756E6B6E6F776E004300432F0048656134
:1049B00074696E67206275696C64706C61746500FF
:1049C0004300432F00432000432F00486561746972
:1049D0006E67005072696E74696E673A0050415597
:1049E00053450054554E4500756C74696D616B6597
:1049F000722E636F6D2F4552303800476F20746FF1
:104A00003A0072656164696E672053442D63617278
:104A10006421004572726F72207768696C6500527C
:104A2000455455524E20544F204D41494E006F661B
:104A3000207072696E74696E6720617265610054DE
:104A400072696564207072696E74696E67206F7533
:104A500074004552524F523A0052455455524E201E
:104A6000544F204D41494E0066726F6D2074686549
:104A700020736C696365722E0073657474696E6768
:104A800020776974682073657474696E67006F7647
:104A9000657272696465206D616368696E65005452
:104AA0006869732066696C652077696C6C004341A6
:104AB0004E43454C00434F4E54494E5545002573D7
:104AC000207673202573006D6174657269616C2EA8
:104AD00000666F72206120646966666572656E7437
:104AE00000546869732066696C652069732063727D
:104AF00065617465640043414E43454C00434F4E2D
:104B000054494E55450041626F7274696E672E2E8E
:104B10002E0041626F727420746865207072696E35
:104B2000743F004E4F00594553005072696E742017
:104B300066696E6973686564005072696E74657247
:104B400020636F6F6C696E6720646F776E0043003F
:104B500043200068006D696E0054696D6520004255
:104B600041434B20544F204D454E5500536C6565D5
:104B7000702074696D6572004D6F7665206D61748B
:104B8000657269616C004C454420427269676874C3
:104B90006E657373004578747275646572206F6614
:104BA0006673657400546F6F6C6368616E6765202F
:104BB00072657472616374203200546F6F6C636845
:104BC000616E676520726574726163742031005292
:104BD000657472616374696F6E004D6174657269AA
:104BE000616C20666C6F772032004D61746572696C
:104BF000616C20666C6F7720310046616E207370A7
:104C0000656564004275696C64706C6174652054FC
:104C1000656D702E005072696E742054656D7065FC
:104C20007261747572652032005072696E7420541E
:104C3000656D7065726174757265203100537065C1
:104C400065640025002500250025004300432F0052
:104C50004300432F004300432F0025002028002954
:104C6000004300432F00436C69636B20746F207214
:104C7000657475726E004275696C64706C61746500
:104C80000054656D7065726174757265005072656F
:104C900068656174001F002F001F002F004D4154F4
:104CA000455249414C004D41494E54454E414E43B9
:104CB00045005052494E54004348414E4745004D2F
:104CC0004F56450053455454494E475300414456AE
:104CD000414E434544005052494E540050524548BD
:104CE000454154004D4154455249414C00535441B3
:104CF00052540052455455524E00414456414E4381
:104D00004544004255494C442D7C504C415445008B
:104D10004578706572742066756E6374696F6E7322
:104D20000041646A757374206275696C64706C61AB
:104D30007465005365742066616E207370656564E8
:104D4000004D6F7665206D6174657269616C004914
:104D50006E73657274206D6174657269616C005266
:104D600061697365206275696C64706C617465005B
:104D70004C6F776572206275696C64706C617465E4
:104D800000486F6D652068656164004865617475F1
:104D900070206275696C64706C617465004865614F
:104DA000747570206E6F7A7A6C65004475616C2042
:104DB000457874727573696F6E00507265666572BE
:104DC000656E6365730025004300432F0043004375
:104DD0002F00432000432F00466163746F727920D7
:104DE00072657365740052756E74696D65207374B5
:104DF0006174730056657273696F6E00506F7765EA
:104E00007220627564676574005072696E74206107
:104E1000726561004D6F74696F6E2073657474699B
:104E20006E67730052657472616374696F6E20738C
:104E3000657474696E67730054656D706572617432
:104E400075726520636F6E74726F6C004865617473
:104E500065722074696D656F757400536372656562
:104E60006E20636F6E747261737400536C6565704D
:104E70002074696D6572005363726F6C6C20666993
:104E80006C656E616D657300436C69636B20736F55
:104E9000756E64004C45442073657474696E677365
:104EA000005573657220696E746572666163650092
:104EB00054696E6B65725F4458555F31372E3130DF
:104EC000006F66660073006F6666202F20006D69B4
:104ED0006E202F2000250044697361626C656400B8
:104EE000456E61626C6564005374616E64617264E6
:104EF0000053686F7274207469636B004F666600BC
:104F000025005374616E64617264204D6F646500A6
:104F10004765656B204D6F6465002200656E717595
:104F200065696E6720220020400020403A00204240
:104F3000403A00202F00205400202F0020423A0049
:104F4000202F0020543A00202D20496E76616C6994
:104F500064206578747275646572206E756D626523
:104F6000722021000000000018070100A8071400AB
:104F700030082800B8083C0038095000C009640017
:104F8000480A7800C80A8C00480BA000C80BB4007F
:104F9000480CC800C80CDC00400DF000C00D040136
:104FA000380E1801B00E2C01280F4001A00F54013B
:104FB0001810680188107C01001190013013F40171
:104FC000481558024017BC0228192003F01A840320
:104FD000A81CE803401E4C043A204578747275649E
:104FE0006572207377697463686564206F66662EE6
:104FF000204D415854454D50207472696767657261
:1050000065642021003A20457874727564657220C9
:105010007377697463686564206F66662E204D49F6
:105020004E54454D502074726967676572656420FF
:10503000210054656D7065726174757265206865D4
:105040006174656420626564207377697463686560
:1050500064206F66662E204D415854454D50207493
:105060007269676765726564202121004572726FFD
:10507000723A00526573656E643A20006F6B0000EF
:105080004803FC0211241FBECFEFD1E2DEBFCDBF2B
:1050900000E00CBF13E0A0E0B2E0ECEFF7E403E0C7
:1050A0000BBF02C007900D92AE37B107D9F729E1C7
:1050B000AEE7B3E001C01D92A630B207E1F718E2F7
:1050C000C1E4D8E200E006C021970109802FFE016B
:1050D0000F9461A3C034D10780E00807A9F70F94AB
:1050E00002880D94EDA30C9400002F923F924F92F2
:1050F0005F926F927F928F929F92AF92BF92CF9268
:10510000DF92EF92FF920F931F93CF93DF93CDB770
:10511000DEB7C454D1090FB6F894DEBF0FBECDBFC1
:10512000B82ED92E21966FAF21978091AD149AEFAA
:10513000980F923020F0803F10F41092AD1467E485
:105140008B2D9D2D0F94517EF82E882309F4E3C4F6
:10515000809193059091940560E070E001960F9422
:1051600089980F94DEA06A30710509F4C9C09CF4D7
:105170006230710509F449C024F477FF32C00C9401
:105180009F466330710509F453C06430710509F41A
:1051900062C00C949F466A35710509F473C464F4C7
:1051A0008091AD146B30710509F43EC16C3171050D
:1051B00009F4CEC10C949F466B35710509F469C49E
:1051C0006C35710511F00C949F4696E5892E93E09D
:1051D000992E28EBE22E24E1F22E00E0C12C10E003
:1051E00078C480910305811110C08B2D9D2D0F94E3
:1051F000E1838B2D9D2D0E94017D21964FAC21973F
:10520000442011F40C94264CC7C6809103058111EB
:105210000FC08B2D9D2D0F94A98681E00E94BE7931
:1052200021965FAC2197552011F40C94264CB4C6FE
:105230008091030581110FC08B2D9D2D0F94A986A0
:1052400080E00E94BE7921966FAC2197662011F410
:105250000C94264CA1C68091AD14863011F40C94A8
:105260009F4685EE99E00E94CAE960E58B2D9D2D51
:105270000F94517E882371F080919305909194054D
:1052800060E070E001960F9489980F94E4A02B01E0
:105290003C0103C0412C512C320163E58B2D9D2D27
:1052A0000F94517E882399F08091930590919405F5
:1052B00060E070E001960F94899820E030E04AE7C2
:1052C00054E40F94A8960F94E4A02B013C010E9493
:1052D00049B70F94546B60938B0570938C05809342
:1052E0008D0590938E0581E08093AD14C301B201CA
:1052F0000E9433AE8EED99E00E94CAE90C949F465D
:105300008091AD14863011F40C949F468091B614B0
:1053100090E04091D8149C01042E02C03595279549
:105320000A94E2F720FF02C00C949F4624E030E08C
:1053300002C0220F331F4A95E2F782239323892B61
:1053400011F00C949F464090560250905702609086
:105350005802709059028091C4149091C514A09184
:10536000C614B091C71489839A83AB83BC8380E150
:10537000E8EBF4E1AAE5B4E001900D928A95E1F73B
:1053800080916F0280FF02C00C94AF4663E58B2DC5
:105390009D2D0F94517E882311F40C94AF4680917B
:1053A0009305909194054AE050E060E070E001962A
:1053B0000F94EF99613071058105910511F00C94FE
:1053C000AF46E091D81424E0E29F80011124F80157
:1053D000EC56FB4ED801A853BB4E2D913D914D91FB
:1053E0005C9160817181828193810F946DA09B019A
:1053F000AC0160916604709167048091680490919B
:1054000069040F947E9F6093660470936704809391
:10541000680490936904F801E05CFB4E80819181FF
:10542000A281B3810C94E146863011F40C949F461E
:105430008091D8142091B61430E0082E02C0359522
:1054400027950A94E2F720FD02C00C949F460F9422
:10545000CB5F6091C4147091C5148091C614909173
:10546000C71469837A838B839C8320E1E8EBF4E1A2
:10547000AAE5B4E001900D922A95E1F7C090D81406
:10548000B4E0CB9E70011124870102551B4EF80138
:1054900020813181428153810F947F9F6093660404
:1054A0007093670480936804909369044090560257
:1054B000509057026090580270905902F701EA58D4
:1054C000FB4F80819181A281B3818093560290939A
:1054D0005702A0935802B093590281E090E001C0B6
:1054E000880FCA94EAF780959091B6148923809327
:1054F000B614D8011D921D921D921C9213978B2DEC
:105500009D2D0E94017D409256025092570260925A
:1055100058027092590289819A81AB81BC81809333
:10552000C4149093C514A093C614B093C714809369
:10553000660490936704A0936804B093690440E004
:105540006091D814CE0101960E942D9F0C949F4625
:105550009BEF980F923010F40C949F46873029F0FF
:105560008F3F19F085E08093AD140E9449B7809178
:10557000560290915702A0915802B091590280931F
:10558000800390938103A0938203B093830380915F
:1055900075029091760290937F0380937E0384E658
:1055A00090E090937602809375020F94546B609311
:1055B0008B0570938C0580938D0590938E0511E07B
:1055C00010930F0280E1E8EBF4E1AAE5B4E001906A
:1055D0000D928A95E1F7109256021092570210929E
:1055E00058021092590268E58B2D9D2D0F94517E23
:1055F000882311F080E00DC069E58B2D9D2D0F945F
:10560000517E8111F7CF6AE58B2D9D2D0F94517E30
:10561000812780930002882309F439C11092B814BD
:105620001092B9141092BA141092BB141092BC14B8
:105630001092BD141092BE141092BF141092C01498
:105640001092C1141092C2141092C31461E08091A0
:10565000D8140F94CD5E20916A0430916B04409170
:105660006C0450916D046091140270911502809148
:105670001602909117020F947E9F20E030E040ECDC
:105680005FE30F94A896DC01CB01B05880935A04D5
:1056900090935B04A0935C04B0935D0420916E042E
:1056A00030916F0440917004509171046091180220
:1056B0007091190280911A0290911B020F947E9FA3
:1056C00020E030E040EC5FE30F94A89660935E0426
:1056D00070935F048093600490936104209172043E
:1056E00030917304409174045091750460911C02D0
:1056F00070911D0280911E0290911F020F947E9F57
:1057000020E030E040EC5FE30F94A89660936204E1
:1057100070936304809364049093650480E090E840
:10572000ABEBB5E48093560290935702A0935802D6
:10573000B0935902C090D814E12CF12C08EC12E47B
:1057400026E634E042E654E06EE574E08AE594E053
:105750000E947B9F0E9449B70E94B1BE80E090E00A
:105760000F943B7D81E090E00F943B7D82E090E0E0
:105770000F943B7D61E08091D8140F94CD5E8091B1
:10578000B8149091B914A091BA14B091BB1480933D
:105790005A0490935B04A0935C04B0935D048091E1
:1057A000BC149091BD14A091BE14B091BF1480930D
:1057B0005E0490935F04A0936004B09361048091B1
:1057C000C0149091C114A091C214B091C3148093DD
:1057D000620490936304A0936404B093650420E092
:1057E00030E040E752E46091560270915702809198
:1057F0005802909159020F946DA0C090D8147B016B
:105800008C0126E634E042E654E06EE574E08AE579
:1058100094E00E947B9F10925602109257021092C1
:105820005802109259020E9449B70E94B1BE80915D
:105830005A0490915B04A0915C04B0915D04809344
:10584000B8149093B914A093BA14B093BB14809178
:105850005E0490915F04A0916004B0916104809314
:10586000BC149093BD14A093BE14B093BF14809148
:10587000620490916304A0916404B09165048093E4
:10588000C0149093C114A093C214B093C314809118
:10589000000281110C944B476AE58B2D9D2D0F94CE
:1058A000517E81110C944B478091000281110C9420
:1058B000514768E58B2D9D2D0F94517E882341F033
:1058C00069E58B2D9D2D0F94517E81110C945147CC
:1058D0008091000281110C944E4868E58B2D9D2D1E
:1058E0000F94517E81110C944E48809100028111D9
:1058F0000C94544869E58B2D9D2D0F94517E811198
:105900000C94544868E58B2D9D2D0F94517E88236F
:1059100051F180919305909194054AE050E060E048
:1059200070E001960F94EF99672B682B692BD9F0E3
:10593000809193059091940560E070E001960F943A
:105940008998209124143091251440912614509167
:1059500027140F947F9F6093B8147093B9148093A9
:10596000BA149093BB1469E58B2D9D2D0F94517E35
:10597000882351F180919305909194054AE050E07D
:1059800060E070E001960F94EF99672B682B692B0C
:10599000D9F0809193059091940560E070E00196B4
:1059A0000F948998209128143091291440912A1439
:1059B00050912B140F947F9F6093BC147093BD146F
:1059C0008093BE149093BF146AE58B2D9D2D0F9488
:1059D000517E882351F180919305909194054AE07E
:1059E00050E060E070E001960F94EF99672B682B10
:1059F000692BD9F0809193059091940560E070E057
:105A000001960F94899820912C1430912D14409177
:105A10002E1450912F140F947F9F6093C014709395
:105A2000C1148093C2149093C31461E08091D81480
:105A30000F94CD5E10920F028091800390918103AC
:105A4000A0918203B09183038093560290935702F2
:105A5000A0935802B093590280917E0390917F03E6
:105A600090937602809375020F94546B60938B052C
:105A700070938C0580938D0590938E050E94B1BE26
:105A80000C949F468091590F8F778093590F0C94F7
:105A90009F468091590F80688093590F0C949F46C0
:105AA000809193059091940560E070E001960F94C9
:105AB0008998D7016D937D938D939C9313971330A1
:105AC00091F0CC24C3941F5FB4E0EB0EF11C1430B2
:105AD00061F0F40161914F018B2D9D2D0F94517E4A
