:100000000C942B280C945C280C945C280C945C2891
:100010000C945C280C945C280C945C280C945C2850
:100020000C945C280C945C280C945C280C945C2840
:100030000C945C280C945C280C945C280C945C2830
:100040000C945C280C9495B70C945C280C945C2858
:100050000C945C280C945C280D94777F0D94C56AF1
:100060000C945C280D94E7320C945C280C945C286A
:100070000C945C280C945C280C945C280C945C28F0
:100080000C945C280C945C280C945C280C945C28E0
:100090000C945C280C945C280C945C280C9470C51F
:1000A0000C945C280C945C280C945C280C945C28C0
:1000B0000C945C280C945C280C945C280C945C28B0
:1000C0000C945C280C945C280C945C280C945C28A0
:1000D0000C945C280C945C280C945C280C945C2890
:1000E0000C945C2848454B454F45534557455B4567
:1000F00051465F456345684551466D4573457745B3
:100100007B457F458345514687458B459145514603
:100110009745AD45AF45BD45BF45C145C345C945FB
:10012000CB45CD45CF45D945DB45DD45DF45E545EB
:10013000E745514651465146514651465146514672
:1001400051465146514651465146514651465146F7
:1001500051465146514651465146514651465146E7
:1001600051465146514651465146514651465146D7
:1001700051465146514651465146514651465146C7
:1001800051465146514651465146514651465146B7
:1001900051465146514651465146514651465146A7
:1001A000514651465146514651465146F145124637
:1001B000EA4DEA4DF24DFA4D0A4E124E1A4E224EBB
:1001C0002A4E024EAE01C002B601D201F60168010C
:1001D00002025C01AC0274022602B4023403020380
:1001E0006801D8024C038A016A01DA0196028A0288
:1001F000D6013A03360358017A010802FE0186024D
:100200007202B2013A031C032E02F802084AD73BDD
:100210003BCE016E84BCBFFDC12F3D6C74319ABDD5
:1002200056833DDA3D00C77F11BED9E4BB4C3E91F9
:100230006BAAAABE000000803F05A84CCDB2D44EE8
:10024000B93836A9020C50B9918688083CA6AAAAEA
:100250002ABE000000803F000D9425660D94EE0C30
:100260000D94F8040D94FA170D94CC230D94C20C40
:100270000D94CD0E0D94621C0D9414550D94A70C85
:100280000D949D540D9425190D94D3740D9425232C
:100290000D9412060D94B63B0D9434550D948A724C
:1002A0000D942B750D94B4720D9422280D94012B8E
:1002B0000D9471690D941C3C0D949B680D94EF0F87
:1002C0000D9483450D94ED7B0D9423640D94171AC2
:1002D0000D94CA680D9441690D9466790D94762C3D
:1002E0000D94DE1D0D94CB0A0D94A5540D949263CC
:1002F0000D946E580D9479690D94A8030D94262DD4
:100300000D94DD180D94AF460D9452030D94BC7CF2
:100310000D9426310D94C5680D94787B0D9465720B
:100320000D94EE2E0D9441290D9466580D94584964
:100330000D9461560D942D0E0D949F180D94A92ABD
:100340000D94C92A0D94BE0C0D9453670D94B60CF0
:100350000D94871E0D94552D0D9496130D94906851
:100360000D940A0F0D94B0690D9466020D94826885
:100370000D9493670D949E2B0D94AF0D0D94F46620
:100380000D9465110D94EC2B0D9492130D94C055A2
:100390000D940D1B0D94512C0D94200D0D949B4725
:1003A0000D9408490D9486680D94EB400D945F6997
:1003B0000D94CC420D9446690D942C470D94D45461
:1003C0000D949D0E0D94D3780D9408520D9476746F
:1003D0000D946D7C0D945C170D94F72C0D94D80C36
:1003E0000D9447240D940C070D94002F0D948A68EA
:1003F0000D94C21A0D9489290D94F32B0D948D69D7
:100400000D9448740D9497680D9401480D94F21D55
:100410000D9483690D9414180D9460250D949D49D5
:100420000D943A580D9410180D949C550D945E58E7
:100430000D94DC2E0D9410120D9472580D947C23A3
:100440000D94AB200D946D020D94A80D0D94A96828
:100450000D94B22C0D94E4550D94152F0D94C46990
:100460000D94C6220D94543E0D9482220D947D303D
:100470000D944E2B0D94D3030D9456700D94126A67
:100480000D948A7D0D9476580D94E0710D94712A27
:100490000D94FA2B0D9456510D946D300D94FB2153
:1004A0000D942A2F0D94B4540D9463190D94E20BFE
:1004B0000D9405740D94F7230D94392A0D9405714C
:1004C0000D9474020D94BC120D943F1F0D94216481
:1004D0000D944E160D948E100D94E1290D943E4608
:1004E0000D94A9290D94A6690D94A5680D94BC1CC2
:1004F0000D9460160D94FD500D94432C0D94F4044E
:100500000D94F5650D94980C0D9430750D949769C4
:100510000D9432560D9455690D9403180D94681A74
:100520000D94E60D0D94973D0D94C40B0D944B69FD
:100530000D948A660D94942C0D94773D0D94BD63B3
:100540000D940D460D94C5220D94AF510D949378E2
:100550000D9420400D946D0E0D94A1680D943E12E3
:100560000D9454550D94E31C0D94AF680D94582CC4
:100570000D9478700D9445230D9490660D94E424A9
:100580000D9493680D94AB0D0D94AF430D940F270C
:100590000D94EC120D94D9250D94B8220D94F87891
:1005A0000D9478550D94000C0D94D8110D94901560
:1005B0000D94BD680D94D22C0D94497A0D94981C1D
:1005C0000D94AE470D9457160D94FF210D94F145EF
:1005D0000D9474560D94200C0D9403560D947D03C8
:1005E0000D94B4190D942B960D949B250D945A13CC
:1005F0000D94CE690D94EB7C0D947F460D94E443ED
:100600000D94FF950D94B7680D94D6050D942F7930
:100610000D9496480D9401440D942D3F0D9445166C
:100620000D9481170D940C180D944A2C0D94542F91
:100630000D9425250D94B4050D94BA690D94924836
:100640000D948B320D9472240D94A0480D943A159C
:100650000D9416740D94470F0D94842D0D94B44D84
:100660000D94A7170D94F4540D94B3680D94696913
:100670000D943D0E0D94D8690D9460780D945353EC
:100680000D94FB7A0D94A50D0D94192A0D94640414
:100690000D94F22C0D94AD3C0D94C1680D94392B42
:1006A0000D9451490D94F8050D94B32D0D9498793E
:1006B0000D94911B4E414E494E495459494E46CDD9
:1006C000CCCC3D0AD7233C17B7D13877CC2B329509
:1006D00095E6241FB14F0A000020410000C84200E7
:1006E000401C4620BCBE4CCA1B0E5AAEC59D74436E
:1006F000617264206572726F723A004E6F7420539B
:1007000044207072696E74696E67002F0053442034
:100710007072696E74696E67206279746520002E4C
:100720000044656C6574696F6E206661696C656410
:100730002C2046696C653A200046696C652064652A
:100740006C657465643A002E006F70656E2066619A
:10075000696C65642C2046696C653A20006F6B00FB
:100760000D0A003F0054696E6B65725F4458555F17
:1007700031372E3130000D0A00556E6B6E6F776E7B
:1007800020636F6D6D616E643A2000544553540DC3
:100790000A002200556E6B6E6F776E20636F6D6D71
:1007A000616E643A202200456C656374726F6E69F5
:1007B00063735F7465737400416374697665204583
:1007C000787472756465723A2000496E76616C695E
:1007D0006420657874727564657200540020423A32
:1007E000300020423A31006F6B20523A007265733C
:1007F000756D650020643A0020693A0020703A0067
:100800006F6B0020643A0020693A0020703A006F54
:100810006B002C002000486F74656E64206F666664
:10082000736574733A002200556E6B6E6F776E209D
:10083000636F6D6D616E643A2022006F70656E00AB
:10084000545249474745524544007A5F6D61783AB2
:1008500020006F70656E0054524947474552454429
:1008600000795F6D61783A20006F70656E005452B8
:100870004947474552454400785F6D696E3A20000C
:100880005265706F7274696E6720656E6473746F01
:10089000702073746174757300453A005A3A0059B8
:1008A0003A0020436F756E7420583A2000453A0094
:1008B0005A3A00593A00583A004649524D57415267
:1008C000455F4E414D453A4D61726C696E20556CE5
:1008D00074696D616B6572323B20537072696E741E
:1008E00065722F6772626C206D6173687570206627
:1008F0006F722067656E36204649524D574152450A
:100900005F55524C3A687474703A2F2F6769746857
:1009100075622E636F6D2F556C74696D616B6572B6
:100920002050524F544F434F4C5F56455253494FFE
:100930004E3A312E30204D414348494E455F54597F
:1009400050453A556C74696D616B65722045585419
:1009500052554445525F434F554E543A320A003F78
:100960000020573A002569206D696E2C20256920EA
:1009700073656300456E642066696C65206C6973FD
:100980007400426567696E2066696C65206C6973E6
:100990007400726573756D650070617573650043F1
:1009A0005045004350450041425300504C410043E4
:1009B0005045004350450055504554002020506C90
:1009C000616E6E65724275666665724279746573B2
:1009D0003A20002046726565204D656D6F72793A48
:1009E0002000466562203230203230323000436FC2
:1009F0006D70696C65643A200054696E6B65725F56
:100A00004458555F31372E313000207C20417574B9
:100A1000686F723A200046656220323020323032F0
:100A2000302032323A33373A343000204C6173741C
:100A300020557064617465643A2000312E302E3088
:100A4000004D61726C696E200020536F667477618F
:100A50007265205265736574002057617463686421
:100A60006F67205265736574002042726F776E2045
:100A70006F757420526573657400204578746572D3
:100A80006E616C20526573657400506F77657255A6
:100A900070007374617274004E6F204C696E652033
:100AA0004E756D626572207769746820636865634E
:100AB0006B73756D2C204C617374204C696E653AB4
:100AC00020005072696E7465722073746F70706567
:100AD000642064756520746F206572726F72732E66
:100AE0002046697820746865206572726F72206193
:100AF0006E6420757365204D39393920746F20720A
:100B00006573746172742E202854656D706572610E
:100B1000747572652069732072657365742E205335
:100B200065742069742061667465722072657374DF
:100B3000617274696E6729004E6F20436865636B4C
:100B400073756D2077697468206C696E65206E75A9
:100B50006D6265722C204C617374204C696E653A2D
:100B60002000636865636B73756D206D69736D61DB
:100B70007463682C204C617374204C696E653A2054
:100B8000004C696E65204E756D6265722069732038
:100B90006E6F74204C617374204C696E65204E75C5
:100BA0006D6265722B312C204C617374204C696E20
:100BB000653A20004D313130006563686F3A002599
:100BC0006920686F757273202569206D696E757470
:100BD000657300446F6E65207072696E74696E672C
:100BE0002066696C6500000021104220633084405B
:100BF000A550C660E770088129914AA16BB18CC1EC
:100C0000ADD1CEE1EFF13112100273325222B55262
:100C10009442F772D662399318837BB35AA3BDD33B
:100C20009CC3FFF3DEE36224433420040114E66432
:100C3000C774A44485546AA54BB528850995EEE58B
:100C4000CFF5ACC58DD55336722611163006D77642
:100C5000F6669556B4465BB77AA719973887DFF7DB
:100C6000FEE79DD7BCC7C448E5588668A77840080A
:100C7000611802282338CCC9EDD98EE9AFF948892B
:100C800069990AA92BB9F55AD44AB77A966A711AA2
:100C9000500A333A122AFDDBDCCBBFFB9EEB799B7B
:100CA000588B3BBB1AABA66C877CE44CC55C222CF2
:100CB000033C600C411CAEED8FFDECCDCDDD2AADCB
:100CC0000BBD688D499D977EB66ED55EF44E133E82
:100CD000322E511E700E9FFFBEEFDDDFFCCF1BBF1B
:100CE0003AAF599F788F8891A981CAB1EBA10CD1F5
:100CF0002DC14EF16FE18010A100C230E3200450FD
:100D0000254046706760B9839893FBA3DAB33DC36F
:100D10001CD37FE35EF3B1029012F322D23235424C
:100D2000145277625672EAB5CBA5A89589856EF5FF
:100D30004FE52CD50DC5E234C324A014810466749C
:100D4000476424540544DBA7FAB79987B8975FE74F
:100D50007EF71DC73CD7D326F2369106B0165766EC
:100D60007676154634564CD96DC90EF92FE9C899D7
:100D7000E9898AB9ABA94458654806782768C0183C
:100D8000E1088238A3287DCB5CDB3FEB1EFBF98BAF
:100D9000D89BBBAB9ABB754A545A376A167AF10A8C
:100DA000D01AB32A923A2EFD0FED6CDD4DCDAABDBF
:100DB0008BADE89DC98D267C076C645C454CA23CDC
:100DC000832CE01CC10C1FEF3EFF5DCF7CDF9BAF8F
:100DD000BABFD98FF89F176E367E554E745E932E2C
:100DE000B23ED10EF01E7C3C3E5E2B3D3F2F5B5D44
:100DF0003B2C2A225C002062797465732066726540
:100E00006500476F20746F3A00737570706F72746D
:100E100000455230370058206F722059207377698F
:100E200074636820737475636B00455230370058E3
:100E3000206F722059207377697463682062726F23
:100E40006B656E0045523036005A207377697463C3
:100E50006820737475636B0045523035005A2073F7
:100E600077697463682062726F6B656E00455230FB
:100E700034005361666574792063697263756974BF
:100E800000455230330048656174657220657272A6
:100E90006F7200455230320054656D702073656E7C
:100EA000736F722042454400455230310054656DE5
:100EB000702073656E736F72004552524F52202D31
:100EC0002053544F5050454400756C74696D616BEC
:100ED00065722E636F6D2F0054696E6B65725F448F
:100EE00058555F31372E313000801506060606FE54
:100EF000FEFEFEFC00000000000000FCFEFEFEFC0A
:100F00000000000EFEFEFEFE0000E0FCFEFEFCE027
:100F1000E0000000CECECE000000C0C0C0C0C0C007
:100F20008000000000000080C0C0800000000000C1
:100F3000008080C0C0C0C0C0C0C080800000000071
:100F400006FEFEFEFE0000000080C0C0C0000000E3
:100F50000000008080C0C0C080808000000000C011
:100F6000C0C0C00080C0C0C0C08000000000007FC2
:100F7000FFFFFFFF80000000000080FFFFFFFFFF7A
:100F800000000000FFFFFFFF000000FFFFFFFF0069
:100F900000000000FFFFFF00000081F1FFFF3F0F96
:100FA0003FFFFCF0F0FCFF3F0F3FFFFEF88000002A
:100FB00000C1E1F1F17131010183FFFFFFFC00008D
:100FC00000FFFFFFFF000C3EFFFFF7C30100000022
:100FD000FCFEFF8703113131333F3F3F1E0000010C
:100FE000FFFFFFFF070301010101000000000000F7
:100FF000010307070F0F0F0F0F0F0F0707070F0F43
:1010000006000000070F0F07000000070F0F070082
:10101000000000000F0F0F0000060F0F0701000077
:101020000001070F0F070100000001070F0F060066
:101030000003070F0F0E0E060703070F0F07000030
:1010400000070F0F0700000000030F0F0F0600003E
:10105000000307070F0E0E0E0E0E0E060000000016
:101060000F0F0F0F00000000000000473120462541
:1010700069205A30004731204625692058256920CB
:1010800059256900473120462569205A3500746882
:1010900065206275696C64706C617465206C65763E
:1010A000656C2E00706170657220746F2066696EC9
:1010B000652D74756E65006E6F77207573652061A0
:1010C000207368656574206F660052657065617491
:1010D000207468697320737465702C2062757400C5
:1010E000372F323100434F4E54494E554500626907
:1010F0007420726573697374616E63652E00756E1A
:1011000074696C20796F75206665656C206100627A
:1011100075696C64706C61746520616E64206E6FBB
:101120007A7A6C6500536C69646520612070617027
:101130006572206265747765656E00382F32310004
:10114000434F4E54494E554500434F4E54494E551A
:101150004500746865206C65667420636F726E6507
:10116000722E2E2E0052657065617420746869734A
:1011700020666F7200392F323100434F4E54494E72
:1011800055450074686520726967687420636F72E2
:101190006E65722E2E2E0052657065617420746823
:1011A000697320666F720031302F323100434F4E29
:1011B00054494E554500444F4E4500746F20696EAA
:1011C00073657274206D6174657269616C2E007450
:1011D0006865206E6578742073746570206973008B
:1011E000746865206275696C64706C617465004E2A
:1011F0006F772074686174207765206C6576656C04
:1012000065640031312F323100434F4E54494E5501
:101210004500556C74696D616B6572322E00696EA4
:101220007365727420696E2074686973006D6174EF
:10123000657269616C20796F752077696C6C004EFE
:101240006578742C2073656C656374207468650020
:1012500031322F32310052454144590053656C659B
:10126000637420746865206D6174657269616C00D7
:10127000206173206D6174657269616C2C0031337B
:101280002F3231004D4154455249414C0069732081
:10129000746869732072696768743F00596F7520BC
:1012A000686176652063686F73656E0031342F3234
:1012B00031004E4F00594553006974206973207501
:1012C00073696E672E006F66206D61746572696167
:1012D0006C006B6E6F77732077686174206B696E3A
:1012E00064004E6F7720796F757220556C74696D4C
:1012F000616B6572320031352F323100434F4E54ED
:10130000494E5545006D6174657269616C206C6F62
:101310006164696E67007072696E746865616420EB
:1013200068656174696E6720666F7200506C6561F4
:10133000736520776169742C0031362F323100617A
:10134000626F766520746865206172726F772E0017
:10135000796F757220556C74696D616B6572322C92
:101360000066726F6D207468652072656172206F0F
:101370006600496E73657274206E6577206D6174C6
:10138000657269616C0031372F323100434F4E5422
:10139000494E5545004C6F6164696E67206D6174FC
:1013A000657269616C2E2E2E0031382F3231006645
:1013B000726F6D206E6F7A7A6C652E2E2E006D61C5
:1013C00074657269616C2065786974730050757317
:1013D0006820627574746F6E207768656E003139AD
:1013E0002F323100434F4E54494E5545006D616BCD
:1013F000652061203344205072696E7421004927B2
:101400006D207265616479206C65742773003230D9
:101410002F32310041524520594F55205245414409
:10142000593F00746F207072696E742069742100D6
:10143000616E6420707265737320746865206275D4
:1014400074746F6E006F6E207468652053442D6352
:101450006172640053656C65637420612070726909
:101460006E742066696C650032312F3231004C4554
:10147000542753205052494E540052656164696E9E
:101480006720636172642E2E2E0032312F323100BC
:10149000796F757220556C74696D616B6572322E4F
:1014A0002E2E00746861742063616D652077697405
:1014B0006800506C6561736520696E736572742095
:1014C00053442D636172640032312F3231001F00AA
:1014D0001F001F2F004275696C64706C6174652079
:1014E000001F001F001F2F004E6F7A7A6C65283294
:1014F0002920001F001F001F2F004E6F7A7A6C6595
:1015000028312920006F6666006F6E004275696C95
:1015100064706C6174653A20006F6666006F6E00DF
:101520004E6F7A7A6C652832293A20006F66660021
:101530006F6E004E6F7A7A6C652831293A2000422E
:1015400041434B004241434B0052657475726E201B
:10155000746F206D61696E206D656E7500434F4F2D
:101560004C00434F4F4C00436F6F6C20646F776E9D
:1015700020616C6C005052494E54005052494E54F8
:10158000005374617274207072696E7400507269D5
:101590006E7465722068616C7465642E206B696C72
:1015A0006C28292063616C6C656421005072696E3F
:1015B0007465722073746F70706564206475652043
:1015C000746F206572726F72732E20466978207472
:1015D0006865206572726F7220616E642075736534
:1015E000204D39393920746F2072657374617274BB
:1015F0002E202854656D706572617475726520695E
:10160000732072657365742E20536574206974208D
:1016100061667465722072657374617274696E6755
:101620002900496E76616C6964206578747275640E
:101630006572004D00456E6473746F702073746939
:101640006C6C20707265737365642061667465727A
:10165000206261636B696E67206F66662E20456E3F
:101660006473746F7020737475636B3F000000E0E7
:10167000400000E0400000E040456E6473746F700D
:10168000206E6F7420707265737365642061667478
:10169000657220686F6D696E6720646F776E2E20AB
:1016A000456E6473746F702062726F6B656E3F007D
:1016B000456E6473746F70206E6F74207072657302
:1016C00073656420616674657220686F6D696E670A
:1016D00020646F776E2E20456E6473746F70206285
:1016E000726F6B656E3F004572726F723A00FF0158
:1016F000014163746976652045787472756465721A
:101700003A20004163746976652045787472756487
:1017100065723A200048656164657220706F736974
:1017200074696F6E206E6F7420796574206B6E6FB4
:10173000776E00250046616E3A2000430043002585
:1017400000466C6F773A006D6D004D41544552492B
:10175000414C00696E204D4154455249414C2E5434
:10176000585400746F20746865205344206361727C
:1017700064005361766564206D6174657269616CA3
:1017800073004F6B000A006469616D657465723D9A
:10179000000A00666C6F773D000A0066616E5F7339
:1017A000706565643D000A006265645F74656D7014
:1017B000657261747572653D000A003D0074656D67
:1017C00070657261747572655F000A0074656D7092
:1017D000657261747572653D000A006E616D653DEC
:1017E000005B6D6174657269616C5D0A00526561D0
:1017F00064696E6720636172642E2E2E00506C65E2
:1018000061736520696E7365727420636172640030
:101810004E6F2053442D43415244210066726F6D38
:10182000207468652053442063617264004C6F61CA
:10183000646564206D6174657269616C73004F6BDF
:101840000074656D70657261747572655F006469BE
:10185000616D6574657200666C6F770066616E5FBE
:101860007370656564006265645F74656D70657250
:1018700061747572650074656D70657261747572FE
:1018800065006E616D65005B6D6174657269616CA8
:101890005D00466F756E64206F6E20636172642E0A
:1018A000004E6F206578706F72742066696C6500F9
:1018B00052656164696E6720636172642E2E2E002A
:1018C000506C6561736520696E7365727420636125
:1018D0007264004E6F2053442D434152442100490D
:1018E0006D706F72742066726F6D2053440045787E
:1018F000706F727420746F20534400437573746F5B
:101900006D697A6500250046616E3A200043004308
:10191000002500466C6F773A006D6D004C6F616476
:101920007320616C6C206D6174657269616C730009
:10193000536176657320616C6C206D6174657269AA
:10194000616C73004D6F64696679207468652073FB
:10195000657474696E6773004D4154455249414C3A
:1019600000666F722065787472756465722032004B
:10197000666F7220657874727564657220310053E9
:10198000656C6563746564206D6174657269616C12
:101990003A004F4B0053746F726520617320707270
:1019A0006573657400466C6F7720250046616E0094
:1019B0004469616D65746572004865617465642091
:1019C0006275696C64706C6174650054656D7065F6
:1019D00072617475726500250025006D6D0043000D
:1019E00043200043200025004D6174657269616CDD
:1019F00020666C6F7700250046616E207370656508
:101A000064006D6D004D6174657269616C2044699C
:101A1000616D657465720043004275696C64706C39
:101A20006174652054656D702E004D4154455249D6
:101A3000414C0054656D70657261747572653A2031
:101A4000004300430054656D706572617475726582
:101A5000004D4154455249414C004E65772070720B
:101A600065736574005052455345545300435045C7
:101A70000041425300504C41006D6D005A005A2005
:101A80006F6666736574002800290059206F6666CA
:101A9000736574206C696E65206E6F2E006D6D002D
:101AA000590059206F666673657400280029005834
:101AB000206F6666736574206C696E65206E6F2E8C
:101AC000006D6D00580058206F6666736574005293
:101AD000455455524E00436C69636B20746F2072FD
:101AE000657475726E0053544F52450053746F7293
:101AF00065206F66667365747300457874727564EB
:101B00006572206F6666736574004D383420582006
:101B100059006D6D005900646F636B20706F7369BD
:101B200074696F6E2079005800646F636B20706F6A
:101B3000736974696F6E20780043414E43454C00D1
:101B400041626F72742066756E6374696F6E0053C4
:101B5000544F52450053746F726520646F636B205D
:101B6000706F736974696F6E00446F636B696E6741
:101B700020706F736974696F6E0050726570617266
:101B8000696E672E2E2E006D6D005900646F636BB9
:101B900020706F736974696F6E2079006D6D0058E5
:101BA00000646F636B20706F736974696F6E207867
:101BB0000052455455524E00436C69636B20746F5C
:101BC0002072657475726E004D4F5645004D6F76EC
:101BD0006520686561640053544F52450053746F2B
:101BE000726520646F636B20706F736974696F6EC8
:101BF00000446F636B696E6720706F736974696FFF
:101C00006E006D6D0059007769706520706F7369A3
:101C100074696F6E2079006D6D005800776970658A
:101C200020706F736974696F6E2078005245545547
:101C3000524E00436C69636B20746F20726574753B
:101C4000726E0053544F52450053746F7265207783
:101C500069706520706F736974696F6E0050726986
:101C60006D652F5769706520706F736974696F6E49
:101C70000047323820583020593000473238205A37
:101C80003000473238005072696E7420706175738D
:101C900065642E20436865636B20666565646572C4
:101CA0002E006563686F3A004D6174657269616CFE
:101CB000207472616E73706F7274206973737565CE
:101CC0002064657465637465642E004572726F727A
:101CD0003A00436865636B206665656465722E0033
:101CE0005072696E74207061757365642E0069733B
:101CF0007375652064657465637465642E004D6159
:101D000074657269616C207472616E73706F727445
:101D100000434F4E54494E55450020746F6F206C60
:101D20006F6E6720657874727573696F6E2070725C
:101D30006576656E7465640020636F6C64206578F9
:101D400074727573696F6E2070726576656E7465F6
:101D500064006563686F3A00570045787472756473
:101D600065722032003200576174746167652045E6
:101D7000787472756465720057003100457874722A
:101D80007564657200310057617474616765204540
:101D9000787472756465720057004275696C64707E
:101DA0006C61746500576174746167652042756980
:101DB0006C64706C617465005700546F74616C00E2
:101DC000546F74616C20506F776572204275646740
:101DD0006574004241434B004241434B00436C69F0
:101DE000636B20746F2072657475726E0053544F6C
:101DF00052450053746F7265206F7074696F6E7313
:101E000000506F7765722042756467657400205AD0
:101E10003A0020593A0020583A00656E6473746F96
:101E20007073206869743A20006563686F3A002413
:101E3000F4D43050C38E20C2A24017828B7011128E
:101E40007A910D816CD90AA861E108C758660761CB
:101E50005143061E4B5D05C145A7041A41110409F3
:101E60003D9803713931034036DB0265339102D46A
:101E7000305402802E1D02632CEE01752AC501B07C
:101E800028A001102781018F2564012B244B01E03C
:101E9000223401AC211F018D200D01801FFC008424
:101EA0001EED00971DDF00B81CD200E61BC6002007
:101EB0001BBC00641AB200B219A8000A19A0006A7B
:101EC000189900D117910040178B00B51684003186
:101ED000167E00B31579003A157300C7146F0058C9
:101EE000146A00EE1366008813630025135E00C7B2
:101EF000125B006C12570015125400C11151007092
:101F0000114F0021114B00D61049008D104700469B
:101F100010440002104200C00F4000800F3E0042FB
:101F20000F3C00060F3B00CB0E3800930E37005CD1
:101F30000E3500270E3400F30D3200C10D31009034
:101F40000D3000600D2E00320D2D00050D2C00D936
:101F50000C2B00AE0C2900850C29005C0C270035E9
:101F60000C27000E0C2600E80B2400C40B2400A054
:101F70000B23007D0B23005A0B2100390B21001885
:101F80000B2000F80A1F00D90A1E00BB0A1E009D84
:101F90000A1D00800A1D00630A1C00470A1B002C52
:101FA0000A1B00110A1A00F7091A00DD091900C4FA
:101FB000091900AB091900920917007B0918006381
:101FC0000917004C09160036091600200916000AE8
:101FD000091500F5081500E0081400CC081400B835
:101FE000081400A4081400900813007D0812006B68
:101FF0000813005808120046081200340811002384
:102000000811001208110001081100F0071000E08B
:10201000071000D0071000C0071000B0070F00A184
:1020200007100091070E0083070F0074070F00656B
:10203000070E0057070E0049070E003B070D002E44
:10204000070E0020070D0013070D0006070D00F90D
:10205000060C00ED060D00E0060C00D4060C00C8CE
:10206000060C00BC060C00B0060C00A4060B009980
:10207000060C008D060B0082060B0077060B006C29
:10208000060B0061060A0057060B004C060A0042C8
:10209000060A0038060A002E060A0024060A001A5C
:1020A000060A001006090007060A00FD050900F4EB
:1020B000050900EB050900E2050900D9050900D072
:1020C000050900C7050900BE050900B5050800ADF2
:1020D000050800A50509009C050800940508008C6A
:1020E000050800840508007C050800740508006CDC
:1020F000050700650508005D050700560508004E48
:1021000005070047050700400508003805070031AE
:102110000507002A050700230507001C0506001611
:102120000507000F0507000805060002050700FB6C
:10213000040600F5040700EE040600E8040600E2C9
:10214000040700DB040600D5040600CF040600C91E
:10215000040600C3040600BD040600B7040600B16F
:10216000040500AC040600A6040600A00405009BBC
:1021700004060095040500900406008A0405008505
:10218000040500800406007A04050075040500704B
:102190000405006B04050066040500610405005C8D
:1021A00004050057040500520405004D04050048CD
:1021B000040500430405003E0404003A040500350C
:1021C000040500300404002C040500270404002347
:1021D0000405001E0404001A04040016040500117E
:1021E0000404000D040400090405000404040000B4
:1021F000040400FC030400F8030400F4030400F0EA
:10220000030400EC030400E8030400E4030400E01A
:10221000030400DC030400D8030400D4030400D04A
:10222000030400CC030400C8030300C50303002417
:10223000F404D9201BC40C5C0E9804C4095F026529
:10224000077101F405F900FB04B30048048700C1DD
:102250000369005803550003034500BE023A008499
:1022600002310053022A002902250004022000E462
:10227000011C00C8011900AF011700980114008467
:10228000011300710110006101100051010E0043A3
:10229000010D0036010B002B010B0020010B001576
:1022A0000109000C01090003010800FB000800F30C
:1022B000000800EB000700E4000600DE000600D87E
:1022C000000600D2000600CC000500C7000500C2D1
:1022D000000500BD000400B9000400B5000400B111
:1022E000000400AD000400A9000400A5000300A242
:1022F0000003009F0004009B00030098000300956A
:1023000000020093000300900003008D0002008B88
:1023100000030088000200860002008400030081A0
:102320000002007F0002007D0002007B00020079B5
:1023300000020077000100760002007400020072C3
:10234000000100710002006F0002006D0001006CCE
:102350000002006A000100690002006700010066D7
:1023600000010065000100640002006200010061DC
:10237000000100600001005F0002005D0001005CE0
:102380000001005B0001005A0001005900010058E3
:1023900000010057000100560001005500010054E3
:1023A00000010053000000530001005200010051E1
:1023B000000100500001004F0001004E0000004EDF
:1023C0000001004D0001004C0001004B0000004BDB
:1023D0000001004A000100490001004800000048D7
:1023E00000010047000100460000004600010045D2
:1023F00000000045000100440001004300000043CC
:1024000000010042000000420001004100000041C4
:10241000000100400001003F0000003F0001003EBD
:102420000000003E0001003D0000003D0001003CB6
:102430000000003C0000003C0001003B0000003BAD
:102440000001003A0000003A0001003900000039A4
:10245000000100380000003800000038000100379B
:102460000000003700010036000000360000003692
:102470000001003500000035000000350001003487
:10248000000000340000003400010033000000337D
:102490000000003300010032000000320000003272
:1024A0000001003100000031000000310001003067
:1024B00000000030000000300001002F0000002F5D
:1024C0000000002F0000002F0001002E0000002E51
:1024D0000000002E0001002D0000002D0000002D46
:1024E0000000002D0001002C0000002C0000002C3A
:1024F0000000002C0001002B0000002B0000002B2E
:102500000000002B0001002A0000002A0000002A21
:102510000000002A00010029000000290000002915
:102520000000002900000029000100280000002808
:1025300000000028000000280000002800010027FB
:1025400000000027000000270000002700000027EF
:1025500000010026000000260000002600000026E2
:1025600000000026000100250000002500000025D5
:1025700000000025000000250000002500010024C7
:1025800000000024000000240000002400000024BB
:1025900000010023000000230000002300000023AE
:1025A000000000230000002300000023000100229F
:1025B0000000002200000022000000220000002293
:1025C0000000002200010021000000210000002185
:1025D0000000002100000021000000210000002177
:1025E000000100200000002000000020000000206A
:1025F000000000200000002000000020000000205B
:102600000001001F0000001F0000001F0000001F4D
:102610000000001F0000001F0000001F0001001E3E
:102620000000001E0000001E0000001E0000005000
:102630004944204175746F74756E652061626F72D4
:102640007465642E00504944204175746F74756E32
:10265000652066696E697368656421205075742011
:10266000746865204B702C204B6920616E64204B90
:102670006420636F6E7374616E747320696E746F1F
:1026800020436F6E66696775726174696F6E2E683C
:1026900000504944204175746F74756E6520666101
:1026A000696C6564212074696D656F7574002040E4
:1026B0003A006F6B20543A006F6B20423A00504949
:1026C00044204175746F74756E65206661696C6530
:1026D00064212054656D7065726174757265207433
:1026E0006F6F206869676800204B643A2000204BB8
:1026F000693A2000204B703A200020436C617373CC
:1027000069632050494420002054753A2000204B32
:10271000753A2000206D61783A2000206D696E3A8C
:10272000200020643A200020626961733A20005042
:102730004944204175746F74756E652073746172BD
:102740007400504944204175746F74756E6520663D
:1027500061696C65642E20426164206578747275CD
:10276000646572206E756D6265722E0043414E4342
:10277000454C003C2052455455524E0050726576EF
:102780003A2000432000432F0048656174696E675A
:10279000207072696E74686561640011150A00002A
:1027A00019151200000609090600000000000000CB
:1027B000005F00000007000700147F147F14242A24
:1027C0007F2A1223130864623649552250000503FC
:1027D0000000001C2241000041221C00082A1C2A83
:1027E0000808083E080800503000000808080808DB
:1027F000006060000020100804023E5149453E0080
:10280000427F400042615149462141454B311814F5
:10281000127F1027454545393C4A49493001710925
:1028200005033649494936064949291E003636000E
:102830000000563600000008142241141414141429
:1028400041221408000201510906324979413E7EB5
:102850001111117E7F494949363E414141227F4154
:1028600041221C7F494949417F090901013E4141FB
:1028700051327F0808087F00417F41002040413FDE
:10288000017F081422417F404040407F0204027FC4
:102890007F0408107F3E4141413E7F090909063E01
:1028A0004151215E7F0919294646494949310101B3
:1028B0007F01013F4040403F1F2040201F7F2018E4
:1028C000207F6314081463030478040361514945AD
:1028D0004300007F4141020408102041417F000075
:1028E0000402010204404040404000010204002074
:1028F000545454787F48444438384444442038443D
:1029000044487F3854545418087E0901020814546E
:10291000543C7F0804047800447D40002040443D3E
:1029200000007F10284400417F40007C0418047898
:102930007C0804047838444444387C14141408088F
:102940001414187C7C080404084854545420043F90
:102950004440203C4040207C1C2040201C3C403017
:10296000403C44281028440C5050503C4464544C83
:1029700044000836410000007F0000004136080096
:1029800008082A1C08081C2A08084731300047316B
:10299000205A256420462564003C204241434B00D8
:1029A0004E6F20696E666F20617661696C61626C42
:1029B00065002F004E6F7A7A6C6520006D006D0007
:1029C0006D006D004D61742E200068006D696E0011
:1029D00054696D6520003B4D54595045323A003BD7
:1029E0004E4F5A5A4C455F4449414D455445523229
:1029F0003A003B4D4154455249414C323A003B4D1F
:102A0000545950453A003B4E4F5A5A4C455F444941
:102A1000414D455445523A003B4D41544552494180
:102A20004C3A003B54494D453A00466F6C64657220
:102A30000043616E6E6F7420656E746572207375ED
:102A4000626469723A200053442043415244003B7F
:102A5000464C41564F523A556C746947436F646512
:102A6000003B464C41564F523A556C746947436F90
:102A70006465004E6F2066696C657320666F756EC5
:102A80006421004F4B004F4B0052656164696E67D3
:102A900020636172642E2E2E00506C656173652078
:102AA000696E736572742063617264004E6F2053A7
:102AB000442D434152442100507265706172696E29
:102AC0006720746F207072696E743A004865617493
:102AD000696E672075702E2E2E0041424F525400B1
:102AE00054554E450025004272696768746E6573DF
:102AF000730025004D6174657269616C20666C6FAE
:102B00007720320025004D6174657269616C206622
:102B10006C6F77203100250046616E20737065650B
:102B2000640025005072696E7420737065656400DE
:102B300054554E450045787472756465722063681B
:102B4000616E6765206C656E00456E64206F66205F
:102B50007072696E74206C656E677468005265747B
:102B6000726163742073706565640052657472618C
:102B70006374206C656E677468006D6D006D6D2FF9
:102B8000736563006D6D006D6D2F73656300526535
:102B90007472616374207370656564006D6D0052BA
:102BA000657472616374206C656E67746800524569
:102BB0005452414354494F4E004D36303120582530
:102BC0007520592575205A2575204C2573004241E2
:102BD000434B004241434B0054554E450054554E23
:102BE000450041424F52547C0005083E3E003E3EA7
:102BF00050415553457C0041424F52540041424F91
:102C000052540054554E450054554E45004D4154C4
:102C1000455249414C004348414E47450007081C76
:102C2000224A524C201F4D4154455249414C0043C9
:102C300048414E47450005087F7F3E1C08524553DA
:102C4000554D457C0050415553494E477C006D6DB4
:102C50002F730045004D61782E20737065656420E8
:102C600045006D6D2F73005A004D61782E207370F2
:102C7000656564205A006D6D2F730059004D6178B1
:102C80002E2073706565642059006D6D2F73005898
:102C9000004D61782E2073706565642058004241B4
:102CA000434B004241434B00436C69636B20746F9C
:102CB0002072657475726E0053544F524500537400
:102CC0006F72652073657474696E6773004D617807
:102CD0002E205370656564006D6D2F7300582F5959
:102CE000204A65726B004D61782E20582F59204A7A
:102CF00065726B006D6D2F731E00416363656C0020
:102D0000416363656C65726174696F6E0042414333
:102D10004B004241434B00436C69636B20746F204E
:102D200072657475726E0053544F52450053746F40
:102D300072652073657474696E67730041636365BF
:102D40006C65726174696F6E006F666600207365F2
:102D500063004D61782E20706F7765720050657248
:102D6000696F64206F66206D61782E20706F7765C3
:102D700072006F666600206D696E0054696D656F44
:102D800075740049646C652074696D656F757400B5
:102D90004241434B004241434B00436C69636B200B
:102DA000746F2072657475726E0053544F524500F3
:102DB00053746F7265206F7074696F6E730048652D
:102DC0006174657220636865636B0043414E4345DF
:102DD0004C0054696D656F7574006661696C65645B
:102DE0002100504944204175746F74756E6500541C
:102DF000656D706572617475726520746F6F20689F
:102E0000696768006661696C656421005049442007
:102E10004175746F74756E650074686520736574B0
:102E200074696E67732E00596F752063616E20732D
:102E3000746F72650066696E69736865642100501D
:102E40004944204175746F74756E6500434F4E544C
:102E5000494E5545001F001F2F004275696C647074
:102E60006C617465004578747275646572001F004A
:102E70001F2F002F002E005049442074756E696E7C
:102E800067004379636C65730074756E696E6720C3
:102E90006379636C6573001F0054656D70657261C2
:102EA000747572650074756E696E672074656D70F7
:102EB00065726174757265004241434B0042414343
:102EC0004B00436C69636B20746F2072657475727C
:102ED0006E0053544152540053746172742050492F
:102EE00044206175746F74756E6500504944207498
:102EF000756E65206F7074696F6E730045787472BB
:102F000075646572004275696C64706C617465000B
:102F100053442063617264206F6B006F70656E5262
:102F20006F6F74206661696C656400766F6C756D97
:102F3000652E696E6974206661696C65640045720E
:102F4000726F723A00534420696E69742066616939
:102F50006C006563686F3A0057726974696E672028
:102F6000746F2066696C653A20002E006F70656E84
:102F7000206661696C65642C2046696C653A2000A6
:102F80002E006F70656E206661696C65642C20464A
:102F9000696C653A200046696C652073656C6563F1
:102FA000746564002053697A653A200046696C654F
:102FB000206F70656E65643A20002E006F70656E3C
:102FC000206661696C65642C2046696C653A200056
:102FD0006D6D005A005265636F766572207072697C
:102FE0006E742066726F6D005265636F7665722035
:102FF0006865696768740043414E43454C00436C03
:1030000069636B20746F2072657475726E00505224
:10301000494E54005374617274207072696E74006A
:103020005265636F766572207072696E74004D38F8
:1030300034004578706572742066756E6374696FCC
:103040006E730047323820583000473238205930EC
:103050000006082214082214086D6D2F73006D6D90
:1030600000486F6D65205A2061786973005A2061AD
:1030700078697320706F736974696F6E005A004DC0
:103080006F7665205A206178697300486F6D6520FE
:103090005920617869730059206178697320706FD5
:1030A000736974696F6E0059004D6F766520592001
:1030B0006178697300486F6D652058206178697385
:1030C0000058206178697320706F736974696F6E3E
:1030D0000058004D6F766520582061786973004272
:1030E00041434B004241434B00436C69636B207486
:1030F0006F2072657475726E0020414C4C00486FF1
:103100006D6520616C6C2061786573004D6F76652C
:103110002061786973004D383420583020593000D0
:103120004D3834205830205930004D383420583034
:103130002059300044697361626C652058592D73C1
:10314000746570706572730044697361626C6520A8
:1031500058592D7374657070657273004D6F766584
:10316000206865616420746F2066726F6E74004D14
:103170006F7665206865616420746F2066726F6E7B
:103180007400486F6D652068656164000708087CFD
:10319000466F467C08486F6D652068656164004233
:1031A00041434B004241434B00436C69636B2074C5
:1031B0006F2072657475726E0053656C6563742060
:1031C0006F7074696F6E001F001F2F001F002800B2
:1031D00029004E6F7A7A6C6528002920001F001F95
:1031E000001F0041424F52540041424F525400418F
:1031F000626F7274207072696E740054554E45008F
:1032000054554E450054756E65206D656E75001FF2
:103210000005082634081632250046616E001F009E
:103220001F000508609E819E6025006D6D2F730054
:103230005370656564200025006D6D1D2F73004679
:103240006C6F77283229200025006D6D1D2F7300CB
:10325000466C6F7728312920000B080808080808F9
:103260000808083E1C08476F746F2070616765206E
:103270003200436F6E74726F6C206F7074696F6E82
:103280007300546F67676C65204C4544006D6D2F6B
:103290007300582F59204A65726B004D61782E20BB
:1032A000582F59204A65726B006D6D2F731E0041B7
:1032B0006363656C00416363656C65726174696F1B
:1032C0006E006D6D2F730007087F7F5155457F7F1E
:1032D00052657472616374207370656564006D6D0E
:1032E0000007087F7F415F5F7F7F52657472616373
:1032F000740052657472616374206C656E677468E3
:103300000008080982F88484F88209546F67676CA2
:1033100065204C454400436F6E74726F6C206F7073
:1033200074696F6E730007086070381E0908040B1B
:1033300008081C3E0808080808080808476F746F4A
:1033400020706167652031005072696D65004578B5
:10335000747261207072696D696E6720286D6D29C5
:103360000053706565640052657472616374207304
:103370007065656420286D6D2F7329004C656E00A3
:1033800052657472616374206C656E20286D6D29BE
:103390000052455455524E00436C69636B20746F64
:1033A0002072657475726E0053544F524500537409
:1033B0006F726520726574726163742076616C75DA
:1033C000657300546F6F6C6368616E67652072652A
:1033D000747261637400290028006F666600656E70
:1033E00061626C6564005769706520646576696325
:1033F000653A005769706520646576696365006F9A
:10340000666600656E61626C656400546F6F6C6324
:1034100068616E67653A00546F6F6C6368616E67D0
:103420006520736372697074006F666600656E6113
:10343000626C6564004475616C206D6F64653A0070
:103440004475616C206D6F64650052455455524E51
:1034500000436C69636B20746F2072657475726EC3
:103460000053544F52450053746F72652064756168
:103470006C206D6F6465004475616C2073746174B9
:103480006500290041646A757374205A20286E6FA4
:103490007A7A6C6520005072696D652F5769706586
:1034A00020706F736974696F6E00446F636B696E2F
:1034B0006720706F736974696F6E004578747275F8
:1034C000646572206F666673657400546F6F6C6319
:1034D00068616E6765207265747261637400436829
:1034E000616E6765206578747275646572004475F5
:1034F000616C206D6F6465006F666600656E616269
:103500006C6564004D383420583020593000473104
:1035100020462569205A25692058256920592569A2
:1035200000205A30002059300020583000473238EF
:10353000004475616C20657874727573696F6E00F4
:10354000627574746F6E20746F20636F6E74696E31
:10355000756500556C74696D616B657221205072E0
:10356000657373207468650073746172747570207C
:103570006F6620796F75720057656C636F6D65209B
:10358000746F2074686520666972737400312F321D
:103590003100434F4E54494E554500473120462592
:1035A00069205A2569205825692059256900473224
:1035B00038205A30205830205930006275696C64C8
:1035C000706C6174652E006F662061646A75737437
:1035D000696E6720796F7572007468726F756768BD
:1035E000207468652070726F63657373004920777B
:1035F000696C6C20677569646520796F750043415B
:103600004E43454C00434F4E54494E5545004731BB
:1036100020462569205A2569006120666972737405
:103620002072756E2077697A6172642E0077616C02
:103630006B20796F75207468726F756768006669B2
:103640007273742073746172747570204920776985
:103650006C6C0042656361757365207468697320E2
:1036600069732074686500322F323100434F4E5425
:10367000494E554500473120462569205A25692085
:103680005825692059256900676F696E6720746F36
:1036900020646F2074686174206E6F772E006164FF
:1036A0006A7573746D656E74732C20776520617212
:1036B00065007765206E65656420746F20646F20F7
:1036C000736F6D65004166746572207472616E730C
:1036D000706F72746174696F6E00332F3231004302
:1036E0004F4E54494E554500473120462569205AD2
:1036F0003000473120462569205825692059256921
:103700000047312046256920582569205925690040
:10371000473120462569205A350066726F6D207446
:103720006865206275696C64706C6174652E0061F7
:10373000206D696C6C696D65746572206177617963
:1037400000756E74696C20746865206E6F7A7A6C8F
:103750006520697300526F74617465207468652018
:10376000627574746F6E00342F323100434F4E54C3
:10377000494E554500434F4E54494E55450047313B
:1037800020462569205A30004731204625692058B7
:10379000256920592569004731204625692058258B
:1037A000692059256900473120462569205A35008E
:1037B00066726F6D20746865206275696C64706CE8
:1037C0006174652E0069732061206D696C6C696D90
:1037D0006574657220617761790073637265772023
:1037E00074696C6C20746865206E6F7A7A6C650001
:1037F0005475726E206C656674206275696C6470B5
:103800006C61746500352F323100434F4E54494E80
:1038100055450066726F6D20746865206275696C2D
:1038200064706C6174652E0069732061206D696C31
:103830006C696D657465722061776179007363727C
:1038400065772074696C6C20746865206E6F7A7A75
:103850006C65005475726E207269676874206275B9
:10386000696C64706C61746500362F323100434FAF
:103870004E54494E554500250046616E20737065D3
:103880006564004731205A343000414456414E436C
:103890004544004300432F00436C69636B20746F01
:1038A0002072657475726E004E6F7A7A6C65207442
:1038B000656D70657261747572653A004300432FDF
:1038C00000436C69636B20746F2072657475726E4F
:1038D00000526F7461746520746F2065787472751E
:1038E0006465004E6F7A7A6C652074656D706572E0
:1038F00061747572653A004300432F00436C69633D
:103900006B20746F2072657475726E004275696CFD
:1039100064706C6174652074656D702E3A00546932
:103920006E6B65725F4458555F31372E31300046FB
:10393000656220323020323032302032323A333732
:103940003A34330052657475726E006D00204D611B
:10395000743A003A005072696E74696E673A003AC0
:10396000004D616368696E65206F6E20666F723A04
:103970000052657475726E00746F206465666175BF
:103980006C743F0052657365742065766572797456
:1039900068696E67004E4F0059455300496E766561
:1039A000727420617869730041786973207374655B
:1039B00070732F6D6D004D6F746F7220437572724E
:1039C000656E74004D61782E206178697320737084
:1039D00065656400416363656C65726174696F6EEF
:1039E000004D4F54494F4E0020476C6F7720776849
:1039F000656E20646F6E6500204F6E207768696C7D
:103A000065207072696E74696E670020416C776121
:103A10007973204F66660020416C77617973204F7F
:103A20006E004272696768746E65737300250025C5
:103A3000004272696768746E657373004C45440098
:103A40004765656B204D6F6465003E005374616E81
:103A500064617264204D6F6465003E00203F3F3F0B
:103A6000004F6666003E0053686F7274207469638D
:103A70006B003E005374616E646172642062656520
:103A800070003E005363726F6C6C2066696C656EEB
:103A9000616D6573003E004E6F207363726F6C6CD6
:103AA000696E67003E005573657220696E746572B9
:103AB0006661636500436C69636B20736F756E6448
:103AC000005363726F6C6C2066696C656E616D6526
:103AD00073002500436C69636B20746F20726574FA
:103AE00075726E0053637265656E20636F6E7472DB
:103AF000617374004B640044657269766174697621
:103B00006520636F6566662E004B6900496E7465BB
:103B10006772616C20636F656666696369656E7460
:103B2000004B700050726F706F7274696F6E616CD1
:103B300020636F6566662E004241434B004241435D
:103B40004B00436C69636B20746F207265747572EF
:103B50006E004155544F00537461727420504944B3
:103B6000206175746F74756E650053544F52450033
:103B700053746F7265205049442073657474696E84
:103B80006773005049442073657474696E677300ED
:103B9000283129004578747275646572004B6400A1
:103BA0004465726976617469766520636F656666DF
:103BB0002E004B6900496E74656772616C20636FFB
:103BC000656666696369656E74004B700050726F5C
:103BD000706F7274696F6E616C20636F6566662EBC
:103BE000004241434B004241434B00436C69636BCD
:103BF00020746F2072657475726E004155544F00C9
:103C0000537461727420504944206175746F7475E7
:103C10006E650053544F52450053746F72652050C7
:103C200049442073657474696E6773005049442079
:103C300073657474696E677300283229004578745F
:103C40007275646572004B640044657269766174D4
:103C500069766520636F6566662E004B6900496E64
:103C600074656772616C20636F6566666963696518
:103C70006E74004B700050726F706F7274696F6E6B
:103C8000616C20636F6566662E004275696C642DF9
:103C90007C706C61746500504944206D6F646500F0
:103CA0004241434B004241434B00436C69636B20EC
:103CB000746F2072657475726E004155544F0053D5
:103CC0007461727420504944206175746F74756E0C
:103CD000650053544F52450053746F72652050492C
:103CE000442073657474696E67730050494420738F
:103CF000657474696E677300504944206F6666008E
:103D00004275696C64706C61746500457874727595
:103D10006465722032004578747275646572203172
:103D20000054656D706572617475726520636F6EA5
:103D300074726F6C00417869732073746570732FAF
:103D40006D6D006E6F00796573003A00496E76659F
:103D5000727400453200457874722E32004531008D
:103D6000457874722E31005A005A005900590007E4
:103D7000081C22414141221C07081C3E7F7F7F3ED8
:103D80001C580058004241434B004241434B004302
:103D90006C69636B20746F2072657475726E00536A
:103DA000544F52450053746F726520696E76657288
:103DB0007420666C61677300496E76657274206169
:103DC000786973006D6D00456E64206C656E677474
:103DD0006800456E64206F66207072696E74206C96
:103DE000656E677468006D6D2F7300526574726143
:103DF0006374207370656564006D6D005265747244
:103E00006163740052657472616374206C656E67DF
:103E10007468004241434B004241434B00436C698C
:103E2000636B20746F2072657475726E0053544F0B
:103E300052450053746F72652073657474696E67C0
:103E4000730052657472616374696F6E2073657478
:103E500074696E67730045320045787472756465E5
:103E600072203220286D4129004531004578747256
:103E700075646572203120286D4129005A005A204E
:103E80006178697320286D412900582F5900582FF7
:103E900059206178697320286D4129004241434BC4
:103EA000004241434B00436C69636B20746F207286
:103EB000657475726E0053544F52450053746F729F
:103EC000652073657474696E6773004D6F746F72EB
:103ED0002043757272656E74002059002058005797
:103EE00069706520706F736974696F6E3A006469F8
:103EF0007361626C656400656E61626C6564004646
:103F000069726D7761726520776970653A2000206B
:103F10005900205800446F636B20706F7369746997
:103F20006F6E3A00486F6D65206F6666736574202A
:103F30007A3220286D6D293A200064697361626CC1
:103F4000656400656E61626C6564004475616C2037
:103F500073657475703A20006563686F3A00536545
:103F60007474696E67732053746F726564002044C3
:103F7000002049002020204D33303120500050498E
:103F8000442073657474696E67733A00205A002088
:103F9000590020204D323036205800486F6D652082
:103FA0006F666673657420286D6D293A00204500A0
:103FB000205A0020580020420020540020204D327A
:103FC0003035205300416476616E6365642076610C
:103FD000726961626C65733A20533D4D696E20666B
:103FE0006565647261746520286D6D2F73292C20BE
:103FF000543D4D696E2074726176656C206665650E
:10400000647261746520286D6D2F73292C20423DE8
:104010006D696E696D756D207365676D656E742071
:1040200074696D6520286D73292C20583D6D617869
:10403000696D756D205859206A65726B20286D6D09
:104040002F73292C20205A3D6D6178696D756D2084
:104050005A206A65726B20286D6D2F73292C2020E1
:10406000453D6D6178696D756D2045206A65726B9F
:1040700020286D6D2F73290020540020204D3230F0
:1040800034205300416363656C65726174696F6EBF
:104090003A20533D616363656C65726174696F6E4C
:1040A0002C20543D72657472616374206163636592
:1040B0006C65726174696F6E00204500205A0020A3
:1040C000590020204D3230312058004D6178696D03
:1040D000756D20416363656C65726174696F6E20F4
:1040E000286D6D2F7332293A00204500205A002098
:1040F000590020204D3230332058004D6178696DD1
:10410000756D2066656564726174657320286D6DD8
:104110002F73293A00204500205A00205900202002
:104120004D393220580053746570732070657220C9
:10413000756E69743A00563031300053746F726591
:10414000642073657474696E677320726574726934
:10415000657665640048617264636F6465642044D9
:10416000656661756C742053657474696E6773203D
:104170004C6F61646564006563686F3A0050524536
:10418000464552454E434553004D3834205820593A
:1041900020450052455455524E0053455454494E03
:1041A0004753004348414E474500666F72206D619A
:1041B00074657269616C2072656D6F76616C00293F
:1041C000002800436F6F6C696E67206E6F7A7A6C9F
:1041D000650048656174696E67206E6F7A7A6C65F8
:1041E00000526576657273696E67206D61746572E1
:1041F00069616C00290028004578747275646572E5
:104200000052656D6F7665206D6174657269616CD1
:104210000029002800457874727564657200434176
:104220004E43454C00524541445900666F72206927
:104230006E73657274696F6E0029002800436F6F9A
:104240006C696E67206E6F7A7A6C65004865617480
:10425000696E67206E6F7A7A6C6500796F7572206F
:104260006D616368696E650066726F6D2074686564
:10427000206261636B73696465206F6600290028A2
:1042800000666F7220657874727564657200496E9D
:1042900073657274206E6577206D617465726961F3
:1042A0006C0043414E43454C005245414459004641
:1042B0006F7277617264696E67206D61746572698F
:1042C000616C00290028004578747275646572007D
:1042D00029002800636F6D6573206F7574206E6F01
:1042E0007A7A6C6500576169742074696C6C206D12
:1042F0006174657269616C0043414E43454C0052E4
:1043000045414459001F002F001F002F000708409F
:104310004A55404A55401F002F00250048656174EA
:10432000696E672075702E2E2E2000555342206333
:104330006F6D6D756E69636174696F6E2E2E2E00E0
:1043400048656174696E67206275696C64706C6140
:1043500074650048656174696E67206E6F7A7A6C67
:1043600065005A0050617573696E672E2E2E0043EA
:104370006C69636B20746F20636F6E74696E756512
:104380002E2E2E005061757365642E2E2E00250092
:1043900007081C3E7F71773E1C50617573696E671C
:1043A0002E2E2E005061757365642E2E2E00070888
:1043B0007F5D4941495D7F44697361626C6520732B
:1043C00074657070657273005265636F76657220F4
:1043D0007072696E74004D6F766520617869730044
:1043E0004D3834205830205930006D6D005A00434C
:1043F000414E43454C0053544F524500746865206C
:104400006275696C64706C617465006E6F7A7A6C49
:104410006520746F7563686573004D6F7665205A0B
:1044200020756E74696C20746865006D6D005A00AB
:10443000746865206275696C64706C617465006E87
:104440006F7A7A6C6520746F7563686573004D6F61
:104450007665205A20756E74696C20746865004119
:10446000424F52540041424F52540041626F7274A5
:10447000207072696E740007081C22404F40221C95
:1044800054554E450054554E450054756E65206D8B
:10449000656E7500202F20005A0052656164696EB8
:1044A000672066696C652E2E2E002500476C6F779D
:1044B000004C454420736C65657020676C6F770015
:1044C00007087F6E6C787267426F66660025004C45
:1044D000434420736C65657020636F6E7472617302
:1044E000740053637265656E006F6666006D696E79
:1044F0000053637265656E2074696D656F75740035
:104500000708492A1C7F1C2A4925004C4544207372
:104510006C656570206272696768746E657373009C
:1045200007081C22414F49221C4C69676874006FC0
:104530006666006D696E004C45442074696D656F58
:104540007574004241434B004241434B00436C6948
:10455000636B20746F2072657475726E0053544FD4
:1045600052450053746F7265206F7074696F6E737B
:1045700000536C6565702074696D6572006D6D0027
:104580005A004D6178696D756D205A20636F6F72A6
:1045900064696E617465006D6D002D004D61786910
:1045A0006D756D205920636F6F7264696E617465FB
:1045B000006D6D0059004D696E696D756D20592053
:1045C000636F6F7264696E617465006D6D002D00BC
:1045D0004D6178696D756D205820636F6F726469E5
:1045E0006E617465006D6D0058004D696E696D7582
:1045F0006D205820636F6F7264696E61746500424C
:1046000041434B004241434B00436C69636B207450
:104610006F2072657475726E0053544F524500538B
:10462000746F72652061786973206C696D69747349
:10463000005072696E7420617265610045320045F8
:104640007874727564657220322073746570732F8C
:104650006D6D004531004578747275646572203166
:104660002073746570732F6D6D005A005A20737437
:104670006570732F6D6D00590059207374657073E8
:104680002F6D6D005800582073746570732F6D6D19
:10469000004241434B004241434B00436C69636B12
:1046A00020746F2072657475726E0053544F5245BA
:1046B0000053746F72652073746570732F6D6D0095
:1046C00020280029004300432F00436C69636B20BE
:1046D000746F2072657475726E004E6F7A7A6C65B5
:1046E000200054656D706572617475726500524585
:1046F0005455524E0045585452554445527C320050
:1047000045585452554445527C31004D3234004D89
:104710003233202573006175746F25692E67002F71
:10472000002F0043616E6E6F74206F70656E207392
:104730007562646972004D3834204530006D6D003B
:10474000526F7461746520746F206578747275643B
:10475000650007080708137F13080752657365741F
:1047600020706F736974696F6E0006080814220860
:104770001422436C69636B202620686F6C6420747C
:104780006F2070756C6C001F001F2F001F001F2F03
:104790000029200028004E6F7A7A6C652000424183
:1047A000434B00070810387C1010101E4241434B49
:1047B00000436C69636B20746F2072657475726E50
:1047C0000054554E450005082A2A2A2A2A54554ED7
:1047D00045004D6F7265206F7074696F6E730029AC
:1047E0000028004D6F7665206D6174657269616C9B
:1047F000001F001F2F001F00280029004275696C50
:1048000064706C61746520000000210024002700A2
:104810002A002D00300033000101000004010701CF
:104820000A0100002200250028002B002E00310084
:10483000340002010000050108010B010505050512
:10484000070508080808020202020A0A0808040408
:104850000404010101010101010103030303030336
:104860000303040707070C0C0C0C0C0C0C0C0202C5
:10487000020206060606060606060B0B0B0B0B0BC2
:104880000B0B01021020200808102040102040804F
:104890000201020108040201010204081020408004
:1048A0008040201008040201800402018040201092
:1048B00008040201080402010102040810204080DB
:1048C000010204081020408000000A0B02090C0DB0
:1048D0000E080703040100000000000000000000B3
:1048E00000000000000000000000000000000000C8
:1048F0000000000012111000000000000000000085
:1049000000000000000000000000000000002F2F49
:10491000616374696F6E3A006572726F72207772AC
:104920006974696E6720746F2066696C6500446FF6
:104930006E6520736176696E672066696C652E000E
:104940006F6B004D3239002200656E717565696EBE
:104950006720220020400020403A002042403A00D8
:10496000202F00205400202F0020423A00202F004A
:1049700020543A002073656300206D696E00206842
:104980006F75720020686F7572730054696D6520D1
:104990006C6566740054696D65206C65667420757D
:1049A0006E6B6E6F776E004300432F004865617435
:1049B000696E67206275696C64706C617465004330
:1049C00000432F00432000432F0048656174696E47
:1049D00067005072696E74696E673A0050415553B2
:1049E000450054554E4500756C74696D616B657278
:1049F0002E636F6D2F4552303800476F20746F3A29
:104A00000072656164696E672053442D636172644E
:104A100021004572726F72207768696C650052459B
:104A20005455524E20544F204D41494E006F662040
:104A30007072696E74696E6720617265610054728C
:104A4000696564207072696E74696E67206F757431
:104A5000004552524F523A0052455455524E20543E
:104A60004F204D41494E0066726F6D20746865207D
:104A7000736C696365722E0073657474696E672068
:104A8000776974682073657474696E67006F766502
:104A90007272696465206D616368696E650054684F
:104AA00069732066696C652077696C6C0043414EC0
:104AB00043454C00434F4E54494E55450025732005
:104AC0007673202573006D6174657269616C2E00C8
:104AD000666F72206120646966666572656E740037
:104AE000546869732066696C652069732063726518
:104AF000617465640043414E43454C00434F4E543E
:104B0000494E55450041626F7274696E672E2E2EB4
:104B10000041626F727420746865207072696E74EF
:104B20003F004E4F00594553005072696E74206625
:104B3000696E6973686564005072696E746572208D
:104B4000636F6F6C696E6720646F776E004300431C
:104B5000200068006D696E0054696D652000424157
:104B6000434B20544F204D454E5500536C656570A6
:104B70002074696D6572004D6F7665206D61746596
:104B80007269616C004C4544204272696768746EBA
:104B9000657373004578747275646572206F66661C
:104BA00073657400546F6F6C6368616E6765207223
:104BB000657472616374203200546F6F6C63686156
:104BC0006E6765207265747261637420310052658E
:104BD0007472616374696F6E004D617465726961AE
:104BE0006C20666C6F772032004D6174657269616C
:104BF0006C20666C6F7720310046616E20737065A3
:104C00006564004275696C64706C617465205465FC
:104C10006D702E005072696E742054656D706572EF
:104C200061747572652032005072696E742054652B
:104C30006D706572617475726520310053706565C1
:104C4000640025002500250025004300432F004374
:104C500000432F004300432F002500202800290097
:104C60004300432F00436C69636B20746F207265AF
:104C70007475726E004275696C64706C6174650065
:104C800054656D7065726174757265005072656807
:104C9000656174001F002F001F002F004D41544517
:104CA0005249414C004D41494E54454E414E4345B9
:104CB000005052494E54004348414E4745004D4F25
:104CC00056450053455454494E47530041445641BC
:104CD0004E434544005052494E54005052454845B9
:104CE0004154004D4154455249414C0053544152A6
:104CF000540052455455524E00414456414E43458E
:104D000044004255494C442D7C504C41544500458B
:104D100078706572742066756E6374696F6E730067
:104D200041646A757374206275696C64706C617437
:104D300065005365742066616E207370656564005C
:104D40004D6F7665206D6174657269616C00496EA6
:104D500073657274206D6174657269616C00526173
:104D6000697365206275696C64706C617465004C70
:104D70006F776572206275696C64706C6174650030
:104D8000486F6D6520686561640048656174757081
:104D9000206275696C64706C61746500486561744B
:104DA0007570206E6F7A7A6C65004475616C204571
:104DB0007874727573696F6E00507265666572659E
:104DC0006E6365730025004300432F004300432FAB
:104DD00000432000432F00466163746F7279207294
:104DE000657365740052756E74696D6520737461C6
:104DF00074730056657273696F6E00506F776572D9
:104E000020627564676574005072696E7420617207
:104E10006561004D6F74696F6E2073657474696E9F
:104E200067730052657472616374696F6E20736595
:104E30007474696E67730054656D70657261747522
:104E4000726520636F6E74726F6C00486561746583
:104E5000722074696D656F75740053637265656E59
:104E600020636F6E747261737400536C656570209B
:104E700074696D6572005363726F6C6C2066696C47
:104E8000656E616D657300436C69636B20736F754C
:104E90006E64004C45442073657474696E677300DA
:104EA0005573657220696E7465726661636500543E
:104EB000696E6B65725F4458555F31372E31300033
:104EC0006F66660073006F6666202F20006D696E46
:104ED000202F2000250044697361626C65640045E1
:104EE0006E61626C6564005374616E64617264002B
:104EF00053686F7274207469636B004F6666002597
:104F0000005374616E64617264204D6F6465004784
:104F100065656B204D6F646500202D20496E7661BC
:104F20006C6964206578747275646572206E756D45
:104F30006265722021000000000018070100A80728
:104F4000140030082800B8083C0038095000C00997
:104F50006400480A7800C80A8C00480BA000C80BFF
:104F6000B400480CC800C80CDC00400DF000C00DB7
:104F70000401380E1801B00E2C01280F4001A00FBB
:104F800054011810680188107C0100119001301341
:104F9000F401481558024017BC0228192003F01AE2
:104FA0008403A81CE803401E4C043A204578747220
:104FB00075646572207377697463686564206F66D1
:104FC000662E204D415854454D50207472696767D4
:104FD000657265642021003A2045787472756465B5
:104FE00072207377697463686564206F66662E202B
:104FF0004D494E54454D502074726967676572651E
:105000006420210054656D7065726174757265204D
:105010006865617465642062656420737769746390
:10502000686564206F66662E204D415854454D508A
:10503000207472696767657265642021210045727A
:10504000726F723A00526573656E643A20006F6B3E
:105050000000F202000311241FBECFEFD1E2DEBF39
:10506000CDBF00E00CBF13E0A0E0B2E0E4E7F8E45D
:1050700003E00BBF02C007900D92A637B107D9F726
:1050800028E1A6E7B3E001C01D92A63FB207E1F711
:1050900018E2CAE2D8E200E006C021970109802F99
:1050A000FE010F949DA3C932D10780E00807A9F73C
:1050B0000F943C880D9429A40C9400002F923F92E9
:1050C0004F925F926F927F928F929F92AF92BF9218
:1050D000CF92DF92EF92FF920F931F93CF93DF93C4
:1050E000CDB7DEB7C454D1090FB6F894DEBF0FBEFA
:1050F000CDBFB82ED92E21966FAF219780919C14E9
:105100009AEF980F923020F0803F10F410929C1488
:1051100067E48B2D9D2D0F94C76EF82E882309F41C
:10512000E3C480918B0590918C0560E070E001965E
:105130000F94C5980F941AA16A30710509F4C9C07B
:105140009CF46230710509F449C024F477FF32C041
:105150000C94AD466330710509F453C06430710599
:1051600009F462C00C94AD466A35710509F473C444
:1051700064F480919C146B30710509F43EC16C316C
:10518000710509F4CEC10C94AD466B35710509F477
:1051900069C46C35710511F00C94AD469EE4892EFE
:1051A00093E0992E27EAE22E24E1F22E00E0C12CB2
:1051B00010E078C48091FB04811110C08B2D9D2DCF
:1051C0000F9419848B2D9D2D0E94237D21964FAC29
:1051D0002197442011F40C94344CCEC68091FB04EA
:1051E00081110FC08B2D9D2D0F94E38681E00E94CD
:1051F000E07921965FAC2197552011F40C94344C42
:10520000BBC68091FB0481110FC08B2D9D2D0F9487
:10521000E38680E00E94E07921966FAC21976620BA
:1052200011F40C94344CA8C680919C14863011F46F
:105230000C94AD4689E999E00F94257060E58B2DBB
:105240009D2D0F94C76E882371F080918B059091EE
:105250008C0560E070E001960F94C5980F9420A132
:105260002B013C0103C0412C512C320163E58B2DF5
:105270009D2D0F94C76E882399F080918B05909196
:105280008C0560E070E001960F94C59820E030E056
:105290004AE754E40F94E4960F9420A12B013C01BB
:1052A0000E946BB70F94066A609383057093840520
:1052B000809385059093860581E080939C14C301BB
:1052C000B2010E9455AE82E999E00F9425700C94CA
:1052D000AD4680919C14863011F40C94AD468091BB
:1052E000A51490E04091C7149C01042E02C035958E
:1052F00027950A94E2F720FF02C00C94AD4624E003
:1053000030E002C0220F331F4A95E2F78223932335
:10531000892B11F00C94AD464090560250905702E4
:1053200060905802709059028091B3149091B41417
:10533000A091B514B091B61489839A83AB83BC83D2
:1053400080E1E7EAF4E1A2E5B4E001900D928A95EC
:10535000E1F780916F0280FF02C00C94BD4663E5C7
:105360008B2D9D2D0F94C76E882311F40C94BD4690
:1053700080918B0590918C054AE050E060E070E0F0
:1053800001960F942B9A613071058105910511F0FA
:105390000C94BD46E091C71424E0E29F80011124E3
:1053A000F801ED57FB4ED801A954BB4E2D913D910C
:1053B0004D915C9160817181828193810F94A9A04C
:1053C0009B01AC0160915E0470915F048091600468
:1053D000909161040F94BA9F60935E0470935F0490
:1053E0008093600490936104F801E15DFB4E80813D
:1053F0009181A281B3810C94EF46863011F40C9414
:10540000AD468091C7142091A51430E0082E02C04B
:10541000359527950A94E2F720FD02C00C94AD461D
:105420000F947D5E6091B3147091B4148091B514A3
:105430009091B61469837A838B839C8320E1E7EA99
:10544000F4E1A2E5B4E001900D922A95E1F7C09055
:10545000C714B4E0CB9E70011124870103561B4E84
:10546000F80120813181428153810F94BB9F609369
:105470005E0470935F048093600490936104409095
:105480005602509057026090580270905902F701EE
:10549000E259FB4F80819181A281B38180935602B2
:1054A00090935702A0935802B093590281E090E084
:1054B00001C0880FCA94EAF780959091A5148923BA
:1054C0008093A514D8011D921D921D921C921397D2
:1054D0008B2D9D2D0E94237D4092560250925702A3
:1054E000609258027092590289819A81AB81BC8185
:1054F0008093B3149093B414A093B514B093B614DE
:1055000080935E0490935F04A0936004B093610461
:1055100040E06091C714CE0101960E944F9F0C9409
:10552000AD469BEF980F923010F40C94AD46873047
:1055300029F08F3F19F085E080939C140E946BB78F
:105540008091560290915702A0915802B091590251
:105550008093780390937903A0937A03B0937B03AD
:1055600080917502909176029093770380937603F1
:1055700084E690E090937602809375020F94066A19
:1055800060938305709384058093850590938605C9
:1055900011E010930F0280E1E7EAF4E1A2E5B4E044
:1055A00001900D928A95E1F71092560210925702DF
:1055B000109258021092590268E58B2D9D2D0F9480
:1055C000C76E882311F080E00DC069E58B2D9D2DFD
:1055D0000F94C76E8111F7CF6AE58B2D9D2D0F9427
:1055E000C76E812780930002882309F439C1109285
:1055F000A7141092A8141092A9141092AA14109231
:10560000AB141092AC141092AD141092AE14109210
:10561000AF141092B0141092B1141092B21461E051
:105620008091C7140F947F5D2091620430916304D0
:1056300040916404509165046091140270911502C8
:1056400080911602909117020F94BA9F20E030E0EB
:1056500040EC5FE30F94E496DC01CB01B0588093FB
:10566000520490935304A0935404B0935504209192
:105670006604309167044091680450916904609118
:1056800018027091190280911A0290911B020F94D6
:10569000BA9F20E030E040EC5FE30F94E496609323
:1056A00056047093570480935804909359042091A2
:1056B0006A0430916B0440916C0450916D046091C8
:1056C0001C0270911D0280911E0290911F020F9486
:1056D000BA9F20E030E040EC5FE30F94E4966093E3
:1056E0005A0470935B0480935C0490935D0480E0A3
:1056F00090E8ABEBB5E48093560290935702A093E9
:105700005802B0935902C090C714E12CF12C08EC58
:1057100012E42EE534E04AE554E066E574E082E503
:1057200094E00E949D9F0E946BB70E94D3BE80E0D0
:1057300090E00F94B26D81E090E00F94B26D82E042
:1057400090E00F94B26D61E08091C7140F947F5D7B
:105750008091A7149091A814A091A914B091AA14B3
:105760008093520490935304A0935404B09355042F
:105770008091AB149091AC14A091AD14B091AE1483
:105780008093560490935704A0935804B0935904FF
:105790008091AF149091B014A091B114B091B21453
:1057A00080935A0490935B04A0935C04B0935D04CF
:1057B00020E030E040E752E46091560270915702D9
:1057C00080915802909159020F94A9A0C090C714DB
:1057D0007B018C012EE534E04AE554E066E574E097
:1057E00082E594E00E949D9F10925602109257020B
:1057F00010925802109259020E946BB70E94D3BEB9
:105800008091520490915304A0915404B091550496
:105810008093A7149093A814A093A914B093AA14EA
:105820008091560490915704A0915804B091590466
:105830008093AB149093AC14A093AD14B093AE14BA
:1058400080915A0490915B04A0915C04B0915D0436
:105850008093AF149093B014A093B114B093B2148A
:105860008091000281110C9459476AE58B2D9D2D82
:105870000F94C76E81110C945947809100028111D9
:105880000C945F4768E58B2D9D2D0F94C76E882380
:1058900041F069E58B2D9D2D0F94C76E81110C94FD
:1058A0005F478091000281110C945C4868E58B2D64
:1058B0009D2D0F94C76E81110C945C48809100025D
:1058C00081110C94624869E58B2D9D2D0F94C76E54
:1058D00081110C94624868E58B2D9D2D0F94C76E45
:1058E000882351F180918B0590918C054AE050E01E
:1058F00060E070E001960F942B9A672B682B692B60
:10590000D9F080918B0590918C0560E070E0019654
:105910000F94C598209113143091141440911514CC
:10592000509116140F94BB9F6093A7147093A81402
:105930008093A9149093AA1469E58B2D9D2D0F9443
:10594000C76E882351F180918B0590918C054AE0B8
:1059500050E060E070E001960F942B9A672B682B63
:10596000692BD9F080918B0590918C0560E070E0F7
:1059700001960F94C59820911714309118144091F6
:10598000191450911A140F94BB9F6093AB14709329
:10599000AC148093AD149093AE146AE58B2D9D2DBD
:1059A0000F94C76E882351F180918B0590918C05DF
:1059B0004AE050E060E070E001960F942B9A672B6C
:1059C000682B692BD9F080918B0590918C0560E054
:1059D00070E001960F94C59820911B1430911C140F
:1059E00040911D1450911E140F94BB9F6093AF14EF
:1059F0007093B0148093B1149093B21461E08091CD
:105A0000C7140F947F5D10920F02809178039091DC
:105A10007903A0917A03B0917B038093560290930F
:105A20005702A0935802B093590280917603909147
:105A3000770390937602809375020F94066A6093C1
:105A400083057093840580938505909386050E9455
:105A5000D3BE0C94AD4680914D0F8F7780934D0F40
:105A60000C94AD4680914D0F806880934D0F0C943F
:105A7000AD4680918B0590918C0560E070E00196B9
:105A80000F94C598D7016D937D938D939C93139735
:105A9000133091F0CC24C3941F5FB4E0EB0EF11CE3
:105AA000143061F0F40161914F018B2D9D2D0F9405
:105AB000C76E882389F3DDCF01E0EECFCC2039F02B
:105AC00061E08091C7140F947F5D0C94AD46002374
:105AD00011F40C94AD4640E06091C71483EB94E15F
